:020000040000FA
:10000000FC2C0020C90E0000FD0E0000F70C0000C3
:10001000CF0D0000CF0D0000CF0D0000000000004C
:10002000000000000000000000000000CF0D0000F4
:10003000CF0D000000000000CF0D0000CF0D00002C
:10004000CF0D0000CF0D0000CF0D0000CF0D000040
:10005000CF0D0000CF0D0000CF0D0000CF0D000030
:10006000CF0D0000CF0D0000CF0D0000CF0D000020
:10007000CF0D0000CF0D0000CF0D0000CF0D000010
:10008000CF0D0000CF0D0000CF0D0000CF0D000000
:10009000CF0D0000CF0D0000CF0D0000CF0D0000F0
:1000A000CF0D0000CF0D0000CF0D0000CF0D0000E0
:1000B000CF0D0000CF0D0000CF0D0000CF0D0000D0
:1000C000CF0D0000CF0D000010B5ADF1180D03915C
:1000D00002902E48006840690146062088472B4858
:1000E0000068406B0146062088470128F7D1274861
:1000F0000068C06901464FF4A060884700F004F929
:1001000000F0C6F80028FBD020480068C06901460E
:100110004FF48070884700F0F7F800F0B9F8002835
:10012000FBD04FF080400F2100F0CEF84FF0804020
:10013000032100F0E0F816480068029A0068009277
:10014000082101911349002304464FF0804000220A
:10015000A047114800680399406C13224FF0FF3309
:10016000044600914FF080401221A0474FF080409C
:1001700000F0B6F806480068006904A902464FF08E
:10018000804090470028F5D106B010BDB80100109E
:10019000C4010010006CDC02B401001008B5144862
:1001A0000068006A01464FF48070884700F0ACF8A0
:1001B00000F06EF80028FBD00D480068006A014688
:1001C0004FF4A060884700F09FF800F061F8002825
:1001D000FBD007480068806901460620884704482C
:1001E0000068406B0146062088470228F7D108BD09
:1001F000B80100100EB501910090019800B31148AC
:1002000000688068002102464FF08040904710B996
:100210004FF0FF3015E00B480068C06802A90246A5
:100220004FF0804090479DF80800009908700198B1
:10023000401E01900098401C009001980028DED1DB
:1002400000200EBDC40100100EB501910090019870
:10025000C8B10E48009900680978406802464FF01E
:100260008040904709480068C06802A902464FF0E4
:10027000804090470198401E01900098401C0090DB
:1002800001980028E5D100200EBDC046C401001031
:10029000054801680020890801D3012100E0002100
:1002A00001B101207047C0462820084008B5054824
:1002B00000680069694602464FF080409047002878
:1002C000F5D108BDC4010010ADF1080D01910090F9
:1002D0000098019A143001689143016002B07047A0
:1002E000ADF1080D00900098001D016841F0020179
:1002F000016002B07047ADF1080D019100900198C6
:100300000099086202B070470149012008607047F7
:10031000282008602DE9F041424C474D8046C8F343
:100320008140401E02D0401E2AD025E028462030C1
:100330000168880C20D24FF4804020603A48D0F801
:1003400002204B0AC1F3033703F0800322F08F022F
:10035000134347EA0302C0F80220D0F801300E121E
:1003600066F30303C0F80130026801F0E70722F0EA
:10037000E70247EA020102E04FF000412046016037
:100380002A4E06F108000068C0F3C0070FB94020EC
:10039000A0624FF40070206400F0FEFB40F03000DB
:1003A00084F8C800C8F3815038B3401E03D0401E03
:1003B0001ED002211DE0012000F072FB0746042040
:1003C000394600F06FFA042000F06AFB8742FAD148
:1003D000366826F07F4000F0F3FA1548006803689D
:1003E00007214FF06022300E98474FF48060206064
:1003F0000321042000F056FA06E00420012100F059
:1004000051FA0C4800F0DCFA284600680B4947F620
:10041000180700F03F0084F8CB0F094E0F803068BA
:10042000BDE8F08140A00C400A600840A83F0050A1
:10043000B4010010BD3786006C13005070B00C4042
:100440002C2009407CB50446084600F0CFF9344E14
:1004500002461821304600F0CBFA00F03DFB40F296
:10046000FF32002380B22C210090304600F064FA65
:1004700000F09AFB1C210246304600F0B9FA00F069
:100480001DFB02461421304600F0B2FA00F04AFB90
:1004900002461021304600F0ABFA204600F070F919
:1004A00002460C21304600F0A3FA204600F022FB61
:1004B0001C4D400040F020002870204600F026FB34
:1004C00040F010002870204600F0BEFA02462821B5
:1004D000304600F08DFA204600F030FB400040F03E
:1004E0006000E870204600F035FBC00040F080005E
:1004F00005F8080C204600F039FB800040F47C40F1
:10050000A5F89300204600F089FA024608213046FB
:1005100000F06EFA4FF48000A5F2091108607CBD6E
:1005200000A00C4049A10C40294A2DE9F041804629
:100530000126284816600768002FFCD0294C2A4F56
:10054000C020443C206007F1080001682348890866
:1005500004D20168090C41F0F00100E072211E4D47
:1005600085F85412002111638768384600F094F82A
:1005700040463946FFF766FF1C48B038816D40F2AF
:100580000F226FF31F418A4212D901680068C1F33C
:100590000363C0F3034003B15B1E072805D00628A0
:1005A0000EBF0720801C00F00F0043EA00102870E7
:1005B0003846FFF7AFFE0E4814380068C1680220C5
:1005C000884740202060064F3E60BDE8F081C0466D
:1005D000101009409402224302600840AC3F0050D2
:1005E0009404604244600C40A83F00506C130050DB
:1005F000B4010010264838B550380468B4F1FF3F04
:1006000008BF002400F0BEFA224817490025103820
:100610000560012008601549086000F01BF91448C6
:10062000006820B1134800682046FFF77DFF12489C
:1006300012490560124C0A686FF35B4244EA0200FB
:10064000086010490868C0F30130012806D10A6823
:100650000D48104040F400320A6008600B490868F9
:100660000028FCD138BDC0465C600C400822044321
:1006700080012843000120438C210840482003408A
:100680000000390104000940FFFFFCFC0C00684237
:100690006C130050940460420246184808B5006884
:1006A000C0F3046000F088FA00EB2270401C1628AA
:1006B00005DA10F10A0FB8BF6FF0090000E015204D
:1006C0000F49104B00F01F0040F4F85008801868E4
:1006D000800803D20C490020086001E042F040622B
:1006E0000A49D00E930E80F0010000F0010008606E
:1006F00083F0010000F00100886008BDB8120050CE
:100700006E6208400000094094042A430000204320
:100710001A4898B5D0F8781203680F0F03F0FF035A
:10072000802B28BF002300F0E3F84FF0FF3478B1AE
:10073000401E07D0401E012802D9801E19D01AE0A1
:10074000BFB118E0381C12D0801E14D1143311E050
:100750003846401E0BD0801E07D0001F03D0401E1D
:1007600009D1163306E0152405E0142403E00A2419
:1007700001E00A335CB2204698BDC046A01000508C
:1007800038B504461848174DC03002686B68C2F38C
:100790000351C2F303405B0813D22B681D0511EB14
:1007A000257103D41029A8BF0F2100E000211B04EC
:1007B00010EB237303D4102BA8BF0F2300E00023FA
:1007C000184640EA011002F47F4102F0FF03222C98
:1007D00041EA004143EA010024BF02F08042104395
:1007E00038BDC046AC3F0050B81200500146184812
:1007F00080B5983000688A0CC0F38367C0F38F20FF
:1008000022D241F3072100290BD54A42002140089A
:1008100005D17F0806BF0127381C4FF6FF70521E16
:10082000F5D1002910DD4FF6FF72400040F00100C5
:10083000824207D2780040F001070F2F92BF0120BB
:100840000F27101C491EF0D140EA074080BDC0466A
:10085000B81200500F4908680028FCD1104A131D37
:100860000D49186820F0030001430C480068C008D7
:100870000CD2106810F0030F0AD041F0030018608A
:10088000106800F003000328FAD101E041F00101F3
:10089000196070470C00684204000020B03F00500F
:1008A000004003407CB5114D04460E46600807D356
:1008B000B0B20021009001220B46284600F03CF81F
:1008C000A00807D3B0B200900021022201232846DD
:1008D00000F032F8E00807D3B0B2009000210C22FB
:1008E0000223284600F028F87CBDC04600A00C403A
:1008F000104A1068C0F30F314BF69A10884207D1A6
:1009000011680B20B0EB117F14BF0020042070474A
:100910002430884208BF01200BD04BF6413088427A
:1009200008BF032005D0213888420CBF02204FF0B9
:10093000FF30704718130050B0B500EB4100102B8A
:1009400004AF00F5007403D3103B00F50174120CE2
:100950003D889D4045EA024500F035F9002700B981
:100960000127064A394610680028FCD0256001207E
:10097000106009B100F02DF9B0BDC04600800C40F8
:10098000F8B51E4614460D18102E02D3103EAD1CAD
:10099000240C00F018F9002700B9012707483B464E
:1009A0000768002FFCD02D88012101600BB100F0F9
:1009B00010F92C403441A0B2F8BDC04600800C4074
:1009C0000949020480B5120C41F8082CC0F3074015
:1009D00041F8040C0120086004480768002FFCD08F
:1009E0000020086080BDC04644600C4084088C43F1
:1009F000B0B515460C1800F0E6F8002700B901273D
:100A0000054A394610680028FCD025600120106096
:100A100009B100F0DEF8B0BD00800C40202838BFDE
:100A200007480CD307480C3001680803821592056B
:100A300000F47C1001F00F01104340EA01307047D0
:100A400000803F408C130050202838BF002008D37E
:100A500004480C300068C10C01F44071C0F38450AC
:100A6000084370478C13005008B5044B1B689B6902
:100A70009847034A0021116008BDC046A801001034
:100A800084046042044908B5096849698847034AF3
:100A90000021116008BDC046A80100108404604216
:100AA000042807BF4FF0C0421D234FF080521C2383
:100AB00001483421FFF764BF00A00C400548BC305A
:100AC00001680348084001F07C4108437047C04674
:100AD000FCFCFC00B8120050054998310868096810
:100AE000C0F3870001F0030140EA01207047C046CF
:100AF000B8120050222804D303480068C0F30070E5
:100B0000704701207047C0468C130050222804D340
:100B100003480068C0F34070704701207047C0462A
:100B20008C1300500448B830006800F47C010004C5
:100B3000000C08437047C046B8120050202805D367
:100B400003480C300068C0F3015070470020704724
:100B50008C130050222804D303480068C0F3C060FF
:100B6000704700207047C0468C130050222804D3E1
:100B700003480068C0F34550704700207047C046E6
:100B80008C13005008B5FFF7B3FE18B9FFF7C0FD8E
:100B9000162800DAFEE708BD02480068C0F3C1402D
:100BA0007047C0468C1300500248C4300068C0F340
:100BB0000D007047B812005001461628A8BFA0F1DA
:100BC000200108467047EFF3108072B6704700208E
:0E0BD0007047EFF3108062B670470020704748
:100BE000002A4AD05FEA000C8B071CD1830722D170
:100BF000102A08D370B4103A78C978C0103AFBD2E2
:100C000070BC103238D0042A2CD3082A05D30C2A01
:100C100024BF08C908C008C908C008C908C092078D
:100C20002AD0920F22E00B780370491C401C521E00
:100C300022D08B07F7D1C30714D18307D8D0121F56
:100C400012D308C903801B0C4380001D121FF8D269
:100C50000AE008C903701B0A43701B0A83701B0A51
:100C6000C370001D121FF4D2121D05D00B78037043
:100C7000491C401C521EF9D16046704700221346A1
:100C80000A46194671B510F0030F0BD0002A82BF37
:100C900000F8011BB2F1010210F0030FF6D1002A97
:100CA00008BF71BD11F0FF0141EA0121042A18D3E8
:100CB00041EA0141082A0FD30E46102A08D30C46F8
:100CC0000D46B2F10F0312F00F0272C0103BFCD8B8
:100CD00012F0080F18BF42C012F0040F18BF40F8FE
:100CE000041B12F0020F18BF20F8021B12F0010FB4
:100CF00018BF017071BDFEE71348B0B5B0F1FF3FFA
:100D000001D000F065F8114D1148A84210D01148EB
:100D1000114CA0420CD0001BC71054F8040B10F863
:100D2000011B55F8212054F8041B90477F1EF4D175
:100D30000A4D0B4CA54205D002E054F8040B804745
:100D4000A542FAD1B0BDC046FFFFFFFF400F000033
:100D50004C0F0000680F0000580F0000000000005A
:100D6000000000002DE9F041054615F8017B904692
:100D70000E461CE0B8F1000F05F101050BD0FF2C69
:100D800009D8022015F8011B401E41EA0424F9D1BC
:100D900001E0042C02D315F8011B00E0394630466F
:100DA0002246FFF76FFFA61901E006F8010B15F8C0
:100DB000010B8742F9D115F8014B002CE9D115F848
:100DC000010B2C7800022418D4D1BDE8F081FEE795
:100DD000F8B506460F4D104F7388002417E0A000A9
:100DE00000EBC400321851689068D26852B9AF4223
:100DF0000BD00A7855F822200346491C08461946AC
:100E0000904701E0FFF7ECFE7388641CA4B2A34294
:100E1000E5DCF8BD400F00004C0F000000BF70473C
:100E200008B5FFF7FBFFFEE738B50546094800683F
:100E30008047094C201D006810B1014628468847AC
:100E4000206800B18047054800688047FFF7E8FF49
:100E500038BDC0460000002008000020040000202B
:100E60000B4885460B4885446F4607208743BD469F
:100E700009486F46076000F03FF8002801D0FFF7EF
:100E80003BFF00F00BF80120FFF7CEFFFEE7C04666
:100E9000FC2B002000010000140000200449B1F1E7
:100EA000FF3F07BF0020011C0868091D1EF0C4B9E0
:100EB000FFFFFFFF0349086070470249091F0860F0
:100EC000704770470400002008B5FFF793FBFFF759
:100ED000C7BFFFF710FF08BDD0F80320C31D0846A9
:100EE0001946FFF77DBED0F8032008460021FFF722
:0E0EF000C9BE0122FFF736BF01207047FEE7A2
:100F000000002000C215000000001000C214000004
:100F100000000800EF12000000000400EF110000C4
:0E0F2000000000000000000090FFFF0005062A
:100F30000001C30E0000C30E0112000100000000FA
:100F4000F30E0000D90E0000E70E000000000000C4
:100F50000200000004000000300F0000000000202C
:080F6000500F000018000020F2
:10100000FFFFFFFFFFFFFFFFFFFFFFFFFFFFFFFFF0
:1010100028420020A18B0000A9C00000A9C0000048
:10102000A9C00000A9C00000A9C00000A9C000001C
:10103000A9C00000A9C00000A9C00000A9C000000C
:10104000A9C00000A9C00000C7C800002DE9FE43E8
:10105000AF4C0F460646F80B80F03581B80880F09B
:10106000C7806069B90F67D2A07A002848D13809D3
:1010700048D30025657001262672284603F0D7FD67
:10108000A4480CF037FCA4492A4604F14C000CF0AB
:101090007AFE607901281AD1A079C0B99F4E3068D4
:1010A00070B10CF001F86169236A3268401A000BD4
:1010B000E061C018B0EBC21F28BF256208D22062D1
:1010C00004F1C8004FF000510BF0B8FE31E066713A
:1010D00004F1380140F60900088094F8450000F05A
:1010E000F00040F0010084F84500658794F8440062
:1010F00000F0F00084F84400E563894E316018E0A8
:10110000380914D2B80BC0F0FB8004F128000CF0B1
:101110006FFE061C08D0706830B17568F068B6F9CB
:101120001C1082A20CCAA84727F40057E8E0002050
:10113000A07227F00807E3E0D8B104200BF0AAF969
:10114000B8B10BF0B1FFA0616169814226BF401ABE
:10115000401E401A000BF060F06840F6C41100F524
:101160008D708142F06003D340F2EE22824200D9BA
:10117000F1600025D6F818C06561BCF1000F0FD0F2
:1011800094F8450010F00F0F0AD1708C40F6090159
:10119000814205D167A20CCA30466FF48071E047E6
:1011A000604904F14C002A460CF0EDFDA07950B1E5
:1011B0000220ADF8000068460AF0D6FEA571BDF821
:1011C0000800A4F8A000012060702079A846401C07
:1011D0002071192084F807800CF058FA756925B140
:1011E00056A20CCA30464146A84727F0005787E070
:1011F00004F1300948460CF0FBFD061C5AD008F0FB
:1012000054FD4FF00008B269C6F818807068B8B194
:10121000F07F42F00202002300F00700401E07D0DA
:10122000401E03D0801E06D146A002E047A000E089
:1012300048A090E80C007568F068B6F91C10A84743
:101240000CF07EFC0546B4F93600401C6FF31F30ED
:10125000E086206B1F30017801F07F010170484665
:101260000BF02CFD28460CF08BFDF068B0F99410C3
:10127000B4F9362091421DD1217801291AD090F875
:10128000965095B9056885B1E1680968B1F1FF3FED
:1012900010D0254909687030B5FBF1F10CF0D0FD94
:1012A000F06870300BF05FFE04E080F896804046F6
:1012B00006F0DAF848460CF09BFD27F0020708B16B
:1012C00047F002071CE00CF03BFC014604F12C0047
:1012D0000CF08EFD0646B56908460CF051FDA808D5
:1012E0000CD25EB1B069A843B061706830B12A46D3
:1012F000F068B6F91C1075680023A84727F48047EA
:1013000027B104F1C80039460BF098FDBDE8FE8313
:10131000F80E00208D66000039BB0000A82C0020CC
:101320000010044075330000BCEA0000000000001B
:10133000200000000000000000000002000000008B
:101340000000000400000000000000100000000089
:101350000000004000000000000000202DE9FE43D6
:101360000646DFF8DC82DFF8DC92B2780024101C3D
:1013700000F03581801E00F00D81401E012840F2F2
:10138000E180801E00F0A880401E7BD0401E59D016
:10139000083800F04681801E40F046814546B088FE
:1013A00095F83E70ADF80000052F45D001208DF86E
:1013B0000A0005F1CC000CF023FD95F83E00012851
:1013C0001BD0042819D0032806D0022804D0F288A4
:1013D00031897089B38907E0B5F84020B5F842102B
:1013E000B5F84400B5F84630ADF80220ADF8041069
:1013F000ADF80600ADF8083020E0B5F84000F188FF
:101400008842D8BF081CADF802003189B5F8420007
:101410008842D8BF081CADF804007189B5F84400B3
:101420008842D8BF081CADF80600B5F84630B08930
:101430008342D8BF031CDDE78DF80A4068460CF0F4
:101440007DFAF1E0454605F1F0000CF0D9FC70782A
:10145000002840F0E980F088E8823089288370898C
:10146000688305F1CC000CF0E1F8002840F0DC8046
:10147000AB6A002B00F0D8801B68E88A298B6A8B46
:101480009847D1E0B0880AF05AFA4546214606222C
:1014900005F1380004F0EAFAEC822C836C83B07911
:1014A000687305F1CC000CF0ABFC05F1F0000CF01A
:1014B000A7FC01244FF6FF706F79A8824FB9B0796D
:1014C000082814BF04200520A87020460BF026FC35
:1014D000AAE00320A870A7E0707858BB311D0A6805
:1014E000454605F138000260898881800627AF7083
:1014F0007089A882F089E882308A2883708A68839C
:10150000F0784446287394F83E00012818BF02285A
:101510000AD11F2007F0B4FE4FF47A71024604F19D
:10152000CC00514308F01EFAF0787289311D08F0A2
:101530001DF97BE0707831286FD14D46042028706A
:10154000204623E07778002F67D14546698AA8783E
:10155000032A13D02A796F7921B9012A14BF6C713B
:101560002C7106E0174304D005F1A80008F0FAF941
:10157000A878072814BF0420062007E0062807D013
:101580002879002808BF0324DAD00220A8704DE093
:101590000724D5E77078751C00283ED14246F778BD
:1015A0009078D1799FB9022816D0072814D0062840
:1015B00002D1517901290FD103280DD002F1A800E1
:1015C0000CF034F840B901200BF0A8FB04E087329E
:1015D000204606F033FC28702878F0B924E07078B3
:1015E000D8B945460220102105F1480208F080FDD7
:1015F0000320102105F1580208F07AFDF61C05F1D0
:101600002C00B7883168878005F1680201600120ED
:10161000A979A87006F012FC40B108204D46287048
:1016200004E0B0880CF07EF9012C06D14546686ACA
:1016300018B1016809B1A8788847BDE8FE83C046A3
:10164000DC0B0020DE0B00202DE9F0410E46144695
:101650000146A34BDFF88482A34DA24A9E4800278F
:10166000A1F2013CBCF11A0F1CD8DFE81CF02901E3
:1016700025011F011B00FD00F800E200D000C90099
:10168000C200BA00B200AB001B001B00A100940016
:1016900086007B006E001B001B001B001B0052001D
:1016A0001B002700282907DA022E05D108462188C9
:1016B00008F04AFB07460CE102270AE1012E40F040
:1016C00001818178012900F0EF80C2782178C17012
:1016D00082B9002900F0FD800078012800F0D68052
:1016E000042800F0D380062800F0D080052800F000
:1016F000CD80EEE02178002940F0EB8000780328CF
:1017000000F0CF80072800F0CC80052800F0C980C9
:10171000DFE0012E40F0D6802078012840F0D28012
:10172000444604F1F0000BF081FF60B904F13E0182
:10173000384604F0C5FA071C40F0CB8004F1CC0019
:101740000CF05EFBC5E01627C3E0022E40F0BA8025
:1017500021880A29C0F2B680B1F5486F00F3B28043
:10176000184616E0022E40F0AD802188B1F5FA7FD0
:1017700080F2A88018460180ABE0022E40F0A280E3
:1017800021880629C0F29E80B1F5486F00F39A8047
:101790001046801CEFE7022E40F094802188062935
:1017A000C0F29080B1F5486F00F38C801046E2E7FC
:1017B000012E40F087802178062980F2838005F190
:1017C0000C000CE0012E7DD1217804297ADA093051
:1017D00005E0012E76D12178082973DA08300170EE
:1017E00077E0062E6ED1216828460160A6888680A3
:1017F0006FE0012E66D12178042963DAC01DEEE77F
:10180000012E5FD1217804295CDC801DE7E7202EC2
:1018100058DA08F1870539461F22284604F026F9D0
:1018200021463246284603F0A3FA88F80760384676
:1018300010E0202E46DA08F1680539461F222846B6
:1018400004F014F921463246284603F091FA88F84C
:101850000660012031462A4606F0F0FA2AE7022EF9
:1018600030D12188103086E7012E2BD1C178012993
:101870001AD082782178817062B9002929D0007845
:10188000012803D0042818BF052822D101200BF01D
:1018900045FA1EE02178E1B90078022818BF052832
:1018A00017D10BF09BFD14E0122712E0042E09D192
:1018B00021681E3001600CE0102E03D1563004E088
:1018C000102E01D0182704E046302146102203F0E4
:1018D0004FFA3846BDE8F081DE0B0020DC0B00201B
:1018E000200C00201C0C00200E0C00202DE9F04FD5
:1018F0000128ADF1140D40F0F280DFF81492D9F810
:10190000DC00012840F0E9800220C9F8DC000BF07F
:10191000FDFE0290012006F07BFF20B1012106466A
:10192000C9F8DC10D5E00BF0D9FE03906E484FF0FB
:101930000008C0F8008001200AF0ACFD012818BFA3
:10194000CDF8008004D1404606F0D8F80120009080
:1019500066486E4CC0F800801934D4F8FF0F11208F
:101960000CF082F800280CBF4646012610200CF02F
:101970007BF808B146F002060F200CF075F808B1AC
:1019800046F004060B200CF06FF830B158480068A0
:101990005849006B0246088890470A200CF064F80A
:1019A0000028404618BF01204FF0805B0BF5DC7526
:1019B00028B128685049006B0246088890474F4874
:1019C0000127076028688069014646F020008847A3
:1019D0004B4807600CF042F800F00101019140080B
:1019E00015D248480BF0EAFE8246BAF1040FF8D04F
:1019F000BAF1010F06D1DBF8D80140680246414830
:101A0000032190474049086820F0030008604046E1
:101A100000F080F82868D4F8FF1F806B8047019899
:101A200001280ED0BAF1010F06D1DBF8D8014068C9
:101A300002463448394690473349086840F003006D
:101A400008602A4807602868406901463046884790
:101A50000B200CF009F828B128682649C06A024614
:101A6000088890470A200BF0FFFF28B12868224918
:101A7000C06A024608889047204807600322C9F8D8
:101A8000DC201F4BC3F800802868406B01463046BD
:101A900088470128F8D1042006F0BAFE12480760F2
:101AA0001A48D4F8FF1F01688909FCD3009801285F
:101AB00002D1384606F022F80BF0C4FF082006F0E9
:101AC000A7FE06460398C9F8DC7008F093FB05F002
:101AD000B7FB029809F082FE02E0042600E001262E
:101AE000304605B0BDE8F08F0C40094000022243AB
:101AF000B80100102EE400002AE40000282008604D
:101B0000800104430040034024220840141009408F
:101B1000901500202DE9F84F82467A48DFF8D891D9
:101B200035380068800880F0D88009F0C7FC054689
:101B300078480830D0F8008000244FEA2876761CD8
:101B40005FEA98500AD2C5F13E0015F10A0F4FEA3C
:101B5000E000D8BF08208642B8BF061C634FD7F804
:101B60007C01C0F304600BF022FE83463868C0F3AA
:101B700004400BF01CFE06EB0B020090162A05DA5F
:101B800012F10A0FB8BF6FF0090200E01522584B9E
:101B9000584F02F01F0141F4F8511980396811F0D3
:101BA000030F18BF0124C90828BF44F00204BAF18A
:101BB000000F18BF44F00404494691F90730EB1AAE
:101BC000052B04DA8B79A34208BF888864D0DFF83C
:101BD0002CE10F2DA5F10F0C25DB0CEB0513A3F168
:101BE000F00C4FEA2C27072F88BF07273E46062E0A
:101BF00088BF06265EF82600042303EB860376469C
:101C0000F3581B1A03F0FF06E00824BFC3F30720B4
:101C10000644A00824BFC3F307400644600828BF59
:101C200006EB136601E0002637465EF827E0E00881
:101C30000EF0FF0324BFCEF307200344A00824BF07
:101C4000CEF307400344600828BF03EB1E630098EF
:101C5000B6B2ACEB07277E43801A06F1800603EB91
:101C60001623D8BF0120342208F0FF0742437A43ED
:101C7000B2FBF3F04FF6FF72824238BF101C802D8A
:101C800080B2888005DA15F1800FB8BF6FF07F054C
:101C900000E07F25CD718C71194A12681F280A60F7
:101CA0004FF0000208D340F2FF11814206D24008F3
:101CB000521C8142FBD301E01F208880124F114942
:101CC0000F38000942EAC00247EA0200C1F8FB0FE0
:101CD0000026C1F8FF6FBDE8F88F0D4F0B4E494647
:101CE00008203760891D0870BDE8F88F3C1100504E
:101CF0006E62084024220840982C00209C1300505B
:101D0000082009403500094000E7A4803010094050
:101D1000FDFDA400AC3F00507C482DE9F84303686A
:101D20004FF004091B1F13F8048F5D789C78DE7850
:101D300040460BF011FB074640460BF00DFB0BF045
:101D40000BFB474040460BF007FB0BF005FB0BF08D
:101D500003FB474028460BF0FFFA784085EA00076E
:101D600028460BF0F9FA0BF0F7FA0BF0F5FA4740BA
:101D700020460BF0F1FA0BF0EFFA784084EA000706
:101D800020460BF0E9FA0BF0E7FA0BF0E5FA4740D2
:101D900030460BF0E1FA0BF0DFFA0BF0DDFA784099
:101DA0007040187040460BF0D7FA0BF0D5FA0BF0E4
:101DB000D3FA074628460BF0CFFA474028460BF0E7
:101DC000CBFA0BF0C9FA474028460BF0C5FA0BF0E6
:101DD000C3FA0BF0C1FA474020460BF0BDFA784039
:101DE00084EA000720460BF0B7FA0BF0B5FA0BF0C7
:101DF000B3FA474030460BF0AFFA0BF0ADFA78403B
:101E000086EA000730460BF0A7FA0BF0A5FA0BF0B4
:101E1000A3FA784088EA0000587040460BF09CFA1C
:101E20000BF09AFA88EA000740460BF095FA0BF09F
:101E300093FA0BF091FA474028460BF08DFA0BF01D
:101E40008BFA0BF089FA474020460BF085FA4740A1
:101E500020460BF081FA0BF07FFA474020460BF04A
:101E60007BFA0BF079FA0BF077FA474030460BF02B
:101E700073FA784086EA000730460BF06DFA0BF0F3
:101E80006BFA0BF069FA78406840987040460BF0A6
:101E900063FA88EA000740460BF05EFA0BF05CFA42
:101EA0000BF05AFA474028460BF056FA0BF054FA5A
:101EB000784085EA000728460BF04EFA0BF04CFA02
:101EC0000BF04AFA80EA070520460BF045FA0BF0C2
:101ED00043FA0BF041FA454030460BF03DFA4540DD
:101EE00030460BF039FA0BF037FA454030460BF02C
:101EF00033FA0BF031FA0BF02FFA68404440B9F195
:101F00000109DC707FF40FAFBDE8F883482A002098
:101F10002DE9F0411C4615468C4208BF854282BF20
:101F200000230022E5E0002C08BF002D0AD1002983
:101F30000EBF00286FF000006FF0000100F0E1F824
:101F4000BDE8F0815FF000085FF0000E002C08BFD4
:101F50008D429CBF2C1C0025070C47EA01470E0C44
:101F6000B44208BFBD429EBF5FEA044444EA154440
:101F70005FEA0545070A47EA01670E0AB44208BF4F
:101F8000BD429EBF5FEA042444EA15645FEA05256A
:101F9000470847EAC1774E08B44208BFBD4200F285
:101FA0009380870847EA81778E08B44208BFBD4214
:101FB0007CD8C70847EA4177CE08B44208BFBD4283
:101FC00066D8070947EA01770E09B44208BFBD4247
:101FD00050D8470947EAC1674E09B44208BFBD421D
:101FE0003AD8870947EA81678E09B44208BFBD42E3
:101FF00024D8C70947EA4167CE09B44208BFBD42A9
:102000000DD8E60146EA5566EF01B14208BFB84275
:1020100001D3C01BB14158EB08085EEB0E0EA601C0
:1020200046EA95664FEA8517B14208BFB84201D328
:10203000C01BB14158EB08084EEB0E0E660146EA94
:10204000D5666F01B14208BFB84201D3C01BB14190
:1020500058EB08084EEB0E0E260146EA15762F01C6
:10206000B14208BFB84201D3C01BB14158EB0808C8
:102070005EEB0E0EE60046EA5576EF00B14208BF71
:10208000B84201D3C01BB14158EB08084EEB0E0E0D
:10209000A60046EA9576AF00B14208BFB84201D328
:1020A000C01BB14158EB08084EEB0E0E660046EA25
:1020B000D5766F00B14208BFB84201D3C01BB14111
:1020C00058EB08085EEB0E0EA14208BFA84201D3F0
:1020D000401BA14158EB08085EEB0E0EA34208BF5F
:1020E000AA423EBF2D0A45EA0465240A89D37346F5
:1020F00042461E4617460B46024631463846BDE864
:10210000F08170472DE9F84381460BF095FC0021E2
:1021100000B901216B4E30680028FCD06C4D0124C1
:102120002D1DEF6A346009B10BF08CFCDFF898814B
:10213000C7F3072008F1BC0108600BF07DFC00210B
:1021400000B9214630680028FCD02F68346009B1FE
:102150000BF078FCC7F38440C8F8C0000BF06CFCAF
:102160000146002001B92046014630680028FCD015
:10217000ED69346009B10BF065FCC5F38120C8F846
:10218000D000B9F5C061C8F8B81000F0968098F892
:10219000D80068B9C8F8D410D8F8C000C8F8C8008A
:1021A000D8F8BC70C8F8C470D8F8D060C8F8CC6053
:1021B000D8F8D410D8F8BC60002954BF02206FF0C2
:1021C0000100454605F1C8031A6801EB41014018BA
:1021D000411000EB917002EBA0021A60D5F8C81014
:1021E000C5F8C46000291CDD1E293DDDD5F8CC00F2
:1021F00030B93429B4BF15391E21C5F8C81025E0FF
:102200002A29BABFD5F8C8000B381E20C5F8C80067
:10221000D5F8C4003F28B4BF401C3F20C5F8C40017
:102220001FE0D5F8CC00032812D011F10B0FC6BF68
:10223000D5F8C8000B30201CC5F8C800D5F8C4007C
:102240000028CCBF401E0020C5F8C400032009E0D0
:1022500011F1150FC6BFD5F8C8001530201CC5F800
:10226000C8000020C5F8CC00B5F8C400174E3021D6
:102270004FF47F4208230090304606F015FA009490
:1022800004214FF400321123304606F00DFAB5F860
:10229000C80004214FF4F80212230090304606F0E3
:1022A00003FAB5F8CC0020214FF440620A230090D5
:1022B000304606F0F9F9BDE8F883002088F8D80028
:1022C000BDE8F88300800C409015002000A00C4071
:1022D00000A00C402DE9F04FADF1840D209000F0EE
:1022E000BBFF06F0BDF90024012804D10AF062FC0E
:1022F000022808BF012459490868C0F38150012809
:1023000005D151F80C1C0120090E884004435448A3
:10231000007809F0B7FBDFF84C81DFF84CA1C8F872
:10232000000030B15246FF2107467F1E02F8011B14
:10233000FBD120990968002501F0FF02FE2A1BD07D
:10234000DDF880C052462B46012701F0FF06FF2E24
:102350000BD0B04203D907FA06F6344201D002206E
:1023600079E001F0FF01354353545CF8041F5B1C16
:1023700001F0FF06FE2EEAD1092001F00BFE3B49D9
:10238000209824220823086001A800210BF00EFCED
:102390004FF0010901AA3E488DF81C90494608F00B
:1023A000C5FAD8F800303BB33A4E00274FF0040B83
:1023B000BA4609FA07F0044218D1054204BF07F0F3
:1023C000FF0141F4C04104D027482099C05D51F875
:1023D0002010274802F082FAF8B24FF0FF310AF0DD
:1023E00083F8D8F80030C6F800A001E0C6F800B0C5
:1023F0007F1C361D9F42DCD30AA80021302208230F
:102400000BF098FB1B4D1D4A2878002410210AABC5
:1024100012901948009407F06DF916A82822082395
:1024200021460BF0C9FB686816AA16491C9014488F
:102430001D94234607F0CAFB134A52F80D0C494677
:1024400020F4F85040F4005042F80D0C0F4BC2F845
:10245000FF1F2046196021B0BDE8F08FB43F005047
:10246000B52C0020C4220020002C0020AC2C002021
:10247000007FC76754EA0000402C002005C500001B
:10248000CC2B0020F18600000D30094008000940E7
:102490005C2C0020002B002070B5ADF1180D08F069
:1024A000A9FF02F05FF909F0D9FF654D05F134008D
:1024B0000BF0AEF94FF480736249634AA86005F1EE
:1024C000880006F039F91F200A2107F03DFC192089
:1024D000ADF8060001268DF800600024ADF802403A
:1024E00031468DF804406A46ADF80A403220ADF816
:1024F00008006420ADF80C0040F20530FFF7A4F8A6
:1025000040F2063002210DF10202FFF79DF840F281
:102510000730152105F15802FFF796F84FF4427085
:102520000B2105F12602FFF78FF84FF44470314676
:1025300001AAFFF789F840F2113002210DF10602DD
:10254000FFF782F840F21230022102AAFFF77CF86E
:1025500040F2133002210DF10A02FFF775F84FF433
:102560004570022103AAFFF76FF80BF0EDF9062082
:10257000F42107F0E9FB0720F42107F0E5FB082030
:10258000F42107F0E1FB0920F42107F0DDFB032132
:102590008DF81610204604908DF814008DF8150063
:1025A00004AA8DF8170004214FF4816007F0B2FBF4
:1025B0004FF48060314605AA07F0ACFB40F20240C0
:1025C00031460DF1150207F0A5FB40F203403146FC
:1025D0000DF1160207F09EFB40F2064031460DF168
:1025E000170207F097FB05F14C0005F1700102F0AE
:1025F000A3FC286105F0CEF807F0D0FF09F014FD28
:1026000004F07AFE08F0A6FC0BF0A0F80BF06DFBCE
:102610000BF0D6FB0AF0D0FC06F054FD0AF0E4FD06
:1026200005F140000BF0F4F8E8600BF01BFC09F03A
:10263000A5FE0BF033FB0BF035FB06B070BDC046BA
:1026400024050020FDB50000C02709002DE9F8434E
:10265000674C04F124000BF0CBFB15460E460090AE
:102660000BF06EFA05F001078146B6F1FF3F0CD181
:10267000A06A20B9B4F93600401C06B202E0A06A94
:10268000B0F91C60002084F8A300304608F0D0FCAC
:102690000326002800F09B80A16ADFF84081814278
:1026A00069D0009FB8422ED03FB100990A6890428D
:1026B00009D0096800290091F7D1832E41D04846FE
:1026C0000BF05EFB3DE004F1A40009F02DFD009845
:1026D0000168AA0802D20A68026008460022026065
:1026E0000091009818B948460BF04AFB28E0C17FDA
:1026F00041F00401C17768460AF0E0FA014640461D
:1027000007F074FCEDE704F1A40009F00DFDA80842
:102710003ABF606A00680020606248460BF030FBF8
:102720000099C87F40F00400C87768460AF0C6FAEE
:102730000146404607F05AFC009808B1A808EFD2BD
:102740008326E07988B9207A012843D024480BF009
:10275000D1F8022104F1C8000AF070FB607801286A
:1027600038D020480BF0C6F834E004F1C80002214C
:102770000AF064FB2EE0A90803D3616A00910026E9
:102780006662C27F0121B9401143C1770AF0A6FFFA
:102790000446002F14BF1448144809F0E5FB4846CE
:1027A0000BF0EEFAA80801D3009820B9204607F0F4
:1027B00021FD83260EE0C17F41F00401C177684608
:1027C0000AF07CFA0146404607F010FCECE7484668
:1027D0000BF0D6FA3046BDE8F883C046280F00203B
:1027E0004D100000C9420000010002040100010474
:1027F000F80E00202DE9FC415E4C574D574EDFF896
:1028000060815A4F94F8E410481E0B2861D8DFE825
:1028100000F07B2C430623430623430676640429F9
:1028200007D001220A2945F8212C14BF02200320D9
:1028300004E02021012045F8211C024684F8E20032
:10284000002045F8390C0827C5F8FF7FC5F8F37F4D
:1028500045F8392CBDE8FC81052914BF0920062064
:10286000002584F8E400356070E094F8E170012000
:10287000383D002FC5F81B0004BF0620002102D000
:102880000021F160032084F8E400032045F8010CE6
:1028900031603068800859D294F8E400012503289B
:1028A0000DD00021404660220523009105F0FCFE7A
:1028B00094F8E400062814BF0A200720D1E702207C
:1028C0000090002160220523404605F0EDFE042023
:1028D000C7E70AF0F6FFBDE8FC812249002622483E
:1028E0000E60012505600E2001F080FA022007F03D
:1028F00085FE84F8E45084F8E360BDE8FC810020A4
:1029000038600C2578601FE01948006800680146AF
:10291000202088472C3D41F61D560F2000214FF402
:10292000C072072345F8010C4046C5F80360022534
:10293000009505F0B9FE404600214FF4C072072310
:1029400006F040FB0120386084F8E45004F1780080
:102950000AF009FBBDE8FC8139400C4038600C40AE
:1029600000A00C402C500C4004800C4034600C4003
:10297000A0010010901500202DE9F84F9A469346CB
:102980000E4681460BF0DCF8514C0090B4F936103D
:10299000B4F934000AAF401A40F6F8710140082932
:1029A00080F28780B4F93400401C6FF31F30A0869A
:1029B000B4F9348009F018FB054609F1700009F0FC
:1029C000B3FBAE6085F81EB0C5F804A0A5F81C8066
:1029D000C5F80C9097E80C0041A003C8002605F14B
:1029E00010071040194087E8030004F12400EE7737
:1029F0000768002F50D1294607F0F8FA002851D077
:102A0000A9F89480E87F40F08000E87789F8966024
:102A1000607A40B1607830B10120A0726672277987
:102A2000A671781C207100980BF0AAF9A06A002802
:102A30004BD1607860BBE079012846D00BF080F87C
:102A40000646207A00BBA86805F0DCFC224B214931
:102A5000E2681B68086040B930460BF091F904F158
:102A6000C80004210AF0EAF92FE00968D26804F1ED
:102A7000A400891AB1FBF3F10BF0E2F904F1A40010
:102A80000AF071FA30461EE0144901200870F9E797
:102A900019200AF0FBFD18E004F12400294607F094
:102AA000A5FA48B9B4F9340000F6FF706FF31F308F
:102AB000A0866FF0010805E0A9F89480E87F40F057
:102AC0008000E87700980BF05BF94046BDE8F88F8E
:102AD000F80E0020A82C0020BCEA0000B42C002036
:102AE000F1EFFF9F20000000B0B5456884685148B1
:102AF000297BADF1180D01291AD001462F7E227EC7
:102B0000637E4D4837F0010741EA020240EA0300C4
:102B100001904A48009218BF011CA27E1143029105
:102B200095F88D200323FF2A13D0014610460DE0AF
:102B3000A17E627E237E41F00041024343F00043C8
:102B4000029195F88D0000933D49019201430423C1
:102B50000391FE2105F190004DF82310694602F023
:102B6000EBF9C5F89C00002808BF00205FD0287B47
:102B7000344951F8200001282BD02068B0F1804F53
:102B800014BF22220A22217ED5F89C0008F0B6F953
:102B90002068B0F1804F14BF21220922617ED5F850
:102BA0009C0008F0ABF92068B0F1804F14BF2422DC
:102BB0000C22A17ED5F89C0008F0A0F995F88D10A4
:102BC000FF2933D02068B0F1804F14BF23220B229D
:102BD00028E02068B0F1804F14BF21220922217E15
:102BE000D5F89C0008F08AF92068B0F1804F14BF36
:102BF00022220A22617ED5F89C0008F07FF9206825
:102C0000B0F1804F14BF24220C22A17ED5F89C0085
:102C100008F074F92068B0F1804F14BF23220B2212
:102C200095F88D10D5F89C0008F068F9012006B0E1
:102C3000B0BDC046000480A0004000800004C0A0D9
:102C400000200080C8E300002DE9F04305466E68CF
:102C5000AF680C46ADF1340D0AF072FF96F8D9104A
:102C6000012903D10BF08CF8002084E04FF001081B
:102C700086F8D9800BF084F84FF00009C6F88890E8
:102C80002069306160697061207E3076207B30730E
:102C900020783070606886F8A4907060606949465A
:102CA000092828BF414686F88C10387B01F072F95C
:102CB000284604F009FAF87E86F88D002846FFF7CA
:102CC00013FF50B9387B01F091F80AF039FF86F80C
:102CD000D9900BF055F84D464CE001A849463022FA
:102CE00008230AF027FF06957A790992CDF800901B
:102CF000224A397906F11C0001AB06F0FBFC01A861
:102D00002822082349460AF057FFB96807911C4951
:102D1000059506F1380001AA4B4606F057FF3078BA
:102D200078B901A84946242208230AF03FFF06F19A
:102D30006C008DF81C80494601AA07F0F7FD114888
:102D400000E0A068B06004F033FB317BC6F8A0005F
:102D5000012908D1D6F89C000B490AF079FED6F873
:102D60009C0000B18560094A06F1C40004212B468D
:102D700008F0F4FB28460DB0BDE8F0838D4B000051
:102D8000997D0000C5DC0000519500001DDB0000AE
:102D90004E48007F401E3A2800F29680DFE800F09F
:102DA00092908E8C8A88868482807E7C7A787674F3
:102DB00072706E6C6A68666462605E5C5A585654E3
:102DC00052504E4C4A48464442403E3C3A383634D3
:102DD00032302E2C2A28262422201EC00AF07ABE49
:102DE00008F086BE0AF070BE0AF0DCB80AF0F2B94C
:102DF0000AF004BE0AF00EBE0AF0F0BF09F092BE5F
:102E00000AF002BE08F008BE0AF01CB90AF0F0BDD4
:102E10000AF07CBD08F062BA08F0D6BF0AF070BDB7
:102E20000AF043BD0AF032BE08F0ACBB0AF034BE73
:102E300009F050BA08F088BF08F096BF09F05ABEF2
:102E400009F032B80AF0BCBD09F048BE0AF0ACBDCA
:102E50000AF0B0BD0AF0C4B808F084BD08F01ABB8F
:102E60000AF00EB909F08EBE08F006B80AF016BBDB
:102E700009F064BE08F0FABA0AF0F8B809F06ABEC0
:102E80000AF0B4BF0AF0CCBD0AF0D0BD0AF026BDEE
:102E90000AF011BD0AF0F4BD08F0F8B908F0BEBAA6
:102EA00008F0E8BB0AF072BA0AF0C8BA0AF08ABFA2
:102EB0000AF08ABF08F068BF0AF060B80AF07EBF67
:102EC00009F04CBD09F056BD7047C046C82400202B
:102ED0002DE9F04F0C4649498446ADF12C0DE246F0
:102EE000CA7A487B0592AAF5407A0A908A7A88784D
:102EF0000D7991F80C8091F80590B1F846E00492B4
:102F0000BAF11D0F09904A7A488B03924B8A0890B8
:102F10000A7A088B02920F6A0790CA79C88A0192CE
:102F2000CE7806908A79888A00954FF0000510D8EF
:102F3000DFE80AF05F59575553514F4D4A47454313
:102F4000403E3C0F3835322F2D272422200F1D1BE9
:102F50001A18BCF1280FA8BF02254BDA604606F00C
:102F60008FF923E0DDF82880C146CDF82490099838
:102F700005901DE00898079007980690DDF818E086
:102F800005E03831086820608888A08032E070460B
:102F90000AE0B1F8440009E0B1F8420004E0B1F8F9
:102FA000400001E091F83E00034612E0208021E05D
:102FB000059804900498039001E03231E2E7039809
:102FC00002900298009006E0019A87310DE0683186
:102FD0000BE01846EAE7009E0BE02C31D2E72760B1
:102FE00008E0583100E048311022204601F0C0FED0
:102FF00000E0267028460BB0BDE8F08FDC0B002007
:103000002DE9F041424C474D8046C8F38140401EB7
:1030100002D0401E2AD025E0284620300168880CC6
:1030200020D24FF4804020603A48D0F802204B0A6A
:10303000C1F3033703F0800322F08F02134347EA02
:103040000302C0F80220D0F801300E1266F3030329
:10305000C0F80130026801F0E70722F0E70247EA12
:10306000020102E04FF00041204601602A4E06F1C5
:1030700008000068C0F3C0070FB94020A0624FF4F9
:10308000007020640AF01AFA40F0300084F8C8009A
:10309000C8F3815038B3401E03D0401E1ED0022119
:1030A0001DE0012009F0F6F907460420394605F035
:1030B00037F9042009F0EEF98742FAD1366826F094
:1030C0007F4007F083FA15480068036807214FF036
:1030D0006022300E98474FF4806020600321042066
:1030E00005F01EF906E00420012105F019F90C484D
:1030F00007F06CFA284600680B4947F6180700F0FD
:103100003F0084F8CB0F094E0F803068BDE8F08196
:1031100040A00C400A600840A83F0050B4010010D5
:10312000BD3786006C13005070B00C402C20094055
:103130002DE9F0430646880FADF1140D7FD304F05E
:1031400065F9434D4FF000081C35C5F800803D4837
:1031500045F81C0C012001F06AFD3B480AF0CAFB4F
:103160003C48434640F60A0200F13801438790F894
:103170004440C0F83C8090F845700A8004F0F004A8
:1031800080F8444007F0F00444F00104B76880F888
:10319000454081467B803C1D00E03C1D276817B1FF
:1031A00038888242F9D12160607A00F0F0006072C4
:1031B00009F124000AF01CFE80680088D21F8242B8
:1031C0001DD0521C82421AD006F120000788B7B1E8
:1031D00096F82C2096F82D70C6F8248002F0F002A4
:1031E00086F82C2007F0F00242F0010286F82D202C
:1031F000C9F83C00487B738400F0F0004873B06865
:10320000694608F0C1FE68460AF050F9B06802F05D
:1032100048F828680028FCD0C5F80080012009F093
:1032200039F9012808D0607A00F0F00040F0010080
:10323000607206480AF05EFBB06845F81C0C05B0E9
:10324000BDE8F08301010E044D100000517B000029
:1032500000100440F80E00202DE9F041444C94F891
:10326000E700ADF1280D00286FD1394F387B0125DB
:103270000021242284F8E7507E6884F8E6000823C1
:10328000C4F80C6101A80AF079FC002604F10C00D6
:10329000069601ABADF814602E490796324606F04B
:1032A00075FF2D4904F1300001AB324606F06EFF88
:1032B0002A4904F1540001AB324606F067FFB868B2
:1032C000014628468847DFF89C8025487B7B0078AC
:1032D000D8F80410C1F381571BB1032F03D184F830
:1032E000E150032F16D0022F14D0012F26D1032036
:1032F0001D4C009031464FF040521C23204605F0F3
:10330000D3F9009531464FF400720923204605F0A9
:10331000CBF913E0022007F089F9032F0CBF4FF41B
:103320007A7142F21071114800685434B1FBF0F127
:1033300020460AF085FD204609F015FED8F8000069
:10334000C00802D2304607F071F90AB0BDE8F0813A
:10335000FCE90000EB7D000085510000E959000008
:10336000B52C0020B03F005000A00C40BCEA00008B
:1033700090150020F8B509F035FC404E3E4F04464C
:10338000A00823D3B96A09B33D4600200B698A69B6
:10339000A86204EA0300104340F0020006F10802AC
:1033A00088610B6910689843106001F1100090E883
:1033B0000C0030681A1C9043306005F1300006F0B4
:1033C00015FE022105F1C80009F038FDB86AA10810
:1033D00015D200F110020CCA002122400B40002B34
:1033E00008BF002A0BD0016985690C40F8622C43A4
:1033F0004FF48041846107F1C80009F01FFDB86AED
:10340000002837D107F1240420460AF0F1FC051CFE
:1034100030D0F868E968884226D1A86804F0F2FF45
:1034200017490860E0B906F1080128690A681043E5
:103430000860326805F1100393E80300081C10438C
:10344000306000233361A86846F80C0C06F11000C8
:1034500000680028FAD0204609F030FCBD62F8BDB3
:10346000086804F001F8F8BD07F1C8004FF4805176
:1034700009F0E4FCF8BDC046F80E00200C10044032
:10348000A82C00202DE9FF470024ADF80840FFF7E5
:1034900003F83A4E3A4D3B4F4FF0200AA146C8463A
:1034A00008F0B2FF18BBCDF8008001A80DF10601AD
:1034B0006A4607F0F8FAD0B9BDF80400102807D121
:1034C00028789DF80610884202D100980AF048FA40
:1034D000009860B109F0EAFA09E0A86809F0CCF9AF
:1034E000041C04D00AF09AF8204609F0AFFAA86844
:1034F0000AF0C6F90028F0D00AF022FB3188ADF8B6
:103500000810A6F800900AF03BFCBDF80800C009BE
:1035100001D303F0F1F8BDF80800000A1AD314E053
:10352000E86809F0F9F80446207A512805D05228B5
:1035300006D1E06808F07AF902E0E06807F012FED0
:10354000204609F083FAC7F800A0E8680AF098F965
:103550000028E5D0BDF80800400A01D305F092FD2F
:10356000BDF80800C00A01D309F090FFBDF80800BB
:10357000000B95D308F0D8FC92E7C0462005002048
:1035800024050020A02002402DE9F047ADF1180DE0
:1035900001F09EFB3A4D4FF0030908274FF6FF78E4
:1035A000002605F13E0A2C4608F020FF20BB0096BD
:1035B00001A80DF106016A4607F05EFAE0B9BDF810
:1035C0000400102814D160789DF8061088420FD1AD
:1035D00000980188884509D14088C00B08D3042091
:1035E00005F12002014606F083FD01E004F056FFDC
:1035F000009808B109F04EFA208A41082DD320F036
:10360000010063792179208253EA010225D073B940
:10361000207A637A8DF8070005F132018DF80830C1
:103620000A680DF109031A608988998001E08DF814
:103630000790A07A8DF80F00E37A8DF810300DF125
:1036400007000AF069F938B1636AA77023B11A68F4
:1036500012B1196838468847208A810807D320F0BC
:10366000020020825146304602F02AFB208AC1081F
:103670009AD320F00400208206F0ECFC94E7C046C8
:10368000DC0B00202DE9F04104466668A7680D4672
:10369000ADF1380D0AF054FA96F8DC10012903D187
:1036A0000AF06EFB00205EE04FF0010886F8DC8037
:1036B0000AF066FBE968204603F090FA0028F1D191
:1036C0002878307068687060287A002130220823DA
:1036D000F06001A80AF02EFA06943A7B09920025C0
:1036E0000095224AB96806F1100001AB06F002F815
:1036F00001A82822082329460AF05EFA39690791B1
:103700001B49059406F12C0001AA2B4606F05EFA2F
:1037100001A82422082329460AF048FA06F160008D
:103720008DF81C80414601AA07F000F9307838B9BD
:1037300006F17C00294601AA07F0F8F80D487060F0
:103740003572C6F8BC50C6F8C050786800F022FC4C
:10375000204604F061FF084A06F1C8000421234610
:1037600007F0FCFE20460EB0BDE8F081393B0000BA
:10377000E5760000ADDC00003DD600002DE9F84FF5
:1037800000298346009106DD024600980021401E74
:1037900042F8041BFBD10098DFF8C880DFF8CC901A
:1037A0000028C8F800B012DD2F48009C07680025EB
:1037B00037F8020B38B1D9F80000AE0031580020BC
:1037C00088474BF80600641E05F10105F0D1284F2B
:1037D00041460120D7F80080C880B8F1000F22DDF3
:1037E0004FF0000A00980127002817DDABF104050F
:1037F0000446002655F8040FB0F1FF3F04D0D9F875
:1038000000107158884728600021B0F1FF3F08BFC1
:103810000121361D641E01EA0707EBD137B90AF111
:10382000010AC245DEDB04A008F0CAFF0D490020F2
:103830000860BDE8F88FC0467864632E72756E74B8
:10384000696D652E537461727475703A20276D61CD
:103850007850617373657327206578636565646567
:103860006400C046741500200CEB000010EB000053
:1038700008EB00002DE9F0430646ADF11C0D0AF0FF
:10388000ADF906F043FE4FF000090546CDF8009073
:103890000AF04AF930F0010002D00098A84202D1A3
:1038A0006FF0040059E070684C4658B1B0F1FF3F2A
:1038B00005D001A906F012FE30B107464CE04FF0EA
:1038C000FF3000E02046019008F01EFC019901271E
:1038D00001EB000800E001936868019900F028FC02
:1038E00000282ED003A806F063FAD8B99DF810007E
:1038F00002A906F043FA88B9B368BDF808009DF83C
:103900001210059A984748B19DF81270B773BDF828
:103910000800B081059B33614F4612E00599684667
:1039200007F0CEF90198641CB0F1FF3FD4D0002815
:10393000D2D008F0E9FBB8EB000302D0019898421E
:10394000C9D2009905F1080007F02CFD24B1686880
:1039500003F0A8F9641EFAD1384607B0BDE8F08339
:103960002DE9F84307467C68BE680AF0E9F8D4F808
:103970008810002961D00AF003FA3168486820F005
:10398000020048603168486A20F003004862D4F8B9
:10399000A000756941683269096845EA0200C1F80A
:1039A00004053168486920F001004861306801254C
:1039B0000562384607F0FAFDD4F88800D0F8048094
:1039C0000AF0BEF8814694F8D80058B118F0704F4C
:1039D00002D1042006F012FE022006F00FFE0020A5
:1039E00084F8D80048460AF0CBF9D4F88810087C4F
:1039F000042803D003200874D4F88810D4F8A00059
:103A00004368326970691B6810438540DD62306825
:103A1000B0F1804F14BF0B480B48826808689204CD
:103A2000A0EB9250401E0860A06800230246C4F834
:103A3000883038469047BDE8F8830AF0A1F9BDE820
:103A4000F883C0460005002030040020F0B5ADF139
:103A5000340DFFF701FC304908682822082340F0A4
:103A60000200086001A800210AF0A6F82B4E2C499C
:103A70000524002301AA079406F1C80006F0A6F861
:103A800000213022082301A80AF054F80025FF275E
:103A90001921244AADF81C5001AB099706F14C00DE
:103AA000009505F027FE2822082301A829460AF0E0
:103AB00083F81D4901AA2B4606F1FC00079406F085
:103AC00085F83022082301A829460AF033F801249A
:103AD0001A21164AADF81C4001AB099706F168009F
:103AE000009505F007FE12492A4606F1A400134688
:103AF00006F04CFB0F4809F0FDFEB47186F8A350A8
:103B00007571F57135727572B5724FF6FF7075612A
:103B10000DB0A6F8A000F0BD00200940F80E00206E
:103B2000ADCD000039BB00001D450000A57B0000A5
:103B3000C5B60000C942000098B53749826844689C
:103B40000968106849688847344B01229A6140B17E
:103B5000217AFF2905D0FF214009217257D2042282
:103B60004DE0207A002852D0401E19D0401E02D0CD
:103B7000FD384CD048E05968D4F8B4000170D4F84E
:103B8000B800D4F8B410401E491CC4F8B800D4F8EA
:103B9000B870C4F8B410F7B1012F88BF09222EE025
:103BA000D4F8B000401EC4F8B000D4F8B070A7B983
:103BB000D4F8B8707FB10220D4F8A8102072097C24
:103BC000012F4FEA410141F0010143F8041C94BF69
:103BD00003220B2214E004220FE0D4F8AC0000789A
:103BE0005860D4F8AC00022F00F10100C4F8AC001A
:103BF00005D2D4F8B87017B905220020207202202F
:103C00001A600AF081F898BDFF20207298BD04F177
:103C10002C0005F06FF898BDAC010010042800409E
:103C2000374A2DE9F04F10680427ADF1140D001F3D
:103C300010F8041F02F8041F4178517081789170C8
:103C4000C1787F1ED170F3D1121DA2F10800D71FD9
:103C5000951F531F04240490A2F110010397A2F1B1
:103C60000F0B0295A2F10E090193A2F10D0600912E
:103C7000121F0498039F10F8041F17F8045F0490A4
:103C8000029810F8043F0397019F029017F8040F61
:103C900014F0030F019716D182460F46284609F00B
:103CA0002BFF8046184609F027FF0546504609F0CD
:103CB00023FF0346384609F01FFF1249A7080B39B6
:103CC000C95D81EA0801DDF800C01CF8047B794079
:103CD0001BF8047B7D4019F8047B02F8041F641C68
:103CE000CDF800C07B40557016F8047B2C2C9370E7
:103CF00080EA0700D070BCD305B0BDE8F08FC046A5
:103D00004C2A002083DE00007CB50446084602F001
:103D1000C9FD344E02461821304607F0C3F808F0BA
:103D2000D5FB40F2FF32002380B22C2100903046B8
:103D300004F0BAFC09F0CAFB1C210246304607F029
:103D4000B1F808F0B5FB02461421304607F0AAF896
:103D500008F06CFF02461021304607F0A3F8204619
:103D600002F0F2FB02460C21304607F09BF8204699
:103D700008F044FF1C4D400040F020002870204611
:103D800008F048FF40F010002870204608F00CF9B9
:103D900002462821304607F085F8204608F052FFF9
:103DA000400040F06000E870204608F057FFC00077
:103DB00040F0800005F8080C204608F05BFF80000A
:103DC00040F47C40A5F89300204607F081F80246B5
:103DD0000821304607F066F84FF48000A5F209117B
:103DE00008607CBD00A00C4049A10C402DE9F843BF
:103DF000044609F0A5FE81462D48021992F8ED10FF
:103E0000491ECFB2002F82F8ED704BD12B4D05EB40
:103E100084052E78698836F07F0788461AD1F10923
:103E200011D24FF08054D4F8B80180690146404661
:103E3000884704F5DC742068406B0146404688479B
:103E40000228F8D121E000EB8800D0F80011002012
:103E500088471AE04FF08054D4F8B801006A014650
:103E600040468847D4F8B801806A014640468847F2
:103E7000D4F8B801006B01464046884701210D4A3D
:103E80000D48116001688908FCD306F03F003F2807
:103E900001D0FFF7ABFF687800F03F003F2801D06A
:103EA000FFF7A4FF484609F06BFFBDE8F883C04662
:103EB00090150020282008602820084000E4000019
:103EC0002DE9F041846845680F68226895F88C30C8
:103ED000B8B2B2F1804F00FA03F01FFA80FC14BFB1
:103EE000254B264BDFF898E0886838B995F88C2088
:103EF00070469600825905F1A60006E095F88C60A0
:103F0000204AB60092596044401E9A60586020686A
:103F1000083018609A683F0143F6F078103F08EACD
:103F200007073A439A602368B3F1804F14BF164ADB
:103F3000164A496821B971468E5904F10E0105E00F
:103F4000DFF84CE05EF806606144491E966011603F
:103F50005060906807439760D5F8A00021694268D7
:103F60006669126846EA01009062586A40F00300F0
:103F70005862BDE8F081C0460005002030040020F2
:103F8000F8E30000F0E300001005002040040020EA
:103F9000E8E300002DE9F041064609F0D1FD2D4D82
:103FA0008046A91991F8ED00421C002881F8ED2007
:103FB0004AD1294C04EB8604277807F03F003F28BC
:103FC00001D0FFF7E7FF607800F03F003F2801D005
:103FD000FFF7E0FF668837F07F001AD1F80911D2A9
:103FE0004FF08054D4F8B801406901463046884704
:103FF00004F5DC742068406B014630468847012890
:10400000F8D121E005EB8605D5F80011012088479D
:104010001AE04FF08054D4F8B801C0690146304628
:104020008847D4F8B801406A014630468847D4F83A
:10403000B801C06A0146304688470121074A08484E
:10404000116001688908FCD3404609F099FEBDE87B
:10405000F081C0469015002000E400002820086090
:1040600028200840294A2DE9F041804601262848A9
:1040700016600768002FFCD0294C2A4FC020443C12
:10408000206007F1080001682348890804D201680C
:10409000090C41F0F00100E072211E4D85F8541228
:1040A000002111638768384601F092FD4046394689
:1040B000FFF72AFE1C48B038816D40F20F226FF3E3
:1040C0001F418A4212D901680068C1F30363C0F33B
:1040D000034003B15B1E072805D006280EBF07204A
:1040E000801C00F00F0043EA001028703846FEF7ED
:1040F00087FF0E4814380068C168022088474020B6
:104100002060064F3E60BDE8F081C04610100940B7
:104110009402224302600840AC3F00509404604285
:1041200044600C40A83F00506C130050B4010010D4
:104130002DE9F0410D460646B5F1FF3FADF1380DD2
:1041400009D045B12B496B4605A82A4607F032FB3A
:1041500005A9022001E0002103200391264F8DF8DC
:10416000100038682024EFF31188371884F3118881
:10417000708980BB002D04BF88F31188002036D0E1
:1041800009F0C4FA064609F029FD0290C0F818D0DB
:1041900006F04AF83846694609F002FD9DF810001D
:1041A0000025022802D1039802F04CFC88F3118804
:1041B000304607F013FBEFF3118384F31188039863
:1041C00010B109F03BFE03950298856183F31188D5
:1041D0009DF810000BE07089401E7081039818B1A3
:1041E00009F02CFE0020039088F3118801200EB006
:1041F000BDE8F0810DB10000C8EA00002DE9F041F2
:1042000015460446A869A060686A98460E4608B933
:104210002A4800686062286A002806BF28480768A4
:10422000071C09F099FCEB69A3B9002808BF391CE9
:1042300003D03F1841427F1E39400246E161606A67
:10424000E169434602F08EFA2062206AB8B9012083
:10425000BDE8F081002804BF2362391C0BD01B1875
:1042600041425B1E01EA030020623F1AE869C0195F
:10427000E061E0690140E1614FF0FF306062A662F9
:104280002869E06268692063A86A6063A88DA087D6
:10429000A08F012803D10B49C868401CC860204684
:1042A000414601F0E3FA0346404608F0F7FD0028D6
:1042B00014BFD81C0020BDE8F081C046DCEA000035
:1042C000E0EA0000001A0020042998B54DD1274CDF
:1042D00004F1240009F08CFD40B994F8A3004008D3
:1042E00038BFE06804D3D4F8880000E0C068E0601C
:1042F00041681F4A09781160416812680978914243
:1043000006D0876927B120A20CCA6FF0FF01B84719
:10431000022006F08BF91120FFF73CFE0120E0712E
:10432000E068011D007C10B16079012804D00E20E6
:10433000FFF730FEE168091D08680E49083007687C
:104340000FB947681FB10020C8610B4F0F600B4ABF
:1043500040F2FF7000271060094C8F6109484C61E2
:1043600009F0C8FA192004F0A3FC98BDF80E00204B
:10437000D0210840001004405100070600000460EE
:104380000200004031310000000000000000000287
:104390001EF0040F14BFEFF3098169468869EFF33B
:1043A000118102B400B5DFF89CE0F047284A11689B
:1043B00001EA000010605DF804EB1EF0080F03D165
:1043C00001BC80F31188704704BC1EF0040F14BFB9
:1043D000EFF309816946A1F1200114BF81F3098837
:1043E0008D464A604FF08070C8611A488861184B4A
:1043F0001868086040F201101860704702B401B4F8
:10440000EFF3148100291CBF002282F3148802B448
:1044100002B4DFF834E0F04701BC01BC00281CBF47
:10442000022181F3148801BCDFF820E0F047044842
:104430004FF08051016001BC80F3118800BF00BFC4
:1044400004ED00E04D7C0000CDDC00007BDD0000D1
:10445000D01A0020FD4300002DE9F0470F46054625
:1044600038686C68D5F80880002852D009F068FBDD
:10447000D4F8881021B109F083FC0320387448E097
:1044800001263E74C4F8887009F07AFC94F8A40000
:1044900038B194F88D202049D4F89C00114305F0E0
:1044A000F1F9D7F8049009F04BFB824694F8D80054
:1044B00050B919F0704F02D1042006F0B7F802206D
:1044C00006F0B4F884F8D860504609F059FCD8F8E2
:1044D0000010486840F00200486028463946FFF75F
:1044E000EFFCD8F80010486940F0010048612078DE
:1044F00028B961686C342046FFF71AFE10B13046C7
:10450000BDE8F0872846FFF72BFA20460021FFF789
:104510000FFE0020BDE8F08700000680F8B509F026
:104520000FFB2A4C0746103CD4F89C0010F4602F77
:104530002BD0D4F89C00400CC5B2680807D2A8085C
:1045400003D2E80828BF022502E0012500E000258B
:104550006E1D70B203F050FBD4F89C3005F11101D0
:104560000120884023EA00013846C4F89C1009F075
:1045700007FC04EB8500D0F88C704FB1D4F88800AC
:1045800013A20CCA3146B84702E0384609F0F8FBDE
:10459000D4F89C0020B104F1FC00002108F04EFC8E
:1045A00094F8A30080080FD3D4F8987037B1D4F8EA
:1045B000880009A20CCA6FF00101B84794F8A30063
:1045C00000F0FD0084F8A300F8BDC046080F0020ED
:1045D0000000000000000008000000000000008053
:1045E0002DE9F8430D46064668687468D6F80890C9
:1045F000002710B9E868002850D02078012814D18D
:1046000009F09EFAD4F8BC1049B1D4F8C0108D61FD
:10461000C4F8C05009F0B4FB0120BDE8F883C4F829
:10462000BC50C4F8C05009F0ABFB022005F0FEFFFF
:1046300004F160084FF0FF314046FFF779FDD9F8EB
:10464000080004F013FB3046294600F02BFE054617
:10465000D9F8080004F02CFB207888B9B5F1FF3FA9
:1046600008D004F17C004FF0FF31FFF761FD207AA4
:1046700048B110E003202072022005F0BFFF0AE0DD
:10468000B5F1FF3F01D0012705E00320207204F1BE
:104690002C0004F02FFB404602F004FB3846BDE836
:1046A000F88370472DE9F0412D4C0546A41C207875
:1046B0001F4690460E46ADF1380D012803D0FFF796
:1046C000C5F9012020705EB1B8F1000F6E6007D00F
:1046D000C5F8088009F034FA617819B109F050FB87
:1046E000002038E0491CC9B2617009F049FB01247F
:1046F0001FB9684608F000FD6F4638682860786882
:10470000E860387A2874F8686861386900B1A8618F
:104710000021782205F1200001F0A8F905A8002168
:104720002422082309F042FA8DF82C4005F13800C4
:10473000002105AA06F0FAF805A800212422082382
:1047400009F01CFA05490B9505F17000002205AB34
:1047500005F01CFD28460EB0BDE8F08115DD000017
:10476000F80E00202548F0B5ADF13C0D0D90FE206F
:104770000E9009F0E5F9064600213022082301A831
:1047800009F0D8F91E4D4FF0FF37002420211D4AB3
:10479000099701AB009405F1280004F0ABFF30222B
:1047A000082301A8214609F0C5F9174A212101ABC8
:1047B000099705F14400009404F09CFF304609F08D
:1047C000DFFA0DA905F11C0000F0B6FB286009F026
:1047D000B7F906460F4A0D4D0D484F2411460839CA
:1047E0002C6007F00FF80D490B482C61243A07F0B4
:1047F00009F8304609F0C4FA0FB0F0BD0708808010
:1048000008130020056400005D550000483508408D
:104810009004002030000140B00400208CEA000029
:10482000F8B509F009F909F019F9044604F00C008B
:104830000C2845D0E0081ED206F03CFC234E376819
:1048400005460120014607F0EBFC316869438842C8
:1048500011D21F4C8220B0FBF7F0291A204609F034
:10486000EFFA204608F07FFB0120FDF73FF82046D5
:1048700007F05AFC25E0200922D21648610939BF09
:10488000016821F00101016841F001010246016067
:10489000D2F898004FF0805440F00300C2F898001E
:1048A000D4F8B8018069014620208847D4F8B801BF
:1048B000094C806B2168804701202060206800E05F
:1048C00030BF09F0BFF802F021F8F8BDBCEA0000E3
:1048D0009C1500208C2108402C200940F8B50D467D
:1048E000EEB2290824BF27494D40274BB400DFF81A
:1048F0009CC0195900EA05020CEA020200F4E02CFF
:1049000085EA0107BCF5E02F00EA070721EA00016C
:10491000C7F3006742EA010201D1510E14D300F43B
:10492000E0210F4310D002F4E027B7F5A02707D00D
:10493000B7F5803704BF22F4003242F4A02203E02E
:1049400022F4803242F4C0221A51114CC10D04D31A
:10495000C5F38052A4F1D0018A55000E10D309F09E
:10496000EFF8290E03D201220021B24002E0012219
:10497000B2401146236893431943216009F000FABD
:10498000F8BDC046006000A000100840007F077F0F
:10499000D02002402DE9F0410E46294990461C46A0
:1049A00006AF8C4672680878BB8851783F881278C9
:1049B000002502EB012242F62321521A29D0521E71
:1049C000052A18D9921F0CD0263A34D1072F30D897
:1049D000C7F10700984298BF83B2674407F1080106
:1049E00021E0B84225DBC01B9842D8BF83B22380A8
:1049F000DCF804000BE0F06808F028FC80B2B84254
:104A000017DBC01B9842D8BF83B22380F0683918E7
:104A10000AE0082F0DD8C7F10800984298BF83B26A
:104A200007EB0C010F31238040461A4600F0A0F935
:104A300003E0072501E025800A252846BDE8F0812E
:104A400034110020264838B550380468B4F1FF3FCF
:104A500008BF002408F032FB22481749002510380F
:104A60000560012008601549086003F05FFA1448EA
:104A7000006820B1134800682046FFF7F3FA124897
:104A800012490560124C0A686FF35B4244EA020067
:104A9000086010490868C0F30130012806D10A688F
:104AA0000D48104040F400320A6008600B49086865
:104AB0000028FCD138BDC0465C600C40082204438D
:104AC00080012843000120438C21084048200340F6
:104AD0000000390104000940FFFFFCFC0C006842A3
:104AE0006C130050940460422749F8B5054616310E
:104AF0000C4602F0D9FF70B3B4F80150A27B04F168
:104B00000F01284601F062FB284608F0EFFB08F091
:104B10009DFCC01DC71008F0A1FCC01DC61009F007
:104B2000C9F85FB100F1B5023D4600210B19DB78F1
:104B30006D1E01F1010102F8013BF7D1DEB1BD307C
:104B40000022BB18611CC9188978521C761E00F817
:104B5000011BF6D10FE009F0ADF80A491E22044608
:104B6000002001F033FB002008F0C0FB84F8BD50AA
:104B7000052084F8B500FF2007F0C6F9012002F0F7
:104B800053F9F8BD86E80000A4080020B0B501463E
:104B90008B681C68E26948682262520824D2D0F807
:104BA000A01049680A685D69D2F80415294206D048
:104BB0001C68616A21F002016162C2F80455D2F8F2
:104BC000042519690A4231D01A68516A21F001019D
:104BD0005162D0F8A01049681A6909683830C1F8E4
:104BE000042504F087F8B0BD1C68626922F0010258
:104BF0006261D0F88870B7B9626822F00202626020
:104C00001C68626A22F003026262D0F8A0005F6949
:104C100044681A69236847EA0200C3F80405084695
:104C200006F0C4FCB0BD0846FEF79AFEB0BD704762
:104C3000F0B520480127F84201D003F055FC204D83
:104C4000204F214EBD4206D203CD0478A400345932
:104C5000401CA047F6E71D48002800D08047164DAD
:104C6000164FBD4202D210CDA047FAE7F0BD032592
:104C70001BE0416808300A1C2A400BD11A1C2A404C
:104C8000AB4305D0046804300C600431043BF9D117
:104C9000131C05D0047801300C700131013BF9D1AF
:104CA000021C2A4001D0A84304300368002BE0D145
:104CB0007047C046FFFFFFFF00000000000000003B
:104CC000D8F1000018F2000090F10000BD80000053
:104CD0002DE9F84306F07AFB234D0024AC704FF623
:104CE000FF70A88204F0AEFE204E012322462870F9
:104CF000314605F1A80003F01FFD0223224605F10D
:104D0000CC00314603F018FD0423224605F1F000E3
:104D1000314603F011FD042705F1480810224046F2
:104D20002146EF7000F0A2FE05F158091022484616
:104D3000214600F09BFE05F1200634602C7207200E
:104D40006C721021A8724246EC72022005F0B6F98E
:104D5000032010214A4605F0B1F938463246014693
:104D600005F0ACF9BDE8F883DC0B00201DCD000098
:104D7000002A4AD05FEA000C8B071CD1830722D19E
:104D8000102A08D370B4103A78C978C0103AFBD210
:104D900070BC103238D0042A2CD3082A05D30C2A30
:104DA00024BF08C908C008C908C008C908C09207BC
:104DB0002AD0920F22E00B780370491C401C521E2F
:104DC00022D08B07F7D1C30714D18307D8D0121F85
:104DD00012D308C903801B0C4380001D121FF8D298
:104DE0000AE008C903701B0A43701B0A83701B0A80
:104DF000C370001D121FF4D2121D05D00B78037072
:104E0000491C401C521EF9D1604670472DE9F843F9
:104E10002020EFF3118780F31188214CA068012135
:104E200009F004F84FF001094FF0000865692168A6
:104E3000A4F81C906A1A2168A4F81E80461B401A28
:104E4000904227D387F3118840464519361A4846C1
:104E5000294600F0ADFFB042F7D92021EFF31187CA
:104E600081F31188E18B012903D14046294600F0E6
:104E70009FFFB0F1FF3F06D0A169801B814238BF80
:104E8000081C411901E0A069291807F029FCA4F8C1
:104E900020902560A4F81C8087F31188BDE8F88372
:104EA000A41B00202DE9F041224E0C4680461AB189
:104EB000B088401C1080B080002586F8078006F17D
:104EC00008000D22B571FFF753FFB078002818BF16
:104ED00003202CD1208808F009FA002818BF051CEF
:104EE00024D108F0B3FAC01DC71008F0B7FAC01DEE
:104EF000C61008F0DFFE4FB1A11C00F1B5023B4621
:104F000011F801CB5B1E02F801CBF9D146B13F1974
:104F1000BD30BF1C17F8011B761E00F8011BF9D12C
:104F2000404606F0F1FF022001F07EFF2846BDE872
:104F3000F081C046A40800202DE9F843DFF87C90FA
:104F40000F4604464FF0FF314846FFF7F1F8DFF80F
:104F500070801D4800210AE0FF2A07D003689342B1
:104F600002D958F822600EB1002421E0491C1FB17B
:104F700017F82120FE2AEFD1002020600126606072
:104F80000546A0600EE0FF290BD0636806FA01F029
:104F900048F8214018430B4960601268204604F02D
:104FA000F1FF6D1C27B107EB85021178FE29EAD1CC
:104FB000484601F077FE2046BDE8F8835C2C0020CF
:104FC000002B0020007FC767C422002000B5401ED0
:104FD000ADF1240D1BD02149401E14D0801E12D0EB
:104FE000801E39D1084608F00BFF04F00FFD401E6B
:104FF000694680B205F048F870B305A940F2153053
:10500000FDF766FF28E0084608F0F8FE24E04FF4BC
:10501000417007A9FDF75CFF00218DF804109DF891
:105020001D308DF803109DF81E208DF801309DF87D
:105030001C008DF802209DF81F108DF800009DF8CF
:1050400021308DF805109DF820208DF80730684636
:105050008DF8062008F0A2F909B000BDAC050020CB
:10506000FEB5044622481646089FC069618250F882
:1050700021201C4800681D4690420DD01B48006846
:10508000009000220191184E029231888F233846F9
:1050900007F07AFB0120FEBD084603F0E7FDA6609D
:1050A00068696060286AB0F1FF3F08BFFF20207484
:1050B0000026E660288B00280EBF301C0120E0602F
:1050C0000146A88C10B141F00200E060204602F0D9
:1050D00011FC0346384607F0E1FE002814BFD81C37
:1050E000301CFEBDA8EA00004AEA000094EA000075
:1050F000B01A00202DE9F04107467D68D5F8BC00C4
:10510000C8B308F01DFD1D4E00248046F460042045
:105110003060022008F0F8FD6868D5F8A810224633
:10512000034638469847022005F068FA0CE080698B
:10513000C5F8BC006868D5F8BC102246034638465E
:105140009847022005F05AFAD5F8BC00D5F8C010EF
:105150008142ECD12C722046C5F8A800C5F8BC00ED
:10516000C5F8C000064B346038461C6003F054FAA2
:10517000404608F005FEBDE8F081C0460428004026
:10518000100405422DE9984308F0DAFC1F4CDFF8C3
:105190007880814604F1E000007850B94446A06868
:1051A0000146022088470746102003F031FB2FB349
:1051B00020E002F017F8002820460FD114490968B2
:1051C0003222B2FBF1F101B9012100F13004204695
:1051D00008F036FE204607F0C6FE0FE044460022E7
:1051E000A16880F8E020022088470746102003F0DD
:1051F0000FFB1FB1A068014603208847484608F00E
:10520000BFFDBDE89883C046FCE900009015002072
:10521000BCEA000070B504460C2008F0F7F908F06D
:1052200047FC208805F04AFA2088800080B208F008
:10523000EDF9054605F042FA08F040FC064628461E
:1052400008F036FC00250DE0A06850F8250003F0BA
:10525000B3F86D1C1EE0D4F8020050F8250003F0EE
:1052600085F86D1C2088A842F5DC304608F020FC4B
:10527000E08805F023FAE088800080B208F0C6F9E3
:10528000054605F01BFA08F019FC0646284608F00A
:105290000FFC0025E088A842D6DC304608F008FC68
:1052A00070BD704780B54268C2F8A8100868C2F89F
:1052B000AC004868C2F8B000D2F8B0708868C2F894
:1052C000B400C8681949C2F8B80097B9D2F8A80064
:1052D000007C400040F0010041F8040C02201072F4
:1052E0000B68DB0917D2D2F8B820022A17D30B2299
:1052F00016E0D2F8A800007C0123400041F8040C1D
:10530000D2F8AC001372431CC2F8AC30007848608D
:105310000868C00902D34FF0FF3080BD022003228D
:105320000A6008F0F1FC002080BDC046042800405F
:105330002DE9F041002007F015FD06F065FE012083
:1053400007F010FD06F060FE002007F00BFD1A4D7F
:105350000B26002401272D1D0E2007F0B9FE8046E4
:105360000D2007F0B5FE40EA48080F2007F0B0FE18
:1053700048EA800806F048FE28785FFA88F807FABD
:1053800000F010EA080F03D1761E04F10104E3D106
:1053900006F0E8F92878032805D00B2C1CBF44EA56
:1053A0000014E4B200D1FF2404F014FB05F014FE55
:1053B000E0B2BDE8F081C046A016002070B51F4CD9
:1053C000A568064607F0EAFB4FF47A71401B484394
:1053D000050C06F073F82169401A48BF404240F6B8
:1053E000B831AD19A94211D306280FDAA268E168D5
:1053F0008A420BD8206848B1891A114A51438A0C55
:1054000002EB1141884288BF011C08E00D49486841
:1054100040080ED208687D2100F0FF004143C829F2
:1054200005D3B1F57A6F88BF4FF47A6103E0C821E4
:1054300001E04FF4FA61084670BDC046782C0020A8
:1054400040420F00AC3F005070B586684568084682
:10545000203832D0401E2CD0401E27D1287B147813
:10546000012814BF19491A49FF2C41EA04011BD035
:10547000D5F89C0001F09EF898B93068B0F1804FE3
:1054800014BF23220B22D5F89C00214605F036FDDF
:10549000D5F89C0095F88D1001F000FF85F88D403F
:1054A00012E04FF0FF3070BDFF24F1E76FF0010014
:1054B00070BD002085F8A40070BD297B0020012963
:1054C00008BF012085F8A400002070BD0004C0A022
:1054D0000020008090B50746ADF1140D40F20E306B
:1054E0006946FDF7F5FCBDF800004FF6FF718142FB
:1054F0002BD0184C103CE16807B9A168BDF800003A
:1055000007F074FF400820D3381906F045FF041C4B
:105510001BD0BDF800001421002206F04BFF0390C1
:1055200098B161891422ADF808100B4FADF80A202C
:10553000791CFFF71DFCBDF8000002A907F032FA44
:1055400028B102A81B2107F039FA012000E0002051
:1055500005B090BD20180020C824002070B51D4E55
:105560003068400834D308F0EBFA0446212007F0F5
:105570007FF801207060204608F002FC174C241FC1
:10558000A06800281CDDE06804EB80010D6E401C63
:105590002028E06018BF402802D105F0A3FFE06892
:1055A0004028A4BF0020E06008F0CAFAA168491EA4
:1055B000A16008F0E5FB002D03DD05F0E7FA03E04C
:1055C000054D07F017FD6D42280100EB4510B06056
:1055D00070BDC046201001407929EDFF0C1300205A
:1055E000F8B5001D84B214F0030002D0241A241D63
:1055F000A4B207F0F3F801461948102C476801607F
:10560000C8BF8768388800221646C30BDD0319D14E
:1056100026B984420ADD3A46012617E01388C318EA
:105620009BB29C42138011DC174618469FB1001BA9
:1056300080B20428B4BF3C88385344F400443C8012
:105640003F1D08E080F40040002680B2C71938886A
:105650000028DAD10027084607F059FC3846F8BD83
:1056600070170020B0B50446A768ADF1280D27BB20
:105670000C20FFF7B5FF071C16D068460021242236
:10568000082308F07BFA002306976A466168ADF8A4
:1056900010301448059304F07DFA386038B907F0EB
:1056A0002BFC384605F0E0FA6FF0030018E0E068E4
:1056B00078602069B860A7600AE007F08FF80546B7
:1056C000386806F031FD2069B860284607F01FFCF5
:1056D0003868616808F0B4FB386807F044FC0020C3
:1056E0000AB0B0BD6DD90000B0B514460F4608F041
:1056F00027FA85B219480068007808B906F09CFFBF
:1057000087B1384605F083FD40B114B14FF0FF304A
:1057100020700820FEF76AFB002419E038687968D9
:10572000BA6803E04FF480700122014604F010FCD7
:105730000B49012008600B4908684008FCD30A485F
:1057400000684168022088470CB10021217004469E
:10575000284608F015FB2046B0BDC0460CEA000004
:10576000A802504208800240CC010010F8B50E4655
:10577000044607F0B3FF0546304605F059FC071C08
:1057800003D1284604F036FD26E0F87F10F0070F1D
:105790001BD113487968884202D079682166786005
:1057A00010A090E8060004F15807284687E8060094
:1057B00004F020FD04F138004FF0FF31FEF7B8FC93
:1057C00004F1680696E80300F8BD284604F012FDCF
:1057D000F87F10F0070FFBD102200021F8BDC04672
:1057E0001D8000000200000000000070B0B51749E5
:1057F0001C481D4A0F68C0691549C2F8080DD2F847
:10580000083D99420ED06FB1124B1B6800240F2C3B
:105810002CBF1D1C0D68091D641C05607F1E00F156
:105820000400F4D10D48D2F80C7D0B4D0168202402
:1058300027F47F4000EB01202918C2F80C1D084B0B
:1058400082F8224D1868C2F8140DB0BD98EA000025
:1058500010100000A8EA00000000FA05ACEA000001
:10586000A0EA0000B01A002000E000E070B50D468C
:105870001B4A1A4904462B4605F071F92061284657
:1058800007F00CFB40BB184801220021A568036803
:1058900022751448A161002D18D4A1688A4080693E
:1058A000A168E26008F070F9206407F02FFFEFF3C1
:1058B00011850646202080F31188204607F0CAFA99
:1058C00085F31188304605F089FF05E0E160C018D6
:1058D0002146206406F02EFF002070BD6DC7000039
:1058E00031970000001A0020D0EA0000F8B50E46FB
:1058F00005461446A969EA691F462046FFF738FAAB
:1059000064602FB1EA6920463946082303F010F895
:10591000E468D6B9E8686969AA68079B08F070F975
:10592000071C08BF002020D008F05EF969683960C4
:10593000696849687960696849680F6069684F609B
:1059400007F0ECFE07F1080605E06A693046002121
:10595000083A00F08BF82868B0F1FF3F18BF3060BC
:10596000286908B1616831503046F8BD2DE9F0432F
:10597000ADF13C0D07F0CAFE1A4C184D00268046CA
:105980001C3C684600213C22082308F021F954F809
:10599000042F6868AF6806902B68089769460592DF
:1059A0000F480493002203F0E9F9071C10D006F019
:1059B00015FF8146384602F01BFC48B1484607F007
:1059C000A6FA2D1D761CDCD0404605F007FF01E04D
:1059D00003F00AF90FB0BDE8F083C04684E200008E
:1059E0002DD400007C1700201CB5042006F052FDC9
:1059F000022818D0032816D016480068C0F381503A
:105A0000032814BF41F288324FF47A721248144CC2
:105A1000016854342046B2FBF1F108F011FA204637
:105A200007F0A1FA1CBD03200C4C009000214FF0A0
:105A300040521C23204602F037FE012000214FF483
:105A4000007209230090204602F02EFE022004F08E
:105A5000D5FD1CBDB43F0050BCEA000000A00C40C6
:105A600090150020002213460A46194671B510F021
:105A7000030F0BD0002A82BF00F8011BB2F1010214
:105A800010F0030FF6D1002A08BF71BD11F0FF011D
:105A900041EA0121042A18D341EA0141082A0FD31F
:105AA0000E46102A08D30C460D46B2F10F0312F031
:105AB0000F0272C0103BFCD812F0080F18BF42C092
:105AC00012F0040F18BF40F8041B12F0020F18BFA9
:105AD00020F8021B12F0010F18BF017071BD704752
:105AE0002DE9F04108F02CF81A4CA56808F048F9A7
:105AF0000026402D24DAC5F140054FF03008374626
:105B000005F062F900281BD004F160010ADD32289B
:105B100004DB6269B2FBF8F2A26104E0A76119201C
:105B20003A4600E0A269801A226941F82200206901
:105B30003F28BABF401C20612761761C6D1EDFD153
:105B400007F0FEFFA1687618A66008F019F9BDE815
:105B5000F081C046081300202DE9F0410C461B4996
:105B6000097880461846002918BF03202BD1D1B2EE
