:200000000040002025CA000001C9011001C9011001C9011001C9011001C9011001C901106F
:1C00200001C9011001C9011001C9011001C9011001C9011001C901103FC9011089
:20003C00A8482DE9F04F00F1D00400F1D40890F8D110A54D98F80000ADF14C0DB0F1330710
:20005C002BD03F1F00F0E38420F00F02502A40F0E484677900F00F0007EB0026EF78891E9C
:20007C00C9B277B17F1E15D1002E06BF081C287128796A6933B200FB0320A21D0AF034FC2E
:20009C0008E0286931B1A41D14F8012B491E1044FAD12861022100F0BDBC607994F806B03A
:2000BC00109040460FF010F9B54EA079EA68AB78AF69D5F814C0D5F810E0B178401E4128FF
:2000DC0000F29A84DFE810F085047A0283045C0278044804450430041B0431020F0407048E
:2000FC0005040104FF03FC03F9031702EF03E903D703E701D003BE01C703C303AA017D01D5
:20011C00BF03BC03B903B303B0035E01AB0392037D0377037403670362035F033403280377
:20013C001B031803150310030303F902EE02DF02D902D5020201D102F500B902A302A002EE
:20015C00EC008B02DB00780053004200B4F80700401E0AD0401E06D0801E1FD10EF06CFD0E
:20017C00FF20A87038E2A02021E0B42022E0E11D88880F882618F61D781E4E6019D0401EFA
:20019C0014D0801E02D0401E0AD007E048680078984201D00EF050FD3078E2E708201CE21B
:2001BC000EF0A0FE0FF054F8FF2016E23078687012E2307828700FE2B4F8077000263846B9
:2001DC008DF80860401E2FD0401E2CD0401E20D0401E1CD0401E10D0B7F5807F08DBB7F54F
:2001FC00847F05DA4FF4C835402005EB87151CE0082102AD8DF8081016E00EF073FEFF20E0
:20021C008DF82E000FF024F80DF12E050CE0AD1C0AE04FF441700DF12E0106F013FC0DF100
:20023C002E05062001E06D1C0120ADF809000720CDF80B500FF042F90FF086FA9DF8080073
:20025C000FF038F8BDF809000DF000FDBDF809000FF034F907460DF0F9FC0FF07BFA0546B3
:20027C0038460FF071FABDF80900B04240F38782DDF80B00305C0FF01DF8761CF3E7002979
:20029C0040F07C810320D4F80970217AB07606F11A020523E079C6F81B7007F0C7FE9CE1D6
:2002BC00002940F06B81D4F8070002210CF0E0F992E1E07910B90EF029FF85E30DF04EFBA9
:2002DC0082E3C046A826002078200020E579A8000FF036FB1190A8000FF032FB06467DB1CC
:2002FC00DDF8449082462F460CF02EFA01F0F4FE49F8040B0DF016F94AF8040B7F1EF3D1E7
:20031C000C200FF0DBF80FF01FFA28460DF09EFCA8000FF0D3F807460DF098FC0FF01AFA43
:20033C00824638460FF010FA45B1DDF844902F4659F8040B0CF0C0F97F1EF9D150460FF02D
:20035C0003FA28460DF082FCA80080B20FF0B6F881460DF07BFC0FF0FDF9074648460FF00A
:20037C00F3F935B1B14659F8040B0CF0C9F96D1EF9D138460FF0E8F911980DF053FA70E183
:20039C0020050020B4F90720B4F80900D54D002A204400F10700C4F8090009DD014628466B
:2003BC001746683051F8043B7F1E40F8043BF9D12846402A19BF4261002100214161C2606D
:2003DC0085E2B4F80900B4F807702218002F02F10702C4F8092000F0F782093A0932107809
:2003FC00D2F80130D2F80510401E13D0401E0FD0401E0AD0401E05D0401E0CD1186820EA59
:20041C00010107E01868414004E01868014301E01868014019607F1EE0D1D5E2B4F80D0055
:20043C002118B4F80B00C91D0028C4F80D1000F0CB82D4F8072011F8013B401E02F8013BC0
:20045C00F9D1C1E2B4F81100D4F807A0D4F80B70B4F80F502018C01D8146C4F811000EF0EA
:20047C0041FD504607FB05F10AF0F0FF012810D1002F00F0B180002605FB06A029464A4686
:20049C000AF032FA012879D17F1E06F10106F3D1A2E00220A1E0E01D056847680EF022FDED
:2004BC0080200FF04DFA4FF0000906468FB12846802132460CF01AFC0023802F34BF381CB4
:2004DC008020984210D8802F03D3803F05F18005EDD130460DF0A6F9ADF81A900DF11A00A8
:2004FC0002210EF0B2FC87E2F15C48460EF0BAFD5B1C8146E1E70EF0F5FCDA480068002871
:20051C0008BF002302D003684679057906200EF0D5FF0FF019F918460CF0F2F828460EF0A2
:20053C00C9FE30460EF0C6FE66E2B4F80D002018C01DC4F80D0009BBF088B4F807108842F8
:20055C001AD1B4F80900D4F80D10E27A09F08AFD307A30B9707A06F10D01002209F028FC59
:20057C003BE000200090F17A327BB07A06F10D073B4609F033FD30E004202EE003202CE02C
:20059C00E7790EF093FF2A78510001EBC20101F57A71814210D8381C06D0401E13D14FF472
:2005BC0080204FF4E83103E04FF4C0204FF4F03100220FF075F8F7E509200EE0E079A168D6
:2005DC0030B1401E01D00A2007E04FF4802001E04FF4C0200DF06CFD002005462BE006A86D
:2005FC000090217AE07904F10903022209F0F6FC034603200EF062FF0FF0A6F818460EF087
:20061C0059FEBDF81800A1E10DF086FE8DE0E01D818890F80090477846886518ED1D456053
:20063C000EF060FC2A46F3B24846394607F0FEFC05460EF00DFE284677E0E779257AF82001
:20065C000FF07EF906460EF04DFC32463846294607F0E8FE05460EF0FBFD284631460DF010
:20067C0070FE30460DF0DEF8C6E1E0790BF0BAFCAAE102200AF0DAFBA6E10FF015F900F1F5
:20069C00B5051120C7E0E5790FF00EF904F10801112280F8E850B53008F0A2FE28460AF082
:2006BC003FFE91E1B4F807100FF0FEF8054608460DF0D8FF28786D1CADE0B4F80900E17985
:2006DC002018C01DC4F809000DF0E0F82DE0E21D90882118C91D10885160927809F0C2FC02
:2006FC0023E0C04670170020B4F807000DF0BAFF1BE00EF0A1FA67E10DF060F815E0E07B44
:20071C000090B4F80910B4F80B20B4F80D30B4F807000CF0CFFE08E0E11D88882218D21D0D
:20073C0008884A60897802F0D9FC0EF0AFFE63E1B4F807000DF1360106F084F903460720E1
:20075C000EF0BCFE0FF000F818460EF0B3FD08200DF07CFA08200EF0B1FE06460DF076FA99
:20077C000EF0F8FF054630460EF0EEFF08270DF1360616F8010B0EF09DFD7F1EF9D12846CC
:20079C000EF0E2FF38E10EF091FEB5E0D4F8070005F0F8FF30E1B4F80D00B4F80B10221899
:2007BC00D21DD4F80700C4F80D200BF032FD0BE10BF054F8A0E0B4F80700617A0CF078F89B
:2007DC009AE0B4F809002018C01DB4F80760C4F80900B4F80F002118C91DC4F80F10D4F860
:2007FC000950D4F8090003F051FD13E0B4F809002018C01DB4F80760C4F80900B4F80F001E
:20081C002118C91DC4F80F10D4F80950D4F8090008F0B8FA304629460DF093FDECE0D4F814
:20083C0007000CF08BF8CFE00EF044FBCCE0E11D086849680BF0ACF9C6E00CF0B7FAC3E0C9
:20085C0007F0DCF8C0E0D4F80700006854E0E67AD4F80750DEE7E11D086849680DF028FC1A
:20087C00B2E0C046F81D0020E11D08684F6839460BF0A8FCC0E0B4F80D00D4F80770B4F804
:20089C000B602518ED1DC4F80D500EF02BFB2A46314638460AF028F847E7D4F80700E17A72
:2008BC000DF0F2FEA8E0E01D066845680EF01AFB304629460AF0CAFD37E70EF0C9FC83E092
:2008DC000EF010FB31E7724603E00021E97029617AE0104610E0D4F807500BF035FF2846DC
:2008FC000EF0FEFF06E0D4F807500BF02DFF284600F0A6F80CF016FE0EF0AFFE7CE007A8EF
:20091C000090E07904F108030021012209F066FB034603200EF0D2FD0EF016FF18460EF08C
:20093C00C9FCBDF81C0011E0E07904F108010DF11E0209F03DFA034603200EF0BFFD0EF04B
:20095C0003FF18460EF0B6FCBDF81E000DF07EF952E01C2032A15FE78DF8233003208DF81D
:20097C00200002278DF8217000268DF822600EF09DFD09900AA94FF4417006F063F80E2078
:20099C000EF09CFD0EF0E0FE9DF820000EF092FC9DF821000EF08EFC9DF822000EF08AFC0E
:2009BC009DF823000EF086FC09980BF0A9FE0AA806210DF0C3FE1FE0D4F80700D4F80B1050
:2009DC00D4F80F200EF06CFE0EF068FD14E060464DE7B4F80900B4F80770201804A9C01DCD
:2009FC00C4F80900D4F80960ADF810704FF6FF70CDF812600BF07CFA0EF040FD342188F850
:200A1C0000101099617184F806B0C1B202E0382088F80000404609F03DFD13B0BDE8F08F30
:200A3C0050726F64756374204A756C20313020323031392031343A34373A3338000070477B
:200A5C00DFF800F0A5A501102DE9F04FD14C04F118012046ADF13C0D0BF09CFACE4D0026B9
:200A7C004FF6FF700123667032462082294604F1A4000BF08DFE0223324604F1C80029463B
:200A9C000BF086FE0423324604F1EC0029460BF07FFE4FF0040A04F1440810224046314697
:200ABC0084F802A009F06EFE04F1540910224846314609F067FE04F11C073E6004F10A05F6
:200ADC002E70E671267207206072CDF80080DFF81883022210200346414605F043FB102036
:200AFC0003224146CDF80090034605F03BFB1020524641460097134605F034FB4FF0010BB7
:200B1C004FF0030905F12A000A9005F179000B9005F11E000C9005F15A000D9024350E9511
:200B3C0001E00CF04BFEA069B94A31464FF0FF3300F040FA071CF6D0029606A809A902AAC8
:200B5C000CF0C2FF002840F0CC81BDF818102078102940F0C2819DF82410884240F0BD81F5
:200B7C00029D29884FF6FF728A4200F0AB812B78A23B00F08C812E3B40F0AF81A978B0460E
:200B9C00002900F04781891E00F01481491E012940F2E380891E00F0A680491E7AD0491E31
:200BBC005BD0083900F06281891E40F0658194F83A30A888052BADF80C0046D0BB488DF878
:200BDC0016B00EF0D7FE94F83A0001281ED004281CD003280DD002280BD00298C188ADF8D6
:200BFC000E100189ADF810104189ADF81210818927E0A08FE58FADF80E00B4F84030ADF8B3
:200C1C001050B4F84210ADF812301AE0A08FE9888842D8BF081CADF80E002989E08F8842B6
:200C3C00D8BF081CADF810006989B4F840008842D8BF081CADF81200A989B4F84200884224
:200C5C0000DC0846ADF8140001E08DF81660B049102003AA05F086FA0EE1AE480EF08AFE03
:200C7C006B78002B40F00881E88860822889A0826889E0828D480EF049FC002840F0FC802D
:200C9C00656A002D00F0F8802B68608AA18AE28A9847F1E0AA88B549102005F063FA0A98BC
:200CBC004146062209F06EFD6682A682E682A87920737E480EF05EFE96480EF05BFED84666
:200CDC004FF6FF702379208253B9A879082812BF84F801A00520607040460EF047FCCBE054
:200CFC0084F80190C8E06B787BBB291D0A980A680260898881800623637068892082E8893C
:200D1C006082288AA082688AE082E878E07294F83A00012818BF02280BD1A54910201F22D0
:200D3C0005F020FA4FF47A7180B241435F480CF015FC688900909849CDF804A0EA78102093
:200D5C002D1D2B4605F00EFA99E06878312840F08A80E67084F801A091E06B78002B40F0B1
:200D7C008280A878E3896178032817D0E078257923B9012814BF2671E67006E0054304D021
:200D9C00864819460CF0EAFB61780729E2D106206AE0C046B00D002089F50000062907D096
:200DBC00E578002D08BF84F8019068D002205BE0072059E06B78002B55D1EB786178ABB9F0
:200DDC00022920D007291ED0062902D12079012819D1032917D071480EF098FB98B95846C4
:200DFC000EF0C4FB0FE0C046A1F900000DF008F90246A079674900900B98434601901020FF
:200E1C0005F0B0F968706D78002D2CD134E0C046070000806B7833BB61485D4900900222BC
:200E3C001020034605F09EF95E484A46584900901020034605F096F9ED1C0C98296801608E
:200E5C00A9888180207884F801B00DF0D9F802465B460D9D60794F4900901020019505F062
:200E7C0081F9C5B25DB10820607008E0AA8847491020052305F076F9B8F1010F2DD1256AB3
:200E9C00002D2AD02D6845B36078A84725E06879132822D1288901280AD1607B022807D115
:200EBC001C480EF067FD0CF089FC16E0780E00203F491020052205F055F981B215480CF085
:200EDC004DFB0AE06888C00B07D337485246304900901346102005F045F9029808B10EF002
:200EFC00FCFC2579E07879082FD355EA00032CD02046007885B9E179257A8DF81A100E9ABB
:200F1C008DF81B50136807AD2B609288AA8005E0051601109C0E00208DF81A90617A8DF85D
:200F3C002210A17A8DF823100DF06AF8164902460DF11A03102005F015F930B10820256AA4
:200F5C00607015B12D6805B1A847B80803D31749304609F053F9F808FFF4E5AD677B7F1EF0
:200F7C0006D07F1E3FF4DDADDDE5C0467DC20000CDF800B0A08FE18FB4F84020B4F84230E0
:200F9C000CF098FACFE5C04659440110C1170110A5F9000009450110B9820000540E00209C
:200FBC00F40D0020040E0020CC0D0020EA0D0020F5840110DFF800F0F99B011008B50246B7
:200FDC000DF084FF06499042C4BF101C103103DC0DF07CFF121AD0B20EF0E3F908BDC046BA
:040FFC00E52B0020C1
:20100000B41200001810000015AB0110FDB301106DC00110FDAE011099B5011000000000F7
:08102000000000002C0000009C
:20102800B01200003C100000B1C00110A9BF011067C0011069B80110000000000000000035
:041048002F00000075
:20104C00B012000060100000BDC00110CDB30110D9BD01106DB3011000000000000000005B
:04106C003000000050
:20107000000000006021002004000000000000000000000020000000E8C9011030000000A9
:2010900028100000682100200400000000000000000000000C000000D8CA01101800000084
:2010B0004C1000007021002004000000000000000000000024000000F0CA01101800000008
:2010D00000000000782100200400000000000000000000001000000018CA01102C00000014
:2010F0000010000088210020040000000000000000000000200000006CCA01102400000078
:20111000FFFFFFFF902100200400000000000000000000002800000090CA01102400000037
:20113000FFFFFFFF982100200400000000000000000000001400000008CB011018000000B6
:20115000FFFFFFFFA021002004000000000000000000000058000000B4C901103400000084
:20117000FFFFFFFFA82100200400000000000000000000001000000020CB01101800000052
:20119000FFFFFFFFB02100200400000000000000000000001C000000B4CA0110240000007F
:2011B000FFFFFFFFB82100200400000000000000000000003800000044CA011028000000A7
:2011D000FFFFFFFFC02100200400000000000000000000005400000078C901103C0000001C
:0811F000020000008C2B01003D
:0411F80001000000F2
:0411FC0000008C0F54
:041200000000BC0F1F
:0412040032000000B4
:0412080001000000E1
:04120C00942000200A
:0412100000020000D8
:0412140000000000D6
:0412180001C90110F7
:04121C0000000000CE
:0412200000000000CA
:0412240008000000BE
:0412280000004C1264
:04122C00F01E002090
:0412300000000000BA
:0412340000000000B6
:0412380008000000AA
:04123C003820002036
:0412400000000000AA
:0412440000000000A6
:04124800080000009A
:04124C00000000009E
:04125000000000009A
:041254000000000096
:041258000000000092
:04125C00010000008D
:04126000881F0020C3
:041264000600000080
:041268000100000081
:04126C005C1E0020E4
:04127000000000007A
:041274000000000076
:041278000002000070
:04127C00000000006E
:02128000280044
:02128200010069
:02128400240044
:021286002F0037
:02128800300034
:02128A002C0036
:02128C0001005F
:01128E00015E
:0812900003000000402B0100E7
:0812980000000000000000004E
:0412A0000000930DAA
:0412A4000000AD0D8C
:0412A80013C401105A
:0412AC00DDED000074
:0412B000B812000070
:0412B400B81200006C
:0412B8000000000032
:0412BC0018210020D5
:0412C000E3F3000054
:0412C4002000000006
:0412C800A02A010057
:0412CC00882801006D
:0412D00029C101101F
:0412D40057C90000F6
:0412D800C7D100007A
:0412DC00A1C7011095
:0412E000A3C701108F
:0412E4000000000006
:0412E8001CFF0000E7
:0412EC00D426010003
:0412F000EC260100E7
:0412F400BC26010013
:0212F8000200F2
:0212FA0003806F
:0212FC00931746
:0212FE000100ED
:0113000001EB
:041304005DF3000095
:0413080001D7000009
:04130C009DE8000058
:041310007DDA000082
:0413140017DB0000E3
:0413180085C8000084
:04131C00EDA9000037
:04132000AFF6000024
:041324008DB900007F
:0413280015C70110D4
:04132C0025C70110C0
:201330002DE9F04F874C211D2046ADF1340D0AF037FE07F0FBF90DF085FC04F11C000EF04B
:20135000A0F94FF4FA720123D749A06004F16C000BF024FAD54E10201F220623314604F04F
:2013700007FF4FF0010A0820ADF8180000258DF82DA05020ADF8165051468DF82E500DF19E
:201390002D02ADF81A000620ADF81C006420ADF81E0040F2053001F0A7FE40F20630022199
:2013B0000DF1160201F0A0FE4FF442700E2104F1340201F099FE40F20730152104F14202C9
:2013D00001F092FE4FF4447051460DF12E0201F08BFE40F21130022106AA01F085FE40F25A
:2013F000123002210DF11A0201F07EFE40F21330022107AA01F078FE4FF4457002210DF128
:201410001E0201F071FE04F157002A461523BA490090102004F0ACFE3146102006224FF4D5
:20143000FF7304F0A5FE3146102007224FF4FF7304F09EFE3146102008224FF4FF7304F004
:2014500097FE3146102009224FF4FF7304F090FEA9460DF12F078DF82F5003208DF83100DE
:201470004FF480628DF8309053468DF83290BC4D00971020294604F07BFE0CA840F202423C
:20149000534600902946102004F072FE0DF1310040F20342534600902946102004F068FE48
:2014B0000DF1320040F20642534600902946102004F05EFEC24910204FF0FF3204F058FE65
:2014D000C04910204FF0FF3204F052FEBE4E102013230090BD49BE4A019604F049FEBD4E22
:2014F000307880000EF032FABB4DA86078B3307880000EF02BFA05F108073968E86018B34B
:20151000307880000EF022FA286120B938680CF08FF9E86819E0A9684FF6FF700CF06EF982
:20153000E9684FF6FF700CF069F929694FF6FF700CF064F9C94B05F114000D2110220CF01F
:2015500009FD04E0CC09002008460CF071F9A069686004F128000EF094F8E0600DF028FC0F
:20157000BF4D69782878B1B904F1140129620CF04DFDCB4605F154070246CDF800B005F174
:201590004400019005F11C060297C1490396AB78102004F0EDFD20780CF038FDBD490246CA
:2015B000102004F0E5FD20780CF030FDC6490246102004F0DDFDC849102004F0D9FD07F0FD
:2015D00071F908B10AF0F2FBC84DC94E0A224B4605F13C0031460BF0E1F814224B4605F1CE
:2015F000600031460BF0DAF805F1180005F1100107F096FF686005F1300105F1240007F096
:201610008FFFC449A8600EF093F80DF06DFFC24FCB46FF20B846C5F80CB0C04E28706068FF
:20163000BF4A59464FF0FF33FFF7CAFC5FEA000AF5D0584604900BA904AA05A80CF04AFA2C
:20165000002840F08880BDF814102078012710297CD19DF82C10884278D1049D29884FF680
:20167000FF728A424AD02B78913B21D01F3B6DD16978162912D10CF0C9FC034638460090F0
:201690000498C9494288102004F072FD30B938460CF06CFD04985F46206157E0297905F1D2
:2016B00008000EF02FFC51E009F50000BD84011068780E3802D0801E1AD047E0A88842F25D
:2016D0000301814242D1A9680D78002D3ED1491C08A80A684968026008AD41602878B849BD
:2016F00008AA00F0FD002870102004F041FD2DE008200AF09FF929E091A100006888400807
:2017100024D3256915B3607805F10803401C6070AA4900936A882B79102004F029FD5FFAA8
:2017300080F9B9F1160F11D02078B9F1040F0DD025690CF06BFC034658469B4900906A8800
:20175000102004F015FD48460CF010FD049810B10FB10EF0C8F85FEADA701ED318E0C0464F
:20177000D9440000A06805460EF0C8FB854208BF5F4602D087680CF05BF8381C08D03888F9
:20179000012802D1B87807F0A3FC38460CF050F8A0680EF0AFFB0028E4D05FEA5A0009D3AA
:2017B000B8480EF0EBF8A078002806BF0120A07084F802B05FEA9A00C0F0D280CAE0C0463F
:2017D000A1E70000EDE90000282B010065DF0000CC140020694F0020001B0020E0680EF0AA
:2017F0008DFB814699F80800512800F09B80522838D0532840F0A980D9F80C100878FF2883
:2018100028D04A1C10B3401E1ED0401E40F09D80B7781578002F40F0988048780DF0DCFFD5
:20183000002800F092802846594608F0EBFFB0787570012840F089800EF03CF8052180F840
:20185000E8100846B07080E0107800E0FE200AF0CFFB7AE0022007F0FBFE76E088270100F6
:20187000B00D0020D9F80C0005460DF0B3F9AF78002F6AD0AD1C98F8D03015F8010F002B79
:2018900038D10346C03B07D01B3B2AD026E0C04645CC00005188011098F8D130B3B1022B9B
:2018B00014DD9E48B8F8D2201818C178807840EA012090420AD19B1E88F8D130FEF7B6FB66
:2018D0000DF076FA22E0C0463181011088F8D1B0A8F8D2B01AE0C046C5AB00100BF04CFBDB
:2018F00014E0012088F8D00010E0C046801C002045E500000346DC3B03D05B1E08BFDB2029
:2019100000E0C0200BF038FB88F8D0B07F1EB2D11BE0C046B9DD0000A826002020050020DF
:201930001F0000C0D9F80C0005460DF053F97B491727ED1C091D15F8010B7F1E01F8010B5B
:20195000F9D1FEF773FB0DF033FA48460BF070FF0DF030FFE0680EF0CDFA00283FF43EAFA7
:20197000B0785FEADA0103D310B106F081FEB0785FEA1A1128D3071C86F803B003D00BF046
:201990001BFA86F802B03846401E1BD0401E12D0C01E0BD0401E17D13079401CC1B270788C
:2019B000317108F02FFF0FE099B70010642006210AF064FE08E00BF093F805E0DDFE0010BB
:2019D00095B400100720B0705FEA5A10FFF427AE0DF082FD4FF448700DF088FF0CF0DEFF08
:2019F00081460DF079FD5846594601228A4019EA020F08D0032804DA0A0100EB0D0383F8FD
:201A10002920401CC0B2491C0229EEDB8DF8280010B9584609F0E0FD9DF8280008B3401E86
:201A30001AD0401E14D19DF829000DF043F903469DF82A000DF03EF936495A46491E11F8A7
:201A5000035F9D4202D14D78854203D0521CF6D0FF2007E0887805E09DF829000DF02AF906
:201A700000E0FE2005462E480078A8420CD12C480146C06840F2DC57401C8742C860B8BF4C
:201A9000FC2506E0380A0020254805700746C7F80CB028460AF0ACFAF72D18BFF82D18D10C
:201AB0001F48C068962814D10DF08AFE5846F82D08BF01200DF1330201218DF8330040F275
:201AD000053001F011FB42F21070FEF7BFFF0DF071FEFC2D02D1012009F07EFDF62D7FF4CA
:201AF0009EAD0F48C06896287FF499AD0DF068FE09480DF011FD10B107480DF041FF0DF08C
:201B10000BFB0DF0F1FC42F21070FEF79FFF0DF051FE84E5542B0100E01C0020782700206E
:201B3000801C00202DE9F84FDFF81885DFF8181588F80000002008600821DFF81005017076
:201B50000D2141804FF408718180DFF80405DFF8041501608A7EDFF800050270FF2ACB7ED0
:201B7000437008BFFF2B0D7F85704E7FC6708F7F0771C97F417115D1FF2D08BFFF2E11D1C5
:201B9000FF2F08BFFF290DD1DFF8D0140A7802704A7842708A788270CA78C2700A790271B9
:201BB00049794171DFF8B81402780A70FF2542784A7082788A70C278CA7002790A7140795B
:201BD000DFF8A02448710021DFF89C04057045708570C570057145711180DFF89004DFF8B6
:201BF0009014466BDFF88C247078087031781170B078DFF884140870B1680879DFF87C145F
:201C1000421E0A70F078DFF878140870F068DFF87414086008B90DF077F83069DFF868442F
:201C3000206008B90DF070F82068DFF8607401688847216851F8042F38469047DFF85004FE
:201C5000DFF850143862DFF8500478627069086008B90DF059F8B069DFF84014086008B9DD
:201C70000DF052F8DFF838B4DFF838649BF804000DF08AFC306008B900F045B99BF80500E6
:201C9000DFF824740DF080FC386008B9306837E19BF80600DFF814440DF076FC206020B9B3
:201CB00030680DF079FC38682AE19BF80700DFF800940DF069FCC9F8000038B930680DF0B1
:201CD0006BFC38680DF068FC206819E1DFF8A4130A789BF80000DFF8DCA3921C504380B29E
:201CF0000DF052FCCAF8080058B930680DF054FC38680DF051FC20680DF04EFCD9F800003F
:201D1000FEE0DC480078002800F00281BBF80210DFF8A4B3484380B20DF036FCCBF80400F8
:201D300078B930680DF038FC38680DF035FC20680DF032FCD9F800000DF02EFCDAF8080046
:201D5000DEE0CC4800780DF01FFCDC49086080B930680DF021FC38680DF01EFCD9F8000011
:201D70000DF01AFCDAF808000DF016FCDBF80400C6E0C0480078182148430DF005FCD04A7E
:201D90001060B0B930680DF007FC38680DF004FC20680DF001FCD9F800000DF0FDFBDAF80B
:201DB00008000DF0F9FBDBF804000DF0F5FBC348A5E0B048007840010DF0E6FBC1490860C5
:201DD000D8B930680DF0E8FB38680DF0E5FB20680DF0E2FBD9F800000DF0DEFBDAF808008A
:201DF0000DF0DAFBDBF804000DF0D6FBB34800680DF0D2FBB249086882E09E480078000103
:201E10000DF0C2FBB0490860F0B930680DF0C4FB38680DF0C1FB20680DF0BEFBD9F8000032
:201E30000DF0BAFBDAF808000DF0B6FBDBF804000DF0B2FBA14800680DF0AEFBA049086887
:201E50000DF0AAFB9F485AE08A48007800010DF09BFB9E49086018BB30680DF09DFB3868E2
:201E70000DF09AFB20680DF097FBD9F800000DF093FBDAF808000DF08FFBDBF804000DF018
:201E90008BFB8E4800680DF087FB8D4908680DF083FB8C4800680DF07FFB8B4908682FE028
:201EB00074480078302148430DF06EFB884A106070BB30680DF070FB38680DF06DFB2068A2
:201ED0000DF06AFBD9F800000DF066FBDAF808000DF062FBDBF804000DF05EFB77480068D9
:201EF0000DF05AFB764908680DF056FB754800680DF052FB744908680DF04EFB73480068FE
:201F10000DF04AFB00200CF0FFFE4FF4804192E03168012008713068057331684D733068AC
:201F300085733168CD7330680574002031684D743268D072A0223168487103213068C28047
:201F500001720720316848720020326890722821306841820121C1760020316848773268B9
:201F700082F85E00012031680877326882F85D00396808713868057339684D7338688573A4
:201F90003968CD7338680574002039684D743A68D072396848713A6890724FF4207039685F
:201FB0000022C88008818A7401213A68D17421680D732268557321688D732268D5732168D8
:201FD0000D740021226855742368D9720121226811710021236859712168C8800881002008
:201FF00088722168887405202268D0743948016888472A490A6805461068804727490A6855
:2020100052F8043F0020984718481D4BC16818780A88314902430A80284630490A68904798
:202030000C212F480DF062FF0F480DF05BFF0DF055FF4FF4005198F80000BDE8F44F06F08D
:20205000B7BA00BF6E4F0020044F0020604E0020084F0020B63F00502C4E0020E812005082
:202070003C4E00200C4F0020344E00201C2C01006D4F00207B4F00206B4F0020724F0020BF
:202090006C4F0020F04E0020F44E00207C4B002099F50000F84E0020A9F50000FC4E0020B2
:2020B00058210020104F0020144F0020184F00201C4F0020C82D0020684E0020004F002009
:2020D000804E0020844E0020884E00208C4E0020904E0020EC1B0020544F0020F01B00200D
:2020F000F84D00202DE9F04F4FF000084046ADF11C0D059004900390C54E02904FF0010BD6
:2021100001904FF00209009096E1401E00F09080401E13D0401E06D0401E40F08D8108F066
:2021300007FD70B107E008F003FD002808BF86F8DB9000F081810AF011FA7DE196F8DE00F2
:2021500010B986F8DBB077E130794446C0F3411000F1010A574696F8D9506000C4B270195F
:2021700042788078802A00F07F0103DBFF2A18BF41F08001C511FF2A4FF0FF0010D0914203
:2021900005DA96F8DA30D21A914211DC04E096F8DA30D21891420BDBD0B2FEF715FF07E07B
:2021B00096F8DA20914203DD891AC8B20DF04CF9FF281ED196F8D900801CC5B20CF034FDB8
:2021D000A84214DD86F8D95086F8DAB0A91948788A78FF2802F07F034FEAE21502D0FEF74F
:2021F000F3FE02E018460DF02FF95DB107E0FF2008E096F8DA10491C86F8DA1015B1C0F1C1
:202210000100C0B200197F1EC4B2A4D196F8DD002418E0B209F058F80AF0C4F90AF09EF9D0
:20223000032196F8DE0086F8DB10A0EB0A00B5E096F8DC000CF034F8062840F2EB80C01F2F
:2022500000F0E080401E012840F2C680801E012840F2A780801E1ED0401E00F08680401EC1
:202270005FD0401E40F0E8800CF0DEFC377896F8DC1000EB6100874209DC632586F8DB50FF
:20229000D6F8E400C6F8E0004746C6F8E47096F8DC00401CCEE096F8DC00401C0CF000F811
:2022B0000146A8B1C01E38D0401E03282BD9001F032813D9001F032800F28A8001F003008B
:2022D0000BF0D0FE0146D6F8EC00401A0AF046F94046C6F8EC000AF0ADF9ADE001F0030040
:2022F0000BF0C0FE0146D6F8EC00401A0AF036F9404696F8DC70C6F8EC00B81C86F8DC0059
:202310000CF010FA98E001F003000BF0ABFE0146D6F8EC00401A0AF021F94046C6F8EC00F8
:2023300056E096F8DC00401C0BF0BAFF054696F8DC00801C0BF0B4FF044696F8DC00C01C4E
:202350000BF0AEFF4F46E11000EB041096F8DC3086F8DB7001EB450100F07F0086F8DD10D1
:20237000401C86F8DE00181D64E096F8DC00401C0BF096FF044696F8DC00801C0BF090FFEC
:202390004F46414686F8DD1096F8DC5086F8DB7000EB0410E91C86F8DC10401C86F8DE00FD
:2023B0004AE096F8DC000BF07BFF044696F8DC00401C0BF075FF00EB041000F01F0008F07F
:2023D00083FF0AF0EFF80AF0C9F8042086F8DB0096F8DC00801C2DE096F8DC000BF060FF7B
:2023F000044696F8DC00401C0BF05AFF86F8DD8000EB041086F8DB9000F01F00401C86F8BD
:20241000DE00E5E796F8DC00C6F8EC80401C75E7302B002096F8DC000BF042FF08F054FF4A
:202430000AF0C0F80AF09AF8042096F8DC7086F8DB00781C86F8DC00D6F8E070002F1CBFE1
:20245000C6F8E080B84604D196F8DB0063287FF45CAE404607B0BDE8F08F70472DE9FF4796
:20247000C34C0F460646F80B80F05881B80880F04981607ADFF804A3B90F80F0CB80E07922
:20249000390914D2B80BC0F06A8104F13C000DF065FA061C08D0706830B17568F068B6F982
:2024B000241000222023A84727F4005757E1012800F0AB80E06870300DF03AFA68460BF0D4
:2024D0004EF920B1009904F198000DF06DF800254FF00108E570A74884F805800DF0F2F8B3
:2024F000A5492A4604F160000DF02CFA50460068006B80476061A2782169A369012AA0EB9F
:20251000010018444FEA1030A06105D163781BB9E169B0EBC12F3AD9DFF8649284F802809C
:20253000A9F1150000686570000A30D340F60900A08494F8310000F0F00040F0010084F8E5
:20255000310094F8300000F0F00084F83000A5620DF0F2F94B4603F6FF7211686FF0020C22
:2025700021F00201116004F12401C3F8FBCF854AC3F8EB1F11688908FCD3C3F8FBCFD3F86A
:20259000FF1F41F00201C3F8FF1F0DF0A3FC7E4A10687E4920F00200256140F400701060B1
:2025B000032341F8043C41F230038B604046086050238B6008604FF4CA638B600860237809
:2025D00041F80C0C15601BB9E06838300DF0CAF902200BF0AFF9112006F006F9307C10B981
:2025F0000E2006F001F9207A18B1257205200BF0A1F9674965710878A57140B10D7004F17A
:20261000BC0004210DF0B6F901E00020E07127F00807A4E020B104200BF08CF900206072BA
:20263000B168088840F602084FF0000980450AD0B0F5C15F07D00A8B4FF61F60104040F441
:202650003470088306E00A8A4FF61F60104040F4347008822069F0B1DAF85400016804206E
:202670008847C0B1DAF800002569006B8047F168401B728AF060000BF06080188842F0606B
:2026900002D209184808F06040F6C41181422CBFB0F5FA7FF16094F8310010F00F0F0CD1B5
:2026B000718C08F10700884207D1B56930466FF480714A464FF00073A847364904F160007E
:2026D0004A460DF03FF9607860B10220ADF8040001A80BF07BFEBDF80C0084F80190401135
:2026F000A4F860010120E07084F8049009F0DAFA7569494630464FF080630A46A84727F024
:2027100000572CE004F0B0FD04F144000DF026F927F0020708B147F0020720E00DF00CF935
:20273000014604F140000DF019F9061C12D0356AA8080FD225EA0500306208460DF0CAFB14
:20275000706850B12A46F068B6F9241075680023A84702E008460DF0BDFB27F4804727B157
:2027700004F1BC0039460DF005F90090BDE8FF870022002041780000C5E700008C0100101F
:202790001500044010100440000004600C410440FD2D0020755C00002DE9F04F09AFADF1B1
:2027B0003C0D08900A92388809911E46ADF81800101C08BF002000F08481002700F10109E7
:2027D0004FF0FF3A4FF0010BB8466CE1252940F063811078521C0A922D2818BFADF8068090
:2027F00005D15846551CADF8060010780A9530281CBF4246434605D10A9908785A465B4694
:20281000491C0A912A28CDF80080554616D1306804930A99CDF808A0C01C4B1C20F00300FA
:20283000001D306050F8044C0A93002C0878009418D5ADF806B06442009413E044460AE07D
:20285000610001EBC40140180A99A0F1300408780094491C0A91302801DB3A28F0DBCDF85C
:2028700008A004932E282BD10A9908782A2801F101010A9111D13068CDF80880C01C20F000
:202890000300001D306050F8045C002D48BF454608782B46491C0A9111E0454643460AE031
:2028B000690001EBC50140180A99A0F1300508782B46491C0A91302801DB3A28F0DB029345
:2028D0000AB1224604926C2804D04C2818BFADF8048005D10A990878ADF804B0491C0A9101
:2028F0000BA9CDF80C800FAB07916428059300F08B80692800F08880BDF818C0752872D05D
:2029100078286ED06F286AD0702850D063283DD073281ED009980A990128A1F101010A9183
:2029300015D96B490C68B5F1FF3F03D0A84288BF6D1C00D8099D029508A80AA932466B465F
:20295000A047C7190A99039801F1010974E040462AE030680A99C01C20F00300001D3060AB
:2029700050F8040CBCF1000F01F10109014608B955A0014607910CF0DFFC0390B5F1FF3F0D
:202990005BD0A842C4BF281C039056E03068C01C20F00300001D306010F8040C5D468DF80E
:2029B0002C000A990395584601F1010945E0082035680490E81C20F00300001D306050F87C
:2029D000041C082210230FA808F092F9401E0790402101700A99079801F1010929E00823F7
:2029F00002E0102300E00A230A99306801F10109C01C20F00300001D306050F8041CAA427E
:202A1000BCBF2A1C049210E00A99306801F10109C01C20F00300001D306050F8041CAA4238
:202A3000BCBF2A1C04926FF009030FA808F060F90790059D281A0390009C241ABDF80650C9
:202A500000945DB906E008A8202109AA0BF0A9FC009C7F1C641E0094F5D503980546401E37
:202A7000039075B9BDF80600E8B10098401E009019D408A8202109AA0BF093FC00987F1C5D
:202A9000F4E70798411C0791017809AA08A80BF088FC03987F1CE1E708A809AA0BF081FC83
:202AB0007F1C09F101094A460A9812F8011C401C00290A907FF48AAE089808B141460170F3
:202AD00038460FB0BDE8F08F286E756C6C2900C0002C0100BB482DE9F84F0025BA4CB84900
:202AF000056094F8E200002800F06581012800F02F81B64E02283CD0032840F05C8151F871
:202B1000250CD4F8B8100029A0F5C060C4F8D400B8BF49420028B8BF4042814226DA4FF04D
:202B30008057D7F8A4014568B4F8BC0030214FF47F42082300903046A847D7F8A40145688F
:202B5000B4F8C00004214FF4F802122300903046A847D7F8A401B4F8D070456820214FF4DC
:202B700040620A2330460097A847012584F8D8501CE151F8258C0CF0C3FD2F4600B90127A7
:202B90003946934F38680028FCD0B146012609F10409D9F82CA03E6009B10CF0B7FDCAF3A9
:202BB0000720C4F8BC000CF0ABFDAA4600B9B2463B68002BFCD0D9F800B0BAF1000F3E60AE
:202BD00001D00CF0A3FDCBF38440C4F8C0000CF097FDAA4600B9B2463B68002BFCD0D9F8DE
:202BF0001C90BAF1000F3E6001D00CF08FFDC9F38120C4F8D000B8F5C061C4F8B81000F03D
:202C10009C8094F8D80068B9C4F8D410D4F8C000C4F8C800D4F8BC70C4F8C470D4F8D0309F
:202C3000C4F8CC30D4F8D410D4F8BC30002954BF02206FF0010004F1C802176801EB41013A
:202C50004018411000EB917107EBA1001060D4F8C810C4F8C43000291CDD1E293CDDD4F829
:202C7000CC0030B93429B4BF15391E21C4F8C81025E02A29BABFD4F8C8000B381E20C4F8FC
:202C9000C800D4F8C4003F28B4BF401C3F20C4F8C4001FE0D4F8CC00032812D011F10B0FF7
:202CB000C6BFD4F8C8000B30301CC4F8C800D4F8C4000028C4BF401E051CC4F8C45003252E
:202CD00008E011F1150FC6BFD4F8C8001530301CC4F8C800C4F8CC504FF08057D7F8A40146
:202CF000B4F8C43030214FF47F424568374800930823A847D7F8A40104214FF400321123B4
:202D1000456832480096A847B4F8C860D7F8A40104214FF4F802122345682C480096A84772
:202D3000D7F8A40120214FF440620A23B4F8CC60456826480096A84701E084F8D85040F28D
:202D5000FF50404502D8801C40452FD2082030E051F8251C1F4F4BF2F5204843060A3868D6
:202D7000C0F3814001280CD11B480068006880470AF022FA0CF0D0FC3111C010484306EB63
:202D9000E03694F8E50030B91448006820F07F408019460801E084F8E5501148310C0660AB
:202DB000012741600F4D8760287808B90B2000E0052084F8E40003F06DFBBDE8F88FC04679
:202DD0002D400C402C500C40EC19002000A00C4000800C40B43F0050EC01001010200940CC
:202DF0003C600C406D2A01002DE9F04FB64D686885B0019020B905B0BDE8F04F0DF066B8C8
:202E10000178DFF8C882B24EDFF8C892DFF8C8A201291CBF0229042946F2A81741F64C5B64
:202E300005D0402918BF802900F09A8043E10CF0AFFC0028FAD00198007804F065F800900B
:202E5000446814B900200BF05FFF9AF80100002860D001F069FE0CF047FA0290016800985D
:202E700001914F6808F08AF8022827D000990A78012ADBD1994B19680A7A19F8023033709D
:202E900018B90DF01FF85844A0602069C17E01F0EF01C1762069C17E41F08001C176206987
:202EB000C17E01F0F00141F00201C1768C48B96841182069C16101210098A0E00198017831
:202ED000802913D10822874832700178012903D09AF80100012803DD38690121C17213E0BF
:202EF000D8F828103A690878D0720DE07D49072030700A783869012A02D10123C37203E07E
:202F1000D8F828104A78C2720298817901988AF80210CBE00098002888D00199009A007873
:202F3000914205D101281CBF00200BF0EDFE15E0012840F0C080694801680A7A19F802008F
:202F500030700CF0BFFF3918A0680CF0B7FF18B90CF0B8FF5844A0600120A8700098A5E086
:202F70009AF8010000287DD001F0DEFD0CF0BCF904462068029047689AF802000CF0B4F96C
:202F900003900CF00BFC10F0070F3DD0A87803F0BBFF0190416801980091029907F0EEFFB8
:202FB000022831D001990A78012A2AD14B4B19680A7A19F80230337028B90CF083FF8344ED
:202FD0000098C0F808B000990869C17E01F0EF01C17600980069C17E41F08001C1760098B7
:202FF0000069C17E01F0F00141F00201C176009AB9683B4841181069C16101210198A970C6
:2030100054E000200BF080FE0398A04228D002980178802913D108223248327001780129D5
:2030300003D09AF80100012803DD38690121C17213E0D8F828103A690878D0720DE029495C
:20305000072030700A783869012A02D10123C37203E0D8F828104A78C272A0798AF80200A1
:20307000029823E00CF09AFB10F0070F29D0A87803F04AFF04462078D4F80480012820D15B
:2030900016490A68107A19F8001031700CF01AFF3918D8F808000CF011FF20B90CF012FFD3
:2030B0005844C8F808000120A870204605B0BDE8F04F05F0AFBC05B0BDE8F04F00200BF050
:2030D00023BE05B0BDE8F08FC82D00201C2C01006F4F0020289A0110684E0020104F0020C2
:2030F000F0D8FFFF734F00202DE9FC4114468846A0F201330246B54EB749B64800271A2B22
:203110001CD8DFE813F054014F0148011B001E011701F900E300DA00D100C700BC00B200E5
:203130001B001B00A700980089007F0070001B001B001B001B0053001B002600282A06DA60
:20315000B8F1020F03D1A04923881046ECE0022737E1B8F1010F40F02D81F078012800F0C2
:203170001881324620781179107181B9002800F028815078012800F0F880042800F0F580A6
:20319000062800F0F280052800F0EF8019E12078002840F016815078032800F0F1800728FF
:2031B00000F0EE80052840F00C81E9E0B8F1010F40F000812078012840F0FC8006F1EC0034
:2031D0000CF0AAF968B93446384604F13A0107F01BF8071C40F0F58004F1C8000CF0D0FBA1
:2031F000EFE01627EDE0B8F1020F40F0E38021880A29C0F2DF80B1F5486F00F3DB80801C65
:20321000064616E0B8F1020F40F0D4802188B1F5FA7F80F2CF80F3E7B8F1020F40F0CA8087
:2032300021880629C0F2C680B1F5486F00F3C2803E363180C5E0B8F1020F40F0BB80218884
:203250000629C0F2B780B1F5486F00F3B38006F13C00D5E7B8F1010F40F0AC8020780628F9
:2032700080F2A8800C310E4612E0B8F1010F40F0A1802078042880F29D800A3608E0B8F1F3
:20329000010F40F097802078082880F293800936307096E0B8F1060F40F08C80A6880846AF
:2032B0008680216801608CE0B8F1010F40F08280207804287EDA083606E0B8F1010F79D174
:2032D0002078042876DCF61D3146CCE7B8F1200F70DA06F1830539461F22284607F058FA73
:2032F00021464246284606F081F844463078B4710AF08CFE3B4614E0B8F1200F5ADA06F19F
:20331000640539461F22284607F042FA21464246284606F06BF84446307874710AF076FE98
:20333000012300942D4901950246102002F020FFC7B246E0B8F1020F3CD1218806F10E001C
:203350005EE7B8F1010F35D13079012821D032462078D178D07061B9002832D050780128C8
:2033700003D0042818BF05282BD101200CF004F927E0207828BB5078022818BF052820D1BB
:2033900010780AF043FE12490246102002F0F0FE17E0122715E0B8F1040F0BD120681C3610
:2033B00030600EE0B8F1100F04D1143005E0B8F1100F01D0182704E0001D2146102206F051
:2033D00015F83846BDE8FC81BD840110B00D002099450110F00D0020DE0D0020094501108B
:2033F0002DE9F04F0C46E00789B00BD50CF0A4F828B100218160A448006800B1804784F063
:2034100001003EE1A00710D5002006900021049000230290009005910393019101223C2003
:203430000CF048FD84F002002BE11D256007974E974F40F18A8000200790834695498878AC
:20345000FF2804BF00200BF05FFC386890F8A0000BF04AFF80463868C07A98F826910228DF
:2034700018BF032808F5907A06D106F10D000CF01DFD08B906F1070B514648460CF012FD48
:2034900088B33868807A002818BF012804D1314650460CF003FD04E05246494630460CF0C4
:2034B000F9FCFF2834D005FB00F906EB090506225146E81D0BF0B8FD16F8090040F002091E
:2034D000E81D079006223868817E01F0010188F8261105F1010A386800F1140108F590702B
:2034F0000BF0A2FD14E0514648460CF0CFFC78B15246494630460CF0CDFCFF2808D006F1C1
:203510000D01454348190CF0D1FC08B149F0020908F12C004B4601780691418909090591A6
:20353000B8F82220079904920122C088029140080390CDF804B0CDF800A0002098F80610D6
:203550000CF0B8FC84F004009BE0200610D5002006900021049000230290009005910393D1
:20357000019101223B200CF0A5FC84F0800088E0E0043BD5F11D06F10D000CF083FC386811
:203590004179012923D1017A012918BF04291ED1C17A022918BF032919D1817E00F1140252
:2035B00030460CF077FCFF2811D04543354405F10D000CF07BFC50B9E91D05F10D000CF089
:2035D00061FC38680622E91D14300BF02DFD324932484A6800784FF4805109F0C5FA10B19B
:2035F0008E2006F09BFF84F480504AE0A00505D50CF086F82A4901200860FEE7610504D5F2
:20361000FEF72BFF84F480603BE0600405D5812006F084FF84F4804033E0A00430D5214D4E
:20363000286810B100200BF06FFB4FF0FF3028600CF024FC1C4D296851F8202F684690477B
:203650001A48016A426A2D68009101921849029100F128014A6809781368C06903938DF828
:203670001010ADF812006B462E68124A12491348B0471349086002F0D5FF84F4005000E0E1
:20369000002009B0BDE8F08F204F0020AC450020104F0020684E0020784E00206E4F002065
:2036B000FC002043044F0020F04E0020281F002039F500002C4D00206845002088490020DE
:2036D000EC4E00202DE9F04FD0F804A0ADF1140D029080680D4603902868002800F0438134
:2036F0000CF02AF9DAF8881021B10CF0F3FB0320287438E101212974CAF888500CF0EAFB63
:203710009AF8A40038B19AF88D209949DAF89C0011430AF0F5F86F680CF00EF904469AF8FA
:20373000D80078B917F0704F06D12FB104200AF063FA06200AF060FA02200AF05DFA01206A
:203750008AF8D80020460CF0C5FB0398D0F80090D9F8040040F00200C9F804009AF800701C
:20377000002F01976AD1DDF80CC02868DCF81C10814264D9AE6864460EB90AF1A6066F6801
:203790002FB9E0890AF1A607AAF8A6002868DAF8141009292CBF4FF002094FF001095FEA59
:2037B000000823D0DAF8140009280BD3206839880CF053F8206869460BF0B4FFBDF80000DF
:2037D00030800AE0206839780CF047F8206869460BF0A8FF9DF800003070AB6803B14E4464
:2037F0006B6803B14F44B8F10108DBD120460168486820F0020048606F680CF09DF8044656
:203810009AF8D80078B117F0704F06D12FB106200AF090F804200AF08DF802200AF08AF89F
:2038300000208AF8D80020460CF054FBDAF8881000200874CAF88800012095E02868DDF802
:2038500008C0DCF80840DCF80460276896F88C1082B2B7F1804F02FA01F21FFA82FB14BF80
:20387000444F454FAA68DFF814C152B996F88C104FEA8108614601EB0802936906F1A60224
:2038900009E096F88C104FEA8108614601EB08031B695A44521EBB607A60216808313960C3
:2038B000BA68000143F6F07E10380EEA00000243BA602368B3F1804F14BF314A314A6F68F1
:2038D000C7B9E0890CEB0807A6F8A600B86906F1A6039060039913609AF800702368D1F88F
:2038F000009001972F6803F10801754638011038284007E00CEB0805AD6895600BEB070561
:203910006D1E15605160916808439060D6F8A07020696169014378680068019D8162586AB2
:2039300040F003005862D9F81400002D40F00100C9F8140080D1DAF804100AF16C0004468A
:203950000BF03EFD00283FF477AFDAF88800017C012904BF03210174029804F03DF9204619
:2039700000210BF02DFD002005B0BDE8F08FC046000006800005002030040020C427010007
:2039900010050020400400202DE9F04F8246DAF800600C465FEA0208ADF11C0D14BF0021CF
:2039B0004FF0FF3106F1480083460BF009FD002818BF0B2040F00D8100258848F460B8F1A5
:2039D000010F057007D0657002200AF015F906200AF012F901E0012060702078012840F28C
:2039F000AB80801E012868D9801E012833D9801E012800F2DF800BF09FFF06904FF080505B
:203A100000F5EE77D0F8DC01A378466A009321782846062908BF0120019001200290A068CF
:203A3000228AE1686368B047814606980CF052FAB9F1000F40F0C080B8F1000F02D00BF064
:203A5000C3FA02E050460AF09CFA002800F0A4803868806A2AE00BF06FFF06904FF08050B3
:203A700000F5EE77D0F8DC01012306680093A168A27860682478AC46042C08BF9C46634617
:203A9000B047814606980CF025FAB9F1000F40F09380B8F1000F02D00BF096FA02E0504616
:203AB0000AF06FFA002877D03868406880474A49C1F8B0510D6081467EE00BF03DFF069069
:203AD0004FF0805000F5EE76D0F8DC01E38A87690093E0680190208B0290A0780390207D7B
:203AF00004900121059122782846022A08BF081CE1786268A368B847814606980CF0EAF9DA
:203B1000B9F1000F58D1B8F1000F02D00BF05CFA02E050460AF035FA00283DD03068006A00
:203B300080475FEA000947D13068C569A168E28A2369E078A847BEE70BF0FEFE06904FF0C5
:203B5000805000F5EE76D0F8DC01E38AC7680093E0680190208B0290A0780390207D29468B
:203B7000049001200590257805B9014608466268A368E178B847814606980CF0ABF9B9F11F
:203B9000000F19D1B8F1000F02D00BF01DFA02E050460AF0F6F908B914201AE030684069EF
:203BB00080475FEA000907D1306802692169E078904780E74FF0FF39B8F1010F05D00220BA
:203BD00009F0B8FE062009F0B5FE58460BF0CAFE484607B0BDE8F08F50450240042E002061
:203BF0002DE9FE4F05467F48002400680094C0090ED37D48007858B97D497C4851F8112C18
:203C1000104040F0817041F8110C202008F08AFF012D40F0E280DFF80892D9F8DC00012805
:203C300040F0D8800220C9F8DC000AF087FE012008F078FF5FEA000805D00120C9F8DC003A
:203C50000AF08CFECBE00BF091FEA34602906948694DC0F800B0A86A0168012088470128BD
:203C700004D1584607F0C0F9012000906348644FC0F800B0386811200BF066FD00B1012495
:203C900010200BF061FD08B144F002040F200BF05BFD08B144F004040B200BF055FD20B1D8
:203CB0002868584E016B308888470A200BF04CFD20B12868544E016B3088884753480126A5
:203CD00006602868816944F020008847504806600BF034FD00F001010191400814D2286A63
:203CF00081684C4888478246BAF1040FF7D0BAF1010F04D1286A4268464803219047464937
:203D1000086820F003000860584601F017F82B683868986B8047019801280CD0BAF1010FB4
:203D300004D1286A42683B48314690473A49086840F0030008603148066028684169204684
:203D500088470B200BF000FD20B128682D4BC16A188888470A200BF0F7FC20B128682A4B00
:203D7000C16A18888847294806600322C9F8DC20274BC3F800B02868416B20468847012869
:203D9000F9D13868042008F0CDFE0446194806603868144800688009FBD30098012802D162
:203DB000304607F021F90BF0B1FC082008F0BAFE07460298C9F8DC600CF05CF817480088D1
:203DD00006F0EEFE0AF0CAFD57EA040018BF4FF0FF3804E06FF0040801E06FF00108404680
:203DF000BDE8FE8F14100940D41A0020FFFFFCFC150009400C400940B801001000022243ED
:203E10002C2009400A2601000626010028200860800104430040034024220840682A010083
:203E3000EC1900202DE9FC470F467B4E0168F16241688068F0607948B16080477848F16A85
:203E50000160B168002F4160F168DFF8F4A181607449DFF8E891C16062D03D68E8788DF878
:203E7000040028798DF8050001A80BF0FFFFA86808B16D490160E86808B16C4901606C4CAA
:203E90002878207068786070A878BB68A0701978E1705A6862609968A16029697B68E161C0
:203EB0001868E06068692062A8696062287F84F828002A6AE262786883681BB900200AF030
:203ED00023FF00E063617868C06818B900200AF01BFF00E0A0617868406818B900200AF0AB
:203EF00013FF00E020612869E061F86881680D6805B9514D4F494FF001084D60C56881F820
:203F1000018025B900200AF0FFFEF86801E049460D6000685446FB68A0615868E06105E092
:203F300000200AF0F1FE4FF0010854464D46286844494768621C04F114035020B84710B16D
:203F5000286880688047B068804700278246DFF8FC903D48C9F808702B6820619869A76007
:203F70008047C9F804003A4880F80080478012200BF00AFBFF211222A0620BF007FDE01CE1
:203F9000FF2102220BF002FD12200BF0FDFA314908600868122239460BF0F8FC3846FDF749
:203FB000C1FD404609F080F92B480188FF2906D1022101807822001D39460BF0E7FC032065
:203FD0000BF050FF04200BF049FF05200BF042FF06200BF03BFF072007F0A2FC2B681F49AD
:203FF00008200DF106025D6808706B4610203946A847A06AE269092709309DF8061000F896
:20401000011BF1687F1EF8D1921E5046E261884701F06AFCBDE8FC87E41B00204149001025
:20403000F8440020B0160100A9E10000A9EF0000281F0020402100206FAD0000E421002002
:20405000E81F00200DE8000009F00000BC2D0020D8210020F42D0020041D0020052E002044
:2040700010B50B7884074CBF43F0020303F0FD0304064CBF43F0800303F07F0304074CBFD1
:2040900043F0080303F0F70384064CBF43F0200303F0DF0310F0AA0F0B7004D0107840F065
:2040B0000C00107010BD18B9117801F0F301117010BD2DE9F8430D461646287802281F46DB
:2040D0004FF0000862D1686801784078089C01EB002189B220001CBFB1F5285F0B205AD1EB
:2040F0004FF42850091A08D0491E1ED0491E2CD0491E22D0491E2ED048E0DDF82490E86883
:204110000BF04AFC214680B2421A4A45ACBF4C46041BA4B26018162804DA3C802246E86850
:2041300001440EE04FF00D0834E0E8680088022139803070000A70702CE006203880062284
:20415000E96830460AF070FF24E001203880E868017831701EE0E868B0B1082139800188BE
:2041700031700188090A71704188B1704188090AF170818831718188090A7171C188B171D6
:20419000C088000AF07105E0398003E0A7F800804FF001084046BDE8F2832DE9F0470F4632
:2041B00082B039780024022970D1804678680A9E0178DFF8E0A09146427801EB022189B283
:2041D0004FF42850091A1D4606D0491E29D0491E4ED0491E39D059E0F8680BF0DDFB80B2C5
:2041F000B04204D3A819162803DB0D244FE007244DE0FB682A46494698190AF015FFAD196A
:20421000F868ADB2C5F11602002140190BF0BEFBDAF8000000281CBF0268002A37D0002142
:2042300023E08EBB022DE0D199F8000099F80110FA6800EB01201080DAF8000000281CBF3C
:204250000268002A23D001210FE0EEB9062DCCD1F868062249460AF0E7FEDAF8000000284F
:204270001CBF0268002A12D00321404690470EE056B9012DB9D199F80000002813BF0128F3
:20429000F9680870802402E00B2400E001242046BDE8F687EC2D00202DE9F047894C6060D8
:2042B000A16003F00DFD0A2009F074FA65684FF0090A08F0A1FD09F0EBFE504609F06AFAD5
:2042D0004FF004092D1F15F8048F6E78AB78EF7840460BF087F8044640460BF083F80BF0E5
:2042F00081F8444040460BF07DF80BF07BF80BF079F8444030460BF075F8604086EA00046B
:2043100030460BF06FF80BF06DF80BF06BF8444018460BF067F80BF065F8604083EA000452
:2043300018460BF05FF80BF05DF80BF05BF8444038460BF057F80BF055F80BF053F86040A5
:204350007840287040460BF04DF80BF04BF80BF049F8044630460BF045F8444030460BF0D0
:2043700041F80BF03FF8444030460BF03BF80BF039F80BF037F8444018460BF033F860409C
:2043900083EA000418460BF02DF80BF02BF80BF029F8444038460BF025F80BF023F8604014
:2043B00087EA000438460BF01DF80BF01BF80BF019F8604088EA0000687040460BF012F85B
:2043D0000BF010F888EA000440460BF00BF80BF009F80BF007F8444030460BF003F80BF0EF
:2043F00001F80AF0FFFF444018460AF0FBFF444018460AF0F7FF0AF0F5FF444018460AF04A
:20441000F1FF0AF0EFFF0AF0EDFF444038460AF0E9FF604087EA000438460AF0E3FF0AF081
:20443000E1FF0AF0DFFF60407040A87040460AF0D9FF88EA000440460AF0D4FF0AF0D2FF60
:204450000AF0D0FF444030460AF0CCFF0AF0CAFF604086EA000430460AF0C4FF0AF0C2FFFF
:204470000AF0C0FF444018460AF0BCFF0AF0BAFF0AF0B8FF444038460AF0B4FF44403846C7
:204490000AF0B0FF0AF0AEFF444038460AF0AAFF0AF0A8FF0AF0A6FF60404340EB70B9F1AF
:2044B00001097FF410AFBAF1010AA5F10C057FF400AF08F0A1FC09F0EBFD002009F06AF93F
:2044D000BDE8F087A82600207CB5864D144602460026A2F58062182A1AD8DFE812F0F90087
:2044F000F300EC00E400DD00D700D000CB001900C000B900B200A9009C00190019007E0061
:204510006D00660052004A00400037002A00220028287EDA02297CD121880BF093FC0646BA
:20453000DEE0012940F0DB80002C00F0D8801135A3E0102940F0D380002C00F0D080284625
:204550005030102221460AF06FFDC9E0012940F0C680002C00F0C38029468D1D8DE026294F
:2045700040F0BD80002C00F0BA8005F160002622E8E7012940F0B380002C00F0B0806D1D98
:204590007BE0602900D13CB9012940F0A880002C00F0A5800D3570E005F1860021466022A7
:2045B0000AF042FD012068739AE0012940F0978020780BF043FC93E0012940F09080207884
:2045D000022800F38C800C3528702078022814BF301C01200BF02EFC82E007297FD1611C43
:2045F000684606220AF0BAFB20786946324604F04BFF04460A2C0CDA0BF018FC18B920467D
:2046100003F076FF11E02A46012002F12C05285566E0022664E0012961D1A87B217800280D
:20463000A9735DD1207801285AD107F0A9FD57E0012954D12478072C51DB102C4FDC0B356F
:2046500037E001294BD124780A2C48DA093530E0012944D12478022C41DA083529E0002918
:204670003DD10BF0E3FB10B90AF0C4FDDDE701240F351EE0012932D10A35247819E0012969
:204690002DD12478022C2ADAED1D12E0102926D12B4603F1400054E7012920D12478022C4D
:2046B0001DDA2D1D05E0012919D12478042C16DCED1C2C7014E0012911D12478022C0EDA9B
:2046D000AD1CF6E702290AD120881435288007E0012904D12478022CD8BF6D1CE9DD1826B1
:2046F00030467CBDFC1500202DE9F04F044678488E46016894461F46BEF1000FADF1440D42
:204710004AD0BCF1000F47D09EF8002001209040014241D0BCF80000B0F5C15F2FD1DCF854
:204730001400DCF818606B4BDCF81C50DFF8A8A10E904FF003080DF134090F961868109506
:20475000C0F3036B59F8046FB6B10021331F05200A4653F8045FAA4506D0401E01F104014D
:2047700002F10102F5D107E0052A05DA705820F4702040EA0B407050B8F10108E2D1C4F8B6
:2047900004E0C4F808C00BF0D7F8544D8346287820B158460BF09EFB002095E002F08AFABF
:2047B0004F49086840F0020008600AA80AF0ACFE4FF0050905F1BC000AAA4A49CDF8309026
:2047D00008F054FD0AA80AF026FE00264FF0FF0A05F1600019210AAB8DF83060424ACDF897
:2047F0002CA008F0C9FC0AA80AF08EFE05F1F0000AAA3E49CDF8309008F038FD0AA80AF069
:204810000AFE4FF00108CDF82CA005F17C001A210AAB374A8DF8308008F0AEFC35493246F7
:2048300005F19800134607F051FE33480AF04AFF324A3346042105F14C0009F0EFFD4FF6F7
:20485000FF70A5F86001AE702E716E71AE71EE712E726E722E61C5F81C902B7885F80180A8
:20487000581C287058460BF035FB1FB903AF38460AF008FD386820607868E060387C84F8DC
:2048900011802074788A60821D4DA5616561F86800B1A061B86800B160613146782204F11F
:2048B000200005F075FF04F13800314609F048FC68460BF00FF81349029404F170003246FF
:2048D0006B4607F003FE204611B0BDE8F08FC046D4210840541300500200F844002200205A
:2048F0000020094099F00000C5E70000498E0000A1A2000059F500004178000015C3000011
:204910005F93000015F90000F0B57348734A0078734C744B74490D2883B03CD8DFE800F084
:20493000DB07070707D3D358D39292B0B0B7146041F204456D494C88AC421FBF4E8BAE4255
:204950004E8EAE4203D11D806948106072E0022C684D1C804FF4A05635D94FF48067E41BA8
:204970001AD0241F012C1DD94FF47F77E41B1BD04FF44067E41B0FD0A41E012C0CD9241FD5
:204990000AD0641E012C0DD940F2F937E41B012C19D9241F08D096E0022814BF1E80564D49
:2049B000156047E0554DFBE7554803681C7A012C05D141F20240488048834886F0E74E80AB
:2049D0004E834E86ECE700200AF09EF983207EE04C488178FF2952D0182041434A48146004
:2049F00040F204450068841C645A1C80641B012C464B70D94FF47F75641B0FD04FF44065C7
:204A1000641B032C84BF641F012C0BD9A41E012C61D940F2FD35641B06D103E0801C41F26C
:204A300001444452136005E000200AF06DF985200BF0F8F903B0BDE8F04035480078012183
:204A500003F0B6BD40F204424888188090421CBF41F2084290423ED041F60402904211D105
:204A70002C4C2D4A25682D4800680023CDE9002355F8086F2A4B0222B0472A490880F7BDCE
:204A90004888188000200AF03FF985201FE04888188002280DD940F20442801A1BD040F6FD
:204AB000FC72801A05D0083815D04FF47F72801AE8D1887B801CC0B2B528A8BF6620887387
:204AD00000204880F7BD00200AF01EF98420BDE8FE400BF0A7B9F7BD6F4F0020204F0020F6
:204AF0000FF90000504F0020CC4C0020204A002059550110615A0110B1540110755B01109B
:204B1000104F0020684E0020804E0020313901106E4F0020F04E002002000080EC4E0020B0
:204B3000ADD90000424F00202DE9FE4FDFF8FC8198F8011011B900200AF0E6F80BF0C2F95E
:204B50000546002405F6C4150027794EDFF8E4910EE038460AF0C8FB417939B13168827967
:204B70000A552946641C0BF059F9E4B27F1CFFB299F800008742ECDB98F80100844205D05B
:204B900000200AF0C1F882200BF04CF998F80100012840F0A980002701E07F1CFFB299F858
:204BB0000000874280F29A8038460AF09DFB054668790028F1D03068A979027891421CBF89
:204BD00000200AF0A1F8A87986E0306810F809000AF08AFB00684268DAF8081090688142AC
:204BF00004BF3D4609F1010900F08D808FE03068047801210FE0D8F80420435C02F5AD7221
:204C100009FB03F509FB04FE555B32F80E20954238BF1C46491CFFB2B942ECDB4FF6FF70BE
:204C30000BF0F8F8834620460AF05EFB40F6C41500684168CDF800A000204FEA5B076F4305
:204C500082460291CDF804B016E020460AF04CFB01680A78802A04BFDBF810305F61097827
:204C7000402907D1344A8079136803EB401107F5A062CA610AF1010A0098824554DA30685E
:204C900010F80A008442F5D0D8F8043009FB00F2991803F5AD73C9899A5A4B08934203D261
:204CB000009B891A8B42E5DA0AF01EFB0068D0F804B0029A0198DBF80810936800EBD070DD
:204CD0004010A1F6C41105FB00300BF0F7F80028BBD0306810F80A00BDE8FE8F00200AF045
:204CF00013F882200BF09EF898F8011030680BF08DF8306800780AF0F7FA00250168D1F85B
:204D100004A04FF001096F1CA145FFF65EAFEDB2002D1CBFF8B20028A2464FF4C0797FF4D3
:204D300066AF3068047879E72046D5E7684E0020004F00207B4F0020844E00202DE9F84F3A
:204D5000DFF8F4B10746ABF13500DFF8E0910068800880F0D98071480068006880477A4995
:204D70000831D1F8008000254FEA28725FEA985102F101020AD2C0F13E0110F10A0F4FEA62
:204D9000E101D8BF08218A42B8BF0A1C644BD3F87C11C1F304611629A8BF20391B68C3F3A0
:204DB0000443162BA8BF203B9A465118162905DA11F10A0FB8BF6FF0090100E01521594B7D
:204DD000594E01F01F0242F4F8521A80326812F0030F18BF0125D20828BF45F002050FB188
:204DF00045F004054A4692F90730C31A052B04DA9379AB4208BF918866D0DFF834E10F28F6
:204E1000A0F10F0C25DB0CEB0013A3F1F00C4FEA2C26072E88BF07263446062C88BF0624EB
:204E30005EF82470042303EB84037446E358DB1B03F0FF04EF0824BFC3F307273C44AF0806
:204E500024BFC3F307473C446F0828BF04EB136401E0002426465EF826E0EF080EF0FF0353
:204E700024BFCEF307273B44AF0824BFCEF307473B446F0828BF03EB1E63A4B2ACEB0626C3
:204E9000AAEB01017443002904F1800403EB1423D8BF0121342408F0FF074C43A1B2794340
:204EB000B1FBF3F14FF6FF738B4238BF191C802889B2918005DA10F1800FB8BF6FF07F00EA
:204ED00000E07F20D07195711A4800681F2910604FF0000008D340F2FF128A4206D2490828
:204EF000401C8A42FBD301E01F219180134F0F39090940EAC10047EA0001CBF8FB1F00269E
:204F1000CBF8FF6FBDE8F88F0D490E4F4A4608200F60921D1070BDE8F88FC046EC010010EC
:204F30003C1100506E62084024220840E42D00209C130050082009403500094000E7A480F4
:204F500030100940FDFDA400AC3F00502DE9FE4F0E468246307AC10693461C464FF000096C
:204F70000CD558460AF04EFF030000F0EA800A223146504698475FEA00094DD13078DDF8F9
:204F900038800D9D0C9F02281AD170680178407801EB002189B24FF42052891A012910D923
:204FB000891E3AD0491E14D0FD397BD0491E00F08280491E6ED0491E74D0491E00F097804D
:204FD000ADE0002D2AD1F068017839800278416889E0002D22D101203880F068017821709B
:204FF00000217089401C80B20AF008FF398860B10278921C51183980418961704189090A64
:20501000A17002784168E01C6EE0091D398004220021601C0AF0BAFC95E0002D68D1F0687D
:205030000588042139802570290A617028460DF102010AF0E3FE5FEA000821D0D8F80C50A4
:20505000BDF802204FF6FF766B4631460AF0D2FE50B998F80030D8F804203C4802210AF05F
:20507000C5FE08B9ADF80060287802280AD169680222201D09F0D8FF3888801C388001E0FB
:20509000ADF80050BDF80000A070BDF80000000AE07058E0002D2BD1F068016850460AF085
:2050B000B2F902E025BBF0680088022139802070000A607047E0F0680AF06EFC80B22946C9
:2050D0008842B8BF4FF007093DDB814208BF002206D008EB01028242B2BF4246451BAAB227
:2050F0003A80F0680144204609F09EFF2BE015B14FF00B0927E0F0680721398001782170DF
:20511000417861704188A1704188090AE17001792171C1886171C088000AA07113E05846D3
:205130000AF060FE5FEA00090BD00F980290CDF8048000953B46224631465046C8478146F7
:2051500001E04FF00E094846BDE8FE8F3C280100F8B57E4F04463868C16E0025002940F0D2
:20517000F18010200AF010FA39680028C86600F0E7808E6E1022214609F056FF3968087828
:20519000002840F08E80CA6ED6F8980012F80CCF00F001030CF0010C634518BF002340082F
:2051B00043EA4000C6F89800C0F34003D2F800C0CCF3400C634506BF430803F001030023BF
:2051D00020F0020040EA4300C6F89800C0F38003D2F800C0CCF3800C634506BF830803F0F4
:2051F0000103002320F0040040EA8300C6F89800C0F3C003D2F800C0CCF3C00C634506BF69
:20521000C30803F00103002320F0080040EAC300C6F89800C0F30023D2F800C0CCF3002CF3
:20523000634506BF030A03F00103002320F4807040EA0320C6F89800C0F34023D2F800C083
:20525000CCF3402C634506BF430A03F00103002320F4007040EA4320C6F89800C0F3802382
:20527000D2F800C0CCF3802C634506BF830A03F00103002320F4806040EA8320C6F89800FE
:20529000C0F3C0231268C2F3C022934206BFC20A02F00102002220F4006040EAC220C6F89C
:2052B00098008A6E92F89500030718D5C86E4368C3F3C00098B1C87840F00800C870D6F81A
:2052D000981023480140C6F898103868C06EC16821F48071C16049084900C16003E092F8BE
:2052F000330001282AD0607800281CBF7178002908D13968CA78130708D5002804BF7078D5
:20531000002803D03A68052111711CE06068C0F3800040B996F8950010F0040002D101202D
:20533000087110E00AD00878002819BF30782178317820780AF052FD054604E0182502E081
:20535000132500E011252846F2BD00BF304F0020FEFEFFFF2DE9F0411C4615468C4208BFE1
:20537000854282BF00230022E5E0002C08BF002D0AD100290EBF00286FF000006FF0000133
:2053900000F0E1F8BDE8F0815FF000085FF0000E002C08BF8D429CBF2C1C0025070C47EA9C
:2053B00001470E0CB44208BFBD429EBF5FEA044444EA15445FEA0545070A47EA01670E0AF5
:2053D000B44208BFBD429EBF5FEA042444EA15645FEA0525470847EAC1774E08B44208BF4E
:2053F000BD4200F29380870847EA81778E08B44208BFBD427CD8C70847EA4177CE08B442B7
:2054100008BFBD4266D8070947EA01770E09B44208BFBD4250D8470947EAC1674E09B442CE
:2054300008BFBD423AD8870947EA81678E09B44208BFBD4224D8C70947EA4167CE09B44216
:2054500008BFBD420DD8E60146EA5566EF01B14208BFB84201D3C01BB14158EB08085EEBDE
:205470000E0EA60146EA95664FEA8517B14208BFB84201D3C01BB14158EB08084EEB0E0E5C
:20549000660146EAD5666F01B14208BFB84201D3C01BB14158EB08084EEB0E0E260146EA66
:2054B00015762F01B14208BFB84201D3C01BB14158EB08085EEB0E0EE60046EA5576EF0044
:2054D000B14208BFB84201D3C01BB14158EB08084EEB0E0EA60046EA9576AF00B14208BF75
:2054F000B84201D3C01BB14158EB08084EEB0E0E660046EAD5766F00B14208BFB84201D381
:20551000C01BB14158EB08085EEB0E0EA14208BFA84201D3401BA14158EB08085EEB0E0E99
:20553000A34208BFAA423EBF2D0A45EA0465240A89D3734642461E4617460B46024631465B
:205550003846BDE8F08170472DE9F04F6C4CE2680746880FADF1140DC0F0CF805068406897
:2055700008B18047E2685168664E886808B9CD6875B13568002DFCD00022326010B1804706
:20559000E0684168C86800B180475F4808F01EFF4FF00008C6F800805C4846F81C0C5C4873
:2055B0000AF090F840F60A09A4F82490A378A4F82680BD6894F83000C34604F1240A00F066
:2055D000F00084F83000012BC4F828B094F83100A5F8028000F0F00040F0010084F83100C5
:2055F00001D17B7CABB1B8680088A9F10801814208D0B0F5C15F05D0298B4FF60F40084066
:20561000288304E0298A4FF60F400840288287F811804048016883680193C368406B0091CB
:205630001022694620F0784040F0805003903A48029303F0DBFE494600E01D466B6813B1D2
:2056500018888142F9D1C5F804A0687B00F0F000687304F138000AF081F980680088A9F163
:205670000701814220D0491C81421DD03B8CEBB197F82C0097F82D30C7F824B000F0F000CD
:2056900087F82C0003F0F00040F0010087F82D0007F12002A2629AF80D00A7F8228000F0A1
:2056B000F0008AF80D0001E0C4F8108030680028FCD0C6F80080B968237A0A8A4FF6FF309E
:2056D0001040088283B91548006801680120884701280FD0687B00F0F00040F001006873AF
:2056F0000F4809F0EFFF05E007F0E6FB0028FBD00AF032F9B86846F81C0C05B0BDE8F08F28
:20571000002200201C1004400100070601010E046D2400004C13005018000021E00100103B
:2057300049B6000066480178002900D170472DE9F043491E032985B004D9891F012940F290
:20575000BC80B4E05F4CDFF880912168DFF87C8108685F4E00F10805062205F1080102A88D
:2057700009F062FC0622A91C684609F05DFC2878C1091D2700F00F02032AC0F3801537D1A9
:205790006079C0F3800081421ED12169062202A809F054F900280AD0694628460AF082FB03
:2057B000002804D0314668460AF078FBFF2879D04743D8F80000807AF519002818BF022850
:2057D0000AD0012818BF03286CD1F25D691C48460AF000FB102865D06B46EA1D29464846FE
:2057F0000AF0F4FA06226946E81D09F01DFC59E000F00F00052860D16079C0F3800081425E
:2058100050D12169062202A809F018F9002849D0694628460AF046FB002843D031466846F8
:205830000AF03CFBFF283DD04743D8F80000807AF519002818BF01280AD0022818BF032863
:2058500030D1F25D691C48460AF0C4FA102829D040F202400AF0B6FA6B46EA1D2946484619
:205870000AF0B4FA06226946E81D09F0DDFBD8F80010F05D88760622D8F80000691C1430D7
:2058900009F0D2FB1348144A41F20441418041834186124801801249124808600121107813
:2058B00002F086FE21680A680020107105E0002009F02AFA86200AF0B5FA05B0BDE8F08388
:2058D0006F4F0020F44B0020CC470020104F0020AC450020204A00206E4F0020504F002092
:2058F000204F0020595501102DE9FE4F674D664C674F2868626A066904F120033946012048
:20591000B04710B1286880688047DFF88881DFF8889108F037FE5FEA000B03D004F00EF862
:205930004FF0FF3B002637E00098216910F8062CA0F10C07032A02D171B388472CE0A06A98
:205950009DF805C009213246401E10F8013F9C4506D0491E02F10102F7D14FF0FF0A01E090
:205970005FFA82FA2868BAF1FF0F00F1080011D0387907F069FEB979012904D0022904BFF2
:205990000099887001E0009908700099504609F075F801E0006880472868C3690DF105010F
:2059B0006A4601A898470028BED0D9F8000030F8167027B9761CF6B2092EF8DB23E0092E0C
:2059D00021DAD8F808008047D9F800107700002231F807A0CA53D8F80C1088472F4850F83C
:2059F000262026705146304690470646FF202070D8F808008047D9F800107A5A16437E525F
:205A1000D8F80C10884708F0BDFD0746BB451AD007B9234FE069B84238BF071CD8F808006B
:205A3000804782462868016A206A8847626A286817491C4B521C6262C6683846B047D8F8AB
:205A50000C1050468847A7682968606914318FB9D9F8000009270026835B33B1096960699B
:205A700088472968D9F8000014317F1E06F10206F2D103E0096988472968143109684FF097
:205A9000FF30884745E7C046E81F0020E421002091D60000E41B0020F42D00202829010061
:205AB0008EC2F528082000202DE9F04FADF1240D079001F0FFF86148007808F0FDFD604DBE
:205AD0000024012808D90A380FD0801E04D0401E0ED0401E09D006E009F016FA022804BFA6
:205AF00001210C1C06D0696805E005211F2401E0032107246960534A1068C0F3815001289C
:205B100006D152F80C0C0127020E07FA02F0044309F0B2FC524AFF230818401E471C2860FC
:205B30007F1E02F8013BFBD1079A1268002702F0FF03FE2B20D0DDF81CC096463B46012632
:205B50000EF0FF02FF2A10D0904205D3914203D806FA02F2144201D002206CE017430EF0F4
:205B7000FF02DFF8FCE00EF802305CF804EF5B1C0EF0FF02FE2AE5D1092002F0A7FF07982E
:205B90000121A86005F1280008F0DAFA05F19806A8464FF0010A4FF0040B0025A9460AFAAF
:205BB00005F0044216D1074204BF05F0FF0141F4C04104D02A480799405D51F82010224816
:205BD00002F062F9E8B24FF0FF3109F049F8C6F8009001E0C6F800B0D8F800006D1C361DDC
:205BF0008542DCD904A809F016FC184C184A2078102104AB059008F10C0007F0BDFA68462E
:205C100009F082FCCDF80C906A4660681149029008F1640007F02AFB0F4951F80D0C20F4F1
:205C3000F85040F4005041F80D0C0C4FC1F8FFAF4846C7F800A009B0BDE8F08F032E002059
:205C5000D8180020B43F0050007FC767742B01008DEC000089CE00000D30094008000940ED
:205C70001C1900202DE9F84F694CE76B09F058F96A4D002F4ED081081BD207F110020CCAB7
:205C9000002102400B4008BF002A43D03A693E6A10403043386207F1180696E80C0027646F
:205CB000194307F11806104386E803004FF480412CE039693E6A07F1180341F002010840B5
:205CD0003043386293E800030022002607F1180340EA080046EA090183E803003E69E26308
:205CF0002B46A3F1100000F108031968B14307F11006196096E8000301684B4699430160CF
:205D1000394604F1440006F071FC022104F1BC0009F030FEAB46002601254FF002094FF097
:205D3000110AA846F0B209F027F8071C30D0B87C01282DD1ABF11400797C0368113105FAC1
:205D500001F223EA02010160797C4268113105FA01F111434160787C08FA00F0C0B209F0B7
:205D700019F8F868002108F06FFA812808BF87F8129081280CD0787C94F862110AFA00F023
:205D9000084384F86201002104F1F00009F0F2FD761C032EC6D3204809F0E0FD0746E06BA9
:205DB000002832D167B3684606F054F830B1009820B1082004F0AAFCBDE8F88F082008F046
:205DD000E9FF14493869A1F10802136807F110061843106096E80C0051F8102C181C104347
:205DF00041F8100C00250D60B86841F81C0C0F68002FFCD0084809F0C3F8E063BDE8F88F46
:205E100004F1BC00494609F0B5FDBDE8F88FC046002200201C100440382200201C100440B9
:205E300060480178042900D870472DE9F84F891F2FD0491E012900F2AA805B4CA078FF28DE
:205E500027D009F051FA82460AF16C06706809F0B5FF0746387903281BD1B868017811F08E
:205E7000030904D17068BDE8F24F09F0A3BF457800F102080AF20F10B9F1030F00900DD01C
:205E900045B1307830B900983D21417001210098017084E0454801780129FAD09AF8940015
:205EB0000AF59A7B58B32D1F4346EAB24946504609F07CFF50B900993D2048700120009938
:205ED0000870BDE8F24F3A4809F06CBF39480168884700904FF4C0709AF8062061684243EC
:205EF0008818002180F83911DBF800109BF80600490805F0B5F9304900980A689047002025
:205F1000B9F1030FB8602ED02C4840690078810708D5C0074CBF03200020EDB2401918F888
:205F3000000000E0812030722549BBF83E000A78904211D3317A802918BF81290FBF7F2154
:205F5000204A1078091A49B200914B46A078EAB2414609F023FF11E0A0784B46EAB24146EC
:205F700009F018FF0AE00F480178082903D04146504609F00BFF404606F036FA706809F0A6
:205F900019FF39465046BDE8F44F09F0FBBE002008F0BAFEBDE8F24F862009F043BFBDE82E
:205FB000F18F00BF6F4F0020684E0020794F0020AC450020EC1B0020F01B00201C2C01004A
:205FD0006B4F0020704F00202DE9F04F674CA068ADF1440D002800F09980DFF888914FF099
:205FF0000A0B4FF0010A4FF000088BE009F0C6FE21785D4BCA0002EB41129A18B2E8E0103C
:2060100007ABA3E8E010E0CAE0C364CA4F1C07F00F0183E8640004F10C05627821708A424A
:2060300008BF84F802A009F055FFBDF82000002808BF2E1C09D00346A62136A2284608F0E9
:2060500031FF284609F078F92E18079FB8B208F035FD40A20CCA01F005FA40A20CCA01F057
:2060700001FA06F0E3FBA91B00902CA23B0CA631304608F017FF284609F05EF92A18A06875
:206090002946521B09F0F8FBBDF82200C0B109F071FEB9F8007037B909990A9F0346009142
:2060B00022A201971CE00C9900910D9F01970E9E02960F9B0393109A04920B9B02460FE05D
:2060D0000B9800900C9F01970D9E02960E9B03930F9A0492CDF81480CDF818800A9B099A7B
:2060F0002846A62108F0DEFE284609F025F92A180D2002F8010B02F801BBA0682946521BF3
:2061100009F0BAFBA07800283FF470AF11B0BDE8F08FC04623253036752000C05B2025643D
:206130002E25303375205D2000C046C07B6576743A20666D743D25702C20617267733D5BF3
:20615000307825782C2030782578202E2E2E5D7D00C046C0000000000000F03E00000000E1
:2061700000408F40FE120000A8110020F01000200FB42DE9F04106AF8046ADF1280D09F0A6
:2061900055FB3E1D26F00306361D30F0010001D108F0CDFFCDF81A601420ADF816000025C8
:2061B000CDF80E50FF248DF818407B68CDF81E3009F0DCFD064609F039FB30F0010015D065
:2061D00008F03CFE4E492A468446062031F80C7F4FB14B681B689E4204D0401E02F1010294
:2061F000F4D100E0D4B2604608F0ACFF404607F039FB0146FF2905D0204603220DF11A0380
:2062100004F0AEFD09F0B2FD07F0DEFC2E460446009609F00BFB30F0010067D00098A04231
:2062300064D041F2883001A907F09EFCDDF80080002853D109F096FD019D01272D186068F4
:20625000019B31464FF00052FAF7BAFE00282CD00DF122000DF1230102AA05F01DFAB8B952
:206270009DF8220003A907F097FC40B9029A09F0B9FA00281CBFDDF80880371C15D10299AC
:20629000684607F0D9FE60684FF0005109F066FD0198B0F1FF3FD2D00028D0D009F062FD84
:2062B000281A02D00199814216D208F0AFFC009E08F0C4FD083401463EB1324652F80C0C2F
:2062D00040B9206842F80C0C2660084608F03AFF384603E00246F1E70190B0E730B9B8F19B
:2062F000000F05D0404609F0FEFA01E008F01FFFDDF81A0000680AB0BDE8F04104B07047EA
:206310002C1C00202DE9F04F8346ADF1140D0393BBF1000F02920E9801910F9C049000F0DC
:20633000AB80081C00F0A880101C00F0A580181C00F0A2800498002800F09E80002C00F071
:20635000A080206A002800F09780514D676A281D0068002F00F09080A16A09F0FBFC40B21C
:20637000002808BF6FF0020700F0828084F82C002078618800EB80004018216A143080B2D7
:2063900088474249086030B92846406809F0DEFC4FF0FF376CE08A466088DAF80050217825
:2063B000237805EB00096088421800EB4106AA18AF1902F1040803EB430283188918EE18C7
:2063D00040182D18204606F0A5F82078C01C8010C9F800002078C01C8010C8F800002078F6
:2063F0000837C01C8010386020780C36C01C8010306020781035C01C80102860227859466A
:2064100009F1040002F0F2FF2278019908F1040002F0ECFF22780299381D02F0E7FF009586
:20643000484641463A46334609F08CFC47B222780398331D194602F0D9FF22780498291D9A
:2064500002F0D4FF22786188DAF8000002EB82025218002104F09CF9616ADAF80000884721
:206470000B48406809F072FCF8B2992808BF002784F82C70384606E01CB16FF0010084F82C
:206490002C006FF0010005B0BDE8F08F884F0020302100202DE9F843614C5A4D5A4EDFF8FB
:2064B00070815E4F94F8E4100846401E0B2864D8DFE800F07B2C430623430623430676643A
:2064D000042907D001220A2945F8212C14BF0220032004E0202045F8210C0120024684F83D
:2064F000E200002045F8390C0827C5F8FF7FC5F8F37F45F8392CBDE8F883052914BF092083
:206510000620002784F8E400376075E094F8E170383D0120002FC5F81B0004BF062000214E
:2065300002D00021F160032084F8E400032045F8010C3160306880085ED294F8E41033483B
:20655000012703290ED00068456800216022052300914046A84794F8E400062814BF0A2078
:206570000720CFE700684568002160220523022000904046A8470420C4E7FEE72548264F91
:206590000026012506600E203D6002F02DF9022007F0D0F984F8E45084F8E360BDE8F883E5
:2065B000002038600C25786024E04FF08059D9F8A0010168202088472C3D0F2045F8010C22
:2065D00041F61D56C5F80360D9F8A401466800214FF4C0720723022540460095B047D9F8F3
:2065F000A401C66800214FF4C07207234046B0470120386084F8E45004F1780009F096F91D
:20661000BDE8F88339400C4038600C40A401001000A00C402C500C4004800C4034600C4088
:20663000EC19002070B5414C414B2568186855F8183F00224FF0FF3198473E483E4A416B0C
:206650003E4C88683E4D41791170002609F076FB3C4809F06FFB09F069FB3B480268002108
:206670005171A02301680722CB804A720321026811720021036859770268D176036883F8E8
:206690005C10012102681177036883F85D100021006880F85E100EE06068F6B24FF4C071D6
:2066B000714308444279012A04D1304608F01CFE09F038FB761C2978F0B28842ECD309F004
:2066D0002DFB2248224A0178117006F00BFE09F021FB2049204A0020087000211170012070
:2066F0001E4A10701E4A11701E4A10701B201E4A11701E4A11701E4A11804FF4A4711D4A0C
:206710001080FB201C4A11801C4A1D49108040F648000880FB211B4A11801B4A108009F065
:20673000F5FA1A490020087070BD00BFF04E0020EC4E00201C2C0100714F0020684E0020BC
:206750007B4F0020CC470020104F00206D4F00207A4F0020734F0020744F0020754F00201F
:20677000764F0020774F0020784F0020794F0020524F0020444F0020464F0020484F00208F
:206790004A4F00204C4F00204E4F00206F4F00202DE9F0470028ADF1200D00F0AA808046BA
