:200000000040002081C5000001C9011001C9011001C9011001C9011001C9011001C9011018
:1C00200001C9011001C9011001C9011001C9011001C9011001C901103FC9011089
:20003C00BE482DE9F04F00F1160400F11A08C17DBC4A98F80000ADF1340DB0F133072AD0A3
:20005C003F1F00F0F68320F00F03502B40F0F783677900F00F0007EB00261778891EC9B2CE
:20007C0077B17F1E15D1002E06BF081C50705078D26833B200FB0320A21D0AF005FA08E03D
:20009C00906831B1A41D14F8013B491E1844FAD190600221D0E3607994F806B00B904046D1
:2000BC000EF01AFEA3799568D06811695B1E3A2B00F2B483DFE813F09F03B801EA02AA0180
:2000DC0096036E036B0357034403850133032A0324031E031C031903D1016B010D03070327
:2000FC00ED023801E7020901E102DD02F500C800D902D602D302CD02CA02A800C502AC020A
:20011C0097028F028C027F027A0277024E024202350232022F022A022002150206020002F6
:20013C00FC014E00F201EA01D401C3013B000EF0EBFB002800F0E1820EF0E6FB002800F050
:20015C008C814FF4C0204FF480210AF051FF0EF07DFD82E1E579A8000FF0C7F80C90A80042
:20017C000FF0C3F806467DB1DDF8309082462F460CF098F801F044FF49F8040B0DF09CFDB7
:20019C004AF8040B7F1EF3D10C200EF08DFE0EF0BFFF28460DF0D8FAA8000EF085FE07466D
:2001BC000DF0D2FA0EF0BAFF824638460EF0B0FF45B1DDF830902F4659F8040B0BF0B4FEA3
:2001DC007F1EF9D150460EF0A3FF28460DF0BCFAA80080B20EF068FE81460DF0B5FA0EF096
:2001FC009DFF074648460EF093FF35B1B14659F8040B0BF0BFFE6D1EF9D138460EF088FF8F
:20021C000C980DF077F83DE1B4F90710B4F80900CF4B0029204400F10700C4F8090009DDD1
:20023C00024618460F46603052F8045B7F1E40F8045BF9D11846402919BF0161002200222B
:20025C0002618160C26058E2B4F80900B4F807702218002F02F10702C4F8092000F04D8201
:20027C00093A09321078D2F80130D2F80510401E13D0401E0FD0401E0AD0401E05D0401E3B
:20029C000CD1186820EA010107E01868414004E01868014301E01868014019607F1EE0D1E0
:2002BC002BE2B4F80D002118B4F80B00C91D0028C4F80D1000F02182D4F8072011F8013BBA
:2002DC00401E02F8013BF9D117E2B4F81100D4F807A0D4F80B70B4F80F502018C01D81464D
:2002FC00C4F811000EF010FB504607FB05F10AF07FFE012814D167B1002605FB06A02946A6
:20031C004A460AF0C1F8012805D17F1E06F10106F3D1002078E0032076E0C04638260020AB
:20033C00022071E0701E0020E01D056847680EF0EBFA0BF0B7FF80200EF0D7FF4FF0000917
:20035C0006468FB12846802132460CF05BFA0023802F34BF381C8020984211D8802F03D31C
:20037C00803F05F18005EDD130460CF0C3FF0DF0A3FCADF8109004A802210EF092FA4DE2CC
:20039C00F15C48460EF080FB5B1C8146E0E70EF0BBFADD480068002808BF002302D0036859
:2003BC004679057906200EF07FFD0EF0B1FE18460BF0E0FD28460EF085FC30460EF082FC82
:2003DC002CE2DE4DB4F80D00B4F80710AF882018C01D8F42C4F80D0015D1B4F80900D4F8FF
:2003FC000D10E27A09F09CFF2946887928B9C8790022083108F0ECFF06E0C8790022083182
:20041C000AF0E4FA00E00420054658E1E07930B1401E40F072814FF40030002201E000200F
:20043C0002464FF4E831E3E1E079A16828B1401E40F063814FF4003022E1002020E160890B
:20045C00E77926892518ED1DC4F80A500EF05CFA2946F2B2384608F06FFB0EF0F7FB4CE1B0
:20047C00E579F8200EF041FF06460EF04DFA3146284607F0DFFE05460EF0E8FB2846314651
:20049C000DF0E0FC30460CF035FFC7E1D4F807500BF008FF28460EF0F5FE06E0D4F807508C
:2004BC000BF000FF284600F0DDF90DF005FC97E002200BF03FFA20E10EF0C8FE00F1B505B7
:2004DC001120BAE0E5790EF0C1FE04F10801112280F8D850B53008F0B3FD28460AF0F2FC66
:2004FC000BE1B4F807100EF0B1FE054608460BF0CFFC28786D1CA0E0B4F80900E179201835
:20051C00C01DC4F809000DF028FFD9E0B4F807000BF0BEFCD4E00EF0D7F8EEE00CF0B6FED9
:20053C00CEE0E07B0090B4F80910B4F80B20B4F80D30B4F807000CF027FDC1E0E11D8888FF
:20055C002218D21D08884A60897802F04FFDB7E080150020B4F8070009A906F033F90346C1
:20057C0007200EF0A1FC0EF0D3FD18460EF0AAFB08200DF0E9F808200EF096FC05460DF0C8
:20059C00E3F80EF0CBFD064628460EF0C1FD082709AD15F8010B0EF095FB7F1EF9D13046BF
:2005BC000EF0B6FD3AE100F015FD19E0D4F8070005F0A8FF32E1B4F80D00B4F80B1022181C
:2005DC00D21DD4F80700C4F80D200BF0C7FB94E00AF0E6FE04E0B4F80700617A0BF016FFC3
:2005FC000EF019FD1AE1B4F809002018C01DB4F80760C4F80900B4F80F002118C91DC4F898
:20061C000F10D4F80950D4F8090003F0C7FD13E0B4F809002018C01DB4F80760C4F8090059
:20063C00B4F80F002118C91DC4F80F10D4F80950D4F8090008F030F9304629460DF002FCEE
:20065C00ECE0D4F807000BF027FF56E00EF050F953E0E11D086849680DF02EF84DE00CF0A3
:20067C0011F94AE007F056FA47E0D4F807000068B6E7E67AD4F80750DEE7E11D086849687D
:20069C000DF0ACFA39E0E11D086849680BF0D2F8C4E0B4F80D00D4F80770B4F80B602518AA
:2006BC00ED1DC4F80D500EF02FF90BF0FBFD2A463146384609F0E8FE05460DF0FDFA2846F1
:2006DC000EF0E2FBAAE0D4F80700E17A0DF070FAA4E0E01D066845680EF016F90BF0E2FD81
:2006FC00304629460AF084FCE6E70EF00DF9E7E7284675E70020107090600EF0CDFB8DE053
:20071C000EF0CCFA6CE7C046D81B0020B4F817002018C01DC4F817000EF0E9FDD0E7B4F89B
:20073C001700B4F81520231804F10801DB1DE079C4F8173009F07CFDC2E7C046000F0020C8
:20075C00E07904F108010DF112020AF03FF9034603200EF0A9FB0EF0DBFC18460EF0B2FAF7
:20077C00BDF8120010E0E07904F1080105AA08F02FFE034603200EF097FB0EF0C9FC18465E
:20079C000EF0A0FABDF814000CF0DEFF46E01C202CA153E703208DF8160001278DF81770A8
:2007BC0000268DF8186000F015FCCDF819000E200EF07AFB0EF0ACFC9DF816000EF082FAAF
:2007DC009DF817000EF07EFA9DF818000EF07AFADDF819000BF0CEFB0DF11D0007210DF0CA
:2007FC00E5FC1BE0D4F80700D4F80B10D4F80F200EF034FC81E7B4F80900B4F807702018A6
:20081C0002A9C01DC4F80900D4F80960ADF808704FF6FF70CDF80A600BF05EF90EF02CFBC3
:20083C00342188F800100B99617184F806B0C1B202E0382088F80000404609F035FD0DB074
:20085C00BDE8F08F50726F647563742046656220323020323031382031343A31313A35321B
:20087C0000007047DFF800F0A5A501102DE9F84FDFF81885DFF8181588F8000000200860A6
:20089C000821DFF8100501700D2141804FF408718180DFF80405DFF8041501608A7EDFF8FA
:2008BC0000050270FF2ACB7E437008BFFF2B0D7F85704E7FC6708F7F0771C97F417115D1A5
:2008DC00FF2D08BFFF2E11D1FF2F08BFFF290DD1DFF8D0140A7802704A7842708A788270E8
:2008FC00CA78C2700A79027149794171DFF8B81402780A70FF2542784A7082788A70C278A1
:20091C00CA7002790A714079DFF8A02448710021DFF89C04057045708570C5700571457166
:20093C001180DFF89004DFF89014466BDFF88C247078087031781170B078DFF88414087053
:20095C00B1680879DFF87C14421E0A70F078DFF878140870F068DFF87414086008B90DF080
:20097C0007FF3069DFF86844206008B90DF000FF2068DFF8607401688847216851F8042F8C
:20099C0038469047DFF85004DFF850143862DFF8500478627069086008B90DF0E9FEB069E2
:2009BC00DFF84014086008B90DF0E2FEDFF838B4DFF838649BF804000EF0C6FA306008B90E
:2009DC0000F045B99BF80500DFF824740EF0BCFA386008B9306837E19BF80600DFF8144481
:2009FC000EF0B2FA206020B930680EF0B5FA38682AE19BF80700DFF800940EF0A5FAC9F885
:200A1C00000038B930680EF0A7FA38680EF0A4FA206819E1DFF8A4130A789BF80000DFF85A
:200A3C00DCA3921C504380B20EF08EFACAF8080058B930680EF090FA38680EF08DFA20687A
:200A5C000EF08AFAD9F80000FEE0DC480078002800F00281BBF80210DFF8A4B3484380B262
:200A7C000EF072FACBF8040078B930680EF074FA38680EF071FA20680EF06EFAD9F800002C
:200A9C000EF06AFADAF80800DEE0CC4800780EF05BFADC49086080B930680EF05DFA38680E
:200ABC000EF05AFAD9F800000EF056FADAF808000EF052FADBF80400C6E0C048007818214F
:200ADC0048430EF041FAD04A1060B0B930680EF043FA38680EF040FA20680EF03DFAD9F80A
:200AFC0000000EF039FADAF808000EF035FADBF804000EF031FAC348A5E0B0480078400161
:200B1C000EF022FAC1490860D8B930680EF024FA38680EF021FA20680EF01EFAD9F80000C0
:200B3C000EF01AFADAF808000EF016FADBF804000EF012FAB34800680EF00EFAB2490868EA
:200B5C0082E09E48007800010EF0FEF9B0490860F0B930680EF000FA38680EF0FDF920680D
:200B7C000EF0FAF9D9F800000EF0F6F9DAF808000EF0F2F9DBF804000EF0EEF9A1480068DA
:200B9C000EF0EAF9A04908680EF0E6F99F485AE08A48007800010EF0D7F99E49086018BBC6
:200BBC0030680EF0D9F938680EF0D6F920680EF0D3F9D9F800000EF0CFF9DAF808000EF083
:200BDC00CBF9DBF804000EF0C7F98E4800680EF0C3F98D4908680EF0BFF98C4800680EF072
:200BFC00BBF98B4908682FE074480078302148430EF0AAF9884A106070BB30680EF0ACF979
:200C1C0038680EF0A9F920680EF0A6F9D9F800000EF0A2F9DAF808000EF09EF9DBF80400A3
:200C3C000EF09AF9774800680EF096F9764908680EF092F9754800680EF08EF974490868C4
:200C5C000EF08AF9734800680EF086F900200DF08FFD4FF4804192E031680120087130686D
:200C7C00057331684D73306885733168CD7330680574002031684D743268D072A02231685C
:200C9C00487103213068C28001720720316848720020326890722821306841820121C176DB
:200CBC00002031684877326882F85E00012031680877326882F85D00396808713868057352
:200CDC0039684D73386885733968CD7338680574002039684D743A68D072396848713A68A3
:200CFC0090724FF4207039680022C88008818A7401213A68D17421680D7322685573216884
:200D1C008D732268D57321680D740021226855742368D972012122681171002123685971ED
:200D3C002168C8800881002088722168887405202268D0743948016888472A490A680546C2
:200D5C001068804727490A6852F8043F0020984718481D4BC16818780A88314902430A806E
:200D7C00284630490A6890470C212F4800F05EF80F4800F05FF800F061F84FF4005198F832
:200D9C000000BDE8F44F07F097B900BF6E4F0020044F0020604E0020084F0020B63F00506F
:200DBC002C4E0020E81200503C4E00200C4F0020344E0020504701006D4F00207B4F00200E
:200DDC006B4F0020724F00206C4F0020F04E0020F44E00207C4B002065EF0000F84E002000
:200DFC0075EF0000FC4E0020301F0020104F0020144F0020184F00201C4F0020902B0020AB
:200E1C00684E0020004F0020804E0020844E0020884E00208C4E0020904E0020501A002019
:200E3C00544F0020541A0020F84D0020DFF800F0E5710110DFF800F01D6E0110DFF800F088
:200E5C004D7101102DE9F843614C5A4D5A4EDFF870815E4F94F8E4100846401E0B2864D84A
:200E7C00DFE800F07B2C43062343062343067664042907D001220A2945F8212C14BF022024
:200E9C00032004E0202045F8210C0120024684F8E200002045F8390C0827C5F8FF7FC5F8F5
:200EBC00F37F45F8392CBDE8F883052914BF09200620002784F8E400376075E094F8E17042
:200EDC00383D0120002FC5F81B0004BF0620002102D00021F160032084F8E400032045F828
:200EFC00010C3160306880085ED294F8E4103348012703290ED000684568002160220523DB
:200F1C0000914046A84794F8E400062814BF0A200720CFE700684568002160220523022035
:200F3C0000904046A8470420C4E7FEE72548264F0026012506600E203D6007F0D9F9022092
:200F5C000CF05AFA84F8E45084F8E360BDE8F883002038600C25786024E04FF08059D9F8E8
:200F7C00A0010168202088472C3D0F2045F8010C41F61D56C5F80360D9F8A401466800214B
:200F9C004FF4C0720723022540460095B047D9F8A401C66800214FF4C07207234046B0477C
:200FBC000120386084F8E45004F178000EF08DF9BDE8F88339400C4038600C40A40100103D
:200FDC0000A00C402C500C4004800C4034600C40F4170020024801687D204843400970478B
:040FFC002850094030
:20100000B41200001810000015AB0110FDB301106DC00110FDAE011099B5011000000000F7
:08102000000000002C0000009C
:20102800B01200003C100000B1C00110A9BF011067C0011069B80110000000000000000035
:041048002F00000075
:20104C00B012000060100000BDC00110CDB30110D9BD01106DB3011000000000000000005B
:04106C003000000050
:2010700000000000381F002004000000000000000000000020000000E8C9011030000000D3
:2010900028100000401F00200400000000000000000000000C000000D8CA011018000000AE
:2010B0004C100000481F002004000000000000000000000024000000F0CA01101800000032
:2010D00000000000501F00200400000000000000000000001000000018CA01102C0000003E
:2010F00000100000601F0020040000000000000000000000200000006CCA011024000000A2
:20111000FFFFFFFF681F00200400000000000000000000002800000090CA01102400000061
:20113000FFFFFFFF701F00200400000000000000000000001400000008CB011018000000E0
:20115000FFFFFFFF781F002004000000000000000000000058000000B4C9011034000000AE
:20117000FFFFFFFF801F00200400000000000000000000001000000020CB0110180000007C
:20119000FFFFFFFF881F00200400000000000000000000001C000000B4CA011024000000A9
:2011B000FFFFFFFF901F00200400000000000000000000003800000044CA011028000000D1
:2011D000FFFFFFFF981F00200400000000000000000000005400000078C901103C00000046
:0811F00002000000C4460100EA
:0411F80001000000F2
:0411FC0000008C0F54
:041200000000BC0F1F
:0412040032000000B4
:0412080001000000E1
:04120C00581E002048
:0412100000020000D8
:0412140000000000D6
:0412180001C90110F7
:04121C0000000000CE
:0412200000000000CA
:0412240008000000BE
:0412280000004C1264
:04122C00D01C0020B2
:0412300000000000BA
:0412340000000000B6
:0412380008000000AA
:04123C00181E002058
:0412400000000000AA
:0412440000000000A6
:04124800080000009A
:04124C00000000009E
:04125000000000009A
:041254000000000096
:041258000000000092
:04125C00010000008D
:04126000681D0020E5
:041264000600000080
:041268000100000081
:04126C003C1C002006
:04127000000000007A
:041274000000000076
:041278000002000070
:04127C00000000006E
:02128000280044
:02128200010069
:02128400240044
:021286002F0037
:02128800300034
:02128A002C0036
:02128C0001005F
:01128E00015E
:0812900003000000804601008C
:0812980000000000000000004E
:0412A0000000930DAA
:0412A4000000AD0D8C
:0412A80013C401105A
:0412AC0035E8000021
:0412B000B812000070
:0412B400B81200006C
:0412B8000000000032
:0412BC00F01E002000
:0412C000E1ED00005C
:0412C4002000000006
:0412C800D04501000C
:0412CC00B843010022
:0412D00029C101101F
:0412D4001FCC00002B
:0412D8001BDB00001C
:0412DC00A1C7011095
:0412E000A3C701108F
:0412E4000000000006
:0412E8006C1A01007B
:0412EC0014420100A7
:0412F0002C4201008B
:0412F400FC410100B8
:0212F8000200F2
:0212FA0003806F
:0212FC00931746
:0212FE000100ED
:0113000001EB
:041304006DED00008B
:041308009DD1000073
:04130C000DE30000ED
:0413100019D50000EB
:04131400B3D500004D
:04131800E1C300002D
:04131C008DA500009B
:041320006BF000006E
:04132400D1B4000040
:0413280015C70110D4
:04132C0025C70110C0
:201330002DE9F04FD44C211D2046ADF1340D0AF02BFC06F027FF0DF0CDF904F11C000DF097
:201350007EFE4FF4FA720123CE49A06004F170000AF0D2FFCC4F10201F220623394604F0BF
:201370008FFE0820ADF8180001268DF82D600025ADF8165031468DF82E500DF12D02ADF836
:201390001C505020ADF81A006420ADF81E0040F2053001F031FE40F2063002210DF1160233
:2013B00001F02AFE4FF44270122104F1340201F023FE40F20730152104F1460201F01CFEB8
:2013D0004FF4447031460DF12E0201F015FE40F21130022106AA01F00FFE40F21230022182
:2013F0000DF11A0201F008FE40F21330022107AA01F002FE4FF4457002210DF11E0201F068
:20141000FBFD04F15B002A461523B9490090102004F036FE394610200622F42304F030FED2
:20143000394610200722F42304F02AFE394610200822F42304F024FE394610200922F4239A
:2014500004F01EFEAB46A8464FF003098DF82FB00DF12F008DF830B0BC4D8DF831904FF4BA
:2014700080628DF83280334600902946102004F007FE0CA840F202423346009029461020D0
:2014900004F0FEFD0DF1310040F20342334600902946102004F0F4FD0DF1320040F2064270
:2014B000334600902946102004F0EAFDC24910204FF0FF3204F0E4FDC34910204FF0FF326D
:2014D00004F0DEFDC34F102013230090C249C34A019704F0D5FDC44F387880000DF00BFF65
:2014F000C24DA860D0B1387880000DF004FFE86018B9A8680BF004FF10E0A9684FF6FF7038
:201510000BF0E4FEE9684FF6FF700BF0DFFEC04B05F11000092110220CF0B2FAA06968601B
:2015300004F128000DF08BFDE0600DF0BFFAB94D6F782878AFB904F1140129620CF0E6FA9D
:2015500005F15407CDF800B0024605F14400019005F11C060297B0490396AB78102004F018
:201570008FFD20780CF0D2FAAC490246102004F087FD20780CF0CAFAA9490246102004F0D4
:201590007FFDA849102004F07BFDA84EA64DB2460CE09AF80100B04208D0FF2703268AF837
:2015B0000170C6498AF80260012008706068C54A59464FF0FF330EF075F9061CF6D0584645
:2015D00004900BA904AA05A80BF0D2FF002840F08C80BDF8141020784FF0010810297DD1E8
:2015F0009DF82C10884279D1049F39884FF6FF728A424BD03B78913B1DD01F3B6ED17978FF
:20161000162912D10CF082FA0346404600900498AF494288102004F033FD30B940460CF0A4
:201630003BFB0498D846206158E0397907F108000EF034F952E078780E3802D0801E1DD04F
:201650004CE0B88842F20301814247D1B9680F78002F43D1491C08A80A684968026008AFBF
:2016700041603878994908AA00F0FD003870102004F006FD32E0C04620050020082009F03B
:201690007BFF2BE0D5EE0000BD8401107888400824D3276917B3607807F10803401C607000
:2016B000C54900937A883B79102004F0E9FC5FFA80F9B9F1160F11D02078B9F1040F0DD006
:2016D00027690CF023FA03465846814900907A88102004F0D5FC48460CF0DEFA049820B14A
:2016F000B8F1000F01D00DF0D0FDF00F1DD317E0C59B0000A06807460EF0CCF8874208BF9A
:201710005F4602D087680BF0FBFD381C08D03888012802D1B87807F00BFB38460BF0F0FDE5
:20173000A0680EF0B3F80028E4D0700809D3C6480DF0FBFDA078002806BF0120A07084F803
:2017500002B0B008C0F093808BE0C046E9430000E0680EF09FF8814699F80800512867D0C2
:20177000522878D1D9F80C0007460CF07BFFBB78002B70D007F102081F46AB7D18F8010FA9
:20179000002B35D10346C03B02D01B3B28D01DE0EB7D9BB1022B11DDBE482A8B1818C178B4
:2017B000807840EA0120904208D19B1EEB75FEF73DFC0DF07BF927E011E2000085F817B035
:2017D000A5F818B020E0C0467DE400000CF00AF81AE0C0466846010091DA0000DC12002007
:2017F0000120A87510E0C046694F0020A81900200346DC3B03D05B1E08BFDB2000E0C020BE
:201810000BF0F0FF85F816B07F1EB6D123E0C04634430100880800205DC700005188011028
:2018300031810110C5AB001038260020000F0020D9F80C0007460CF015FF9649F81C17273D
:20185000091D10F8012B7F1E01F8012BF9D1FEF7EDFB0DF02BF948460BF052FD8A49402089
:201870000860E0680EF012F800283FF471AF9AF80200F10804D318B108F0A4FC9AF80200CC
:20189000310904D318B10BF003F88AF802B07009FFF48CAE0BF0F8F95F465E4679484068F0
:2018B000311C17D0491E0FD0491E09D0491E03D0491E13D10E210EE00D210CE02829002031
:2018D0000C2108E01F0000C00B2104E095B4001099B700100A215A460BF078FB4FF4487007
:2018F0000DF0D6FC1D200DF0C1F980461E200DF0BDF940EA48081C200DF0B8F948EA800840
:201910001B200DF0B3F948EAC0081A200DF0AEF948EA001819200DF0A9F948EA40180BF054
:20193000B3F91FFA88F84FF6FF7080EA080082B25846012181400A4209D0032F05DA06EB50
:20195000001307EB0D0181F829307F1CFFB2401C0628EEDB761C052EA0DB8DF8287057B986
:201970004D480DF0BFFA10B14B480DF0E0FC0AF053FB0BF0A7F99DF82800A8B19DF8280029
:2019900001280FD19DF829009DF8297000F00F00410001EB800101EB27111E293CBF3B48AC
:2019B000465C02D3FF2600E0FE269AF8020028B1401E3FF4EEADF9E5DDFE00101A2E3FF797
:2019D000F5AD3649304606F03BFC00283ED0334801460B46B0F801709A7B0F31384608F006
:2019F000A5FC38460AF05AFA0DF024FAC01D4FEAE0090DF027FAC01D4FEAE0080DF02CFC0F
:201A10000146B9F1000F0CD001F1B5024F465846224BC318DB787F1E00F1010002F8013B9E
:201A3000F6D1B8F1000F21D0BD31474658461B4A09EB0003521CD2189278401C7F1E01F85D
:201A5000012BF4D112E0C046900500200DF004FC0F491E220746584608F068FC58460AF064
:201A70001DFA87F8BD60052087F8B500FF2009F02FFA012009F064FF8AF8016001208AF806
:201A9000020093E508190020A0200240DC440100BCF800004E26002084190020160F00200E
:201AB0002DE9F04FD14C04F118012046ADF13C0D0AF06AF8CE4D00264FF6FF7001236670FE
:201AD00032462082294604F1A4000AF015FC0223324604F1C80029460AF00EFC042332465D
:201AF00004F1EC0029460AF007FC4FF0040A04F1440810224046314684F802A008F028FB93
:201B100004F1540910224846314608F021FB04F11C073E6004F10A052E70E67126720720AA
:201B30006072CDF80080DFF81883022210200346414604F0A5FA102003224146CDF8009024
:201B5000034604F09DFA1020524641460097134604F096FA4FF0010B4FF0030905F12A0028
:201B70000A9005F179000B9005F11E000C9005F15A000D9024350E9501E00BF08DFBA069AB
:201B9000B94A31464FF0FF330DF08CFE071CF6D0029606A809A902AA0BF0EAFC002840F0FD
:201BB000CC81BDF818102078102940F0C2819DF82410884240F0BD81029D29884FF6FF72A0
:201BD0008A4200F0AB812B78A23B00F08C812E3B40F0AF81A978B046002900F04781891E28
:201BF00000F01481491E012940F2E380891E00F0A680491E7AD0491E5BD0083900F0628116
:201C1000891E40F0658194F83A30A888052BADF80C0046D0BB488DF816B00DF088FB94F880
:201C30003A0001281ED004281CD003280DD002280BD00298C188ADF80E100189ADF8101029
:201C50004189ADF81210818927E0A08FE58FADF80E00B4F84030ADF81050B4F84210ADF8B8
:201C700012301AE0A08FE9888842D8BF081CADF80E002989E08F8842D8BF081CADF81000E5
:201C90006989B4F840008842D8BF081CADF81200A989B4F84200884200DC0846ADF814004D
:201CB00001E08DF81660B049102003AA04F0E8F90EE1AE480DF03BFB6B78002B40F00881AE
:201CD000E88860822889A0826889E0828D480DF009F9002840F0FC80656A002D00F0F88070
:201CF0002B68608AA18AE28A9847F1E0AA88B549102004F0C5F90A984146062208F028FA93
:201D10006682A682E682A87920737E480DF00FFB96480DF00CFBD8464FF6FF7023792082C8
:201D300053B9A879082812BF84F801A00520607040460DF007F9CBE084F80190C8E06B788D
:201D50007BBB291D0A980A680260898881800623637068892082E8896082288AA082688AC7
:201D7000E082E878E07294F83A00012818BF02280BD1A54910201F2204F082F94FF47A7177
:201D900080B241435F480BF03DF9688900909849CDF804A0EA7810202D1D2B4604F070F930
:201DB00099E06878312840F08A80E67084F801A091E06B78002B40F08280A878E38961789E
:201DD000032817D0E078257923B9012814BF2671E67006E0054304D0864819460BF012F9F1
:201DF00061780729E2D106206AE0C0468808002055EF0000062907D0E578002D08BF84F8DA
:201E1000019068D002205BE0072059E06B78002B55D1EB786178ABB9022920D007291ED01F
:201E3000062902D12079012819D1032917D071480DF058F898B958460DF084F80FE0C0466E
:201E50004FF300000BF062FE0246A079674900900B9843460190102004F012F968706D788B
:201E7000002D2CD134E0C046070000806B7833BB61485D49009002221020034604F000F94D
:201E90005E484A46584900901020034604F0F8F8ED1C0C9829680160A9888180207884F889
:201EB00001B00BF033FE02465B460D9D60794F4900901020019504F0E3F8C5B25DB108205F
:201ED000607008E0AA8847491020052304F0D8F8B8F1010F2DD1256A002D2AD02D6845B362
:201EF0006078A84725E06879132822D1288901280AD1607B022807D11C480DF018FA0BF0F7
:201F1000CBF916E0500900203F491020052204F0B7F881B215480BF075F80AE06888C00B5F
:201F300007D337485246304900901346102004F0A7F8029808B10DF0A8F92579E078790813
:201F50002FD355EA00032CD02046007885B9E179257A8DF81A100E9A8DF81B50136807ADA6
:201F70002B609288AA8005E005160110740900208DF81A90617A8DF82210A17A8DF8231040
:201F90000BF0C4FD164902460DF11A03102004F077F830B10820256A607015B12D6805B1A7
:201FB000A847B80803D31749304607F047FEF808FFF4E5AD677B7F1E06D07F1E3FF4DDAD46
:201FD000DDE5C046C9BD0000CDF800B0A08FE18FB4F84020B4F842300AF0DCFFCFE5C046D6
:201FF00059440110C117011053F30000094501108D7E00002C090020CC080020DC0800203D
:20201000A4080020C2080020F58401102DE9F04F4FF000084046ADF11C0D059004900390CB
:20203000D14E02904FF0010B01904FF00209009089E1401E00F08580401E13D0401E06D0F7
:20205000401E40F0808108F043FB70B107E008F03FFB002808BF86F8CB9000F074810AF0CA
:20207000BBF870E196F8CE0010B986F8CBB06AE130794446C0F3411000F1010A574696F885
:20209000C9506000C4B2701941788078FF2900F07F024FEAE0154FF0FF000DD08A4205DA7A
:2020B00096F8CA30C91A8A420EDC0AE096F8CA30C9188A4208DB04E096F8CA108A4203DDF5
:2020D000891A48B20BF050F9FF281BD196F8C900801CC5B20CF0F0FAA84211DD86F8C9503D
:2020F00086F8CAB0A8198278407802F07F01D511FF2808BF484240B20BF036F95DB107E084
:20211000FF2008E096F8CA10491C86F8CA1015B1C0F10100C0B200197F1EC4B2AFD196F85F
:20213000CD002418E0B208F0CFFD09F091FE0AF053F8032196F8CE0086F8CB10A0EB0A00F5
:20215000B5E096F8CC000BF0DDFB062840F2E980C01F00F0E080401E012840F2C680801E18
:20217000012840F2A780801E1ED0401E00F08680401E5FD0401E40F0E6800CF09DFA37782A
:2021900096F8CC1000EB6100874209DC632586F8CB50D6F8D400C6F8D0004746C6F8D470EB
:2021B00096F8CC00401CCCE096F8CC00401C0BF0A9FB0146A8B1C01E38D0401E03282BD945
:2021D000001F032813D9001F032800F28A8001F003000BF0C7FC0146D6F8DC00401A09F07D
:2021F000FBFF4046C6F8DC000AF03EF8ABE001F003000BF0B7FC0146D6F8DC00401A09F014
:20221000EBFF404696F8CC70C6F8DC00B81C86F8CC000BF0BFFF96E001F003000BF0A2FC00
:202230000146D6F8DC00401A09F0D6FF4046C6F8DC0056E096F8CC00401C0BF063FB0546C5
:2022500096F8CC00801C0BF05DFB044696F8CC00C01C0BF057FB4F46E11000EB041096F845
:20227000CC3086F8CB7001EB450100F07F0086F8CD10401C86F8CE00181D62E096F8CC0024
:20229000401C0BF03FFB044696F8CC00801C0BF039FB4F46414686F8CD1096F8CC5086F88F
:2022B000CB7000EB0410E91C86F8CC10401C86F8CE0048E096F8CC000BF024FB044696F859
:2022D000CC00401C0BF01EFB00EB041000F01F0008F0FAFC09F0BCFD09F07EFF042086F8EC
:2022F000CB0096F8CC00801C2BE096F8CC000BF009FB044696F8CC00401C0BF003FB86F832
:20231000CD8000EB041086F8CB9000F01F00401C86F8CE00E5E796F8CC00C6F8DC80401C35
:2023300075E796F8CC000BF0EDFA08F0CDFC09F08FFD09F051FF042096F8CC7086F8CB002F
:20235000781C86F8CC00D6F8D070002F1CBFC6F8D080B84604D196F8CB0063287FF469AE28
:20237000404607B0BDE8F08F502800202DE9FF47C34C0F460646F80B80F05881B80880F0CC
:202390004981607ADFF804A3B90F80F0CB80E079390914D2B80BC0F06A8104F13C000CF07C
:2023B000B4FF061C08D0706830B17568F068B6F9241000222023A84727F4005757E1012868
:2023D00000F0AB80E06870300CF087FF68460AF014FF20B1009904F198000CF0CBFD0025CD
:2023F0004FF00108E570A74884F805800CF048FEA5492A4604F160000CF079FF50460068D9
:20241000006B80476061A2782169A369012AA0EB010018444FEA1030A06105D163781BB9F7
:20243000E169B0EBC12F3AD9DFF8649284F80280A9F1150000686570000A30D340F60900A1
:20245000A08494F8310000F0F00040F0010084F8310094F8300000F0F00084F83000A5627E
:202470000CF03FFF4B4603F6FF7211686FF0020C21F00201116004F12401C3F8FBCF854A3E
:20249000C3F8EB1F11688908FCD3C3F8FBCFD3F8FF1F41F00201C3F8FF1F0DF0F3F97E4A62
:2024B00010687E4920F00200256140F400701060032341F8043C41F230038B604046086043
:2024D00050238B6008604FF4CA638B600860237841F80C0C15601BB9E06838300CF019FF6A
:2024F00002200AF08FFF112005F008FF307C10B90E2005F003FF207A18B1257205200AF042
:2025100081FF674965710878A57140B10D7004F1BC0004210CF005FF01E00020E07127F062
:202530000807A4E020B104200AF06CFF00206072B168088840F602084FF0000980450AD0DC
:20255000B0F5C15F07D00A8B4FF61F60104040F43470088306E00A8A4FF61F60104040F401
:20257000347008822069F0B1DAF85400016804208847C0B1DAF800002569006B8047F16815
:20259000401B728AF060000BF06080188842F06002D209184808F06040F6C41181422CBF29
:2025B000B0F5FA7FF16094F8310010F00F0F0CD1718C08F10700884207D1B56930466FF44E
:2025D00080714A464FF00073A847364904F160004A460CF08CFE607860B10220ADF804002B
:2025F00001A80BF075FCBDF80C0084F801904011A4F860010120E07084F8049009F0C8F860
:202610007569494630464FF080630A46A84727F000572CE004F0E8FC04F144000CF075FE6C
:2026300027F0020708B147F0020720E00CF059FE014604F140000CF068FE061C12D0356A9D
:20265000A8080FD225EA0500306208460DF01AF9706850B12A46F068B6F924107568002351
:20267000A84702E008460DF00DF927F4804727B104F1BC0039460CF054FE0090BDE8FF8735
:20269000D81F0020C175000035E200008C0100101500044010100440000004600C41044077
:2026B000C52B0020855B00002DE9F04F09AFADF13C0D08900A92388809911E46ADF8180077
:2026D000101C08BF002000F08481002700F101094FF0FF3A4FF0010BB8466CE1252940F034
:2026F00063811078521C0A922D2818BFADF8068005D15846551CADF8060010780A953028EE
:202710001CBF4246434605D10A9908785A465B46491C0A912A28CDF80080554616D13068D2
:2027300004930A99CDF808A0C01C4B1C20F00300001D306050F8044C0A93002C087800946A
:2027500018D5ADF806B06442009413E044460AE0610001EBC40140180A99A0F1300408782E
:202770000094491C0A91302801DB3A28F0DBCDF808A004932E282BD10A9908782A2801F197
:2027900001010A9111D13068CDF80880C01C20F00300001D306050F8045C002D48BF4546C2
:2027B00008782B46491C0A9111E0454643460AE0690001EBC50140180A99A0F130050878CD
:2027D0002B46491C0A91302801DB3A28F0DB02930AB1224604926C2804D04C2818BFADF871
:2027F000048005D10A990878ADF804B0491C0A910BA9CDF80C800FAB07916428059300F088
:202810008B80692800F08880BDF818C0752872D078286ED06F286AD0702850D063283DD0A9
:2028300073281ED009980A990128A1F101010A9115D96B490C68B5F1FF3F03D0A84288BF65
:202850006D1C00D8099D029508A80AA932466B46A047C7190A99039801F1010974E0404663
:202870002AE030680A99C01C20F00300001D306050F8040CBCF1000F01F10109014608B94F
:2028900055A0014607910CF05FFA0390B5F1FF3F5BD0A842C4BF281C039056E03068C01C6F
:2028B00020F00300001D306010F8040C5D468DF82C000A990395584601F1010945E00820BA
:2028D00035680490E81C20F00300001D306050F8041C082210230FA807F0DAFF401E0790B2
:2028F000402101700A99079801F1010929E0082302E0102300E00A230A99306801F101092B
:20291000C01C20F00300001D306050F8041CAA42BCBF2A1C049210E00A99306801F1010939
:20293000C01C20F00300001D306050F8041CAA42BCBF2A1C04926FF009030FA807F0A8FF80
:202950000790059D281A0390009C241ABDF8065000945DB906E008A8202109AA0BF0A2FAA9
:20297000009C7F1C641E0094F5D503980546401E039075B9BDF80600E8B10098401E009051
:2029900019D408A8202109AA0BF08CFA00987F1CF4E70798411C0791017809AA08A80BF09C
:2029B00081FA03987F1CE1E708A809AA0BF07AFA7F1C09F101094A460A9812F8011C401C68
:2029D00000290A907FF48AAE089808B14146017038460FB0BDE8F08F286E756C6C2900C0FB
:2029F00030470100BB482DE9F84F0025BA4CB849056094F8E200002800F06581012800F0D9
:202A10002F81B64E02283CD0032840F05C8151F8250CD4F8B8100029A0F5C060C4F8D40008
:202A3000B8BF49420028B8BF4042814226DA4FF08057D7F8A4014568B4F8BC0030214FF46D
:202A50007F42082300903046A847D7F8A4014568B4F8C00004214FF4F8021223009030465B
:202A7000A847D7F8A401B4F8D070456820214FF440620A2330460097A847012584F8D85031
:202A90001CE151F8258C0CF01FFB2F4600B901273946934F38680028FCD0B146012609F1B6
:202AB0000409D9F82CA03E6009B10CF013FBCAF30720C4F8BC000CF007FBAA4600B9B246FF
:202AD0003B68002BFCD0D9F800B0BAF1000F3E6001D00CF0FFFACBF38440C4F8C0000CF0B3
:202AF000F3FAAA4600B9B2463B68002BFCD0D9F81C90BAF1000F3E6001D00CF0EBFAC9F35B
:202B10008120C4F8D000B8F5C061C4F8B81000F09C8094F8D80068B9C4F8D410D4F8C00069
:202B3000C4F8C800D4F8BC70C4F8C470D4F8D030C4F8CC30D4F8D410D4F8BC30002954BFF1
:202B500002206FF0010004F1C802176801EB41014018411000EB917107EBA1001060D4F812
:202B7000C810C4F8C43000291CDD1E293CDDD4F8CC0030B93429B4BF15391E21C4F8C810C9
:202B900025E02A29BABFD4F8C8000B381E20C4F8C800D4F8C4003F28B4BF401C3F20C4F8DA
:202BB000C4001FE0D4F8CC00032812D011F10B0FC6BFD4F8C8000B30301CC4F8C800D4F891
:202BD000C4000028C4BF401E051CC4F8C450032508E011F1150FC6BFD4F8C8001530301C47
:202BF000C4F8C800C4F8CC504FF08057D7F8A401B4F8C43030214FF47F424568374800932B
:202C10000823A847D7F8A40104214FF400321123456832480096A847B4F8C860D7F8A40154
:202C300004214FF4F802122345682C480096A847D7F8A40120214FF440620A23B4F8CC60A8
:202C5000456826480096A84701E084F8D85040F2FF50404502D8801C40452FD2082030E005
:202C700051F8251C1F4F4BF2F5204843060A3868C0F3814001280CD11B480068006880474B
:202C900009F0E4FF0CF02CFA3111C010484306EBE03694F8E50030B91448006820F07F4095
:202CB0008019460801E084F8E5501148310C0660012741600F4D8760287808B90B2000E017
:202CD000052084F8E400FEF7C3F8BDE8F88FC0462D400C402C500C40F417002000A00C40E5
:202CF00000800C40B43F0050EC010010102009403C600C409D4501002DE9F04FB64D68684C
:202D100085B0019020B905B0BDE8F04F0CF0B6BD0178DFF8C882B24EDFF8C892DFF8C8A2F0
:202D300001291CBF0229042946F2A81741F64C5B05D0402918BF802900F09A8043E10CF069
:202D50000BFA0028FAD00198007803F09DFF0090446814B900200BF011FD9AF801000028DF
:202D700060D001F069FE0BF0C7FF02900168009801914F6807F0D2FE022827D000990A781B
:202D9000012ADBD1994B19680A7A19F80230337018B90CF06FFD5844A0602069C17E01F0EF
:202DB000EF01C1762069C17E41F08001C1762069C17E01F0F00141F00201C1768C48B96821
:202DD00041182069C16101210098A0E001980178802913D10822874832700178012903D0F5
:202DF0009AF80100012803DD38690121C17213E0D8F828103A690878D0720DE07D490720F7
:202E100030700A783869012A02D10123C37203E0D8F828104A78C2720298817901988AF8F8
:202E30000210CBE00098002888D00199009A0078914205D101281CBF00200BF09FFC15E0A9
:202E5000012840F0C080694801680A7A19F8020030700CF00FFD3918A0680CF007FD18B946
:202E70000CF008FD5844A0600120A8700098A5E09AF8010000287DD001F0DEFD0BF03CFF45
:202E900004462068029047689AF802000BF034FF03900CF067F910F0070F3DD0A87803F028
:202EB000F3FE0190416801980091029907F036FE022831D001990A78012A2AD14B4B196863
:202ED0000A7A19F80230337028B90CF0D3FC83440098C0F808B000990869C17E01F0EF01D3
:202EF000C17600980069C17E41F08001C17600980069C17E01F0F00141F00201C176009A3B
:202F1000B9683B4841181069C16101210198A97054E000200BF032FC0398A04228D00298A9
:202F30000178802913D10822324832700178012903D09AF80100012803DD38690121C1722D
:202F500013E0D8F828103A690878D0720DE02949072030700A783869012A02D10123C37261
:202F700003E0D8F828104A78C272A0798AF80200029823E00CF0F6F810F0070F29D0A8780D
:202F900003F082FE04462078D4F80480012820D116490A68107A19F8001031700CF06AFCE3
:202FB0003918D8F808000CF061FC20B90CF062FC5844C8F808000120A870204605B0BDE8EF
:202FD000F04F05F0B1BA05B0BDE8F04F00200BF0D5BB05B0BDE8F08F902B002050470100B2
:202FF0006F4F0020289A0110684E0020104F0020F0D8FFFF734F00202DE9FC411446884698
:20301000A0F201330246B54EB749B64800271A2B1CD8DFE813F054014F0148011B001E013F
:203030001701F900E300DA00D100C700BC00B2001B001B00A700980089007F0070001B00A4
:203050001B001B001B0053001B002600282A06DAB8F1020F03D1A04923881046ECE00227DC
:2030700037E1B8F1010F40F02D81F078012800F01881324620781179107181B9002800F00A
:2030900028815078012800F0F880042800F0F580062800F0F280052800F0EF8019E12078DF
:2030B000002840F016815078032800F0F180072800F0EE80052840F00C81E9E0B8F1010FC4
:2030D00040F000812078012840F0FC8006F1EC000BF008FF68B93446384604F13A0106F09E
:2030F000ADFD071C40F0F58004F1C8000CF01FF9EFE01627EDE0B8F1020F40F0E3802188AE
:203110000A29C0F2DF80B1F5486F00F3DB80801C064616E0B8F1020F40F0D4802188B1F545
:20313000FA7F80F2CF80F3E7B8F1020F40F0CA8021880629C0F2C680B1F5486F00F3C280D5
:203150003E363180C5E0B8F1020F40F0BB8021880629C0F2B780B1F5486F00F3B38006F135
:203170003C00D5E7B8F1010F40F0AC802078062880F2A8800C310E4612E0B8F1010F40F066
:20319000A1802078042880F29D800A3608E0B8F1010F40F097802078082880F293800936F7
:2031B000307096E0B8F1060F40F08C80A68808468680216801608CE0B8F1010F40F082802C
:2031D000207804287EDA083606E0B8F1010F79D12078042876DCF61D3146CCE7B8F1200F71
:2031F00070DA06F1830539461F22284606F0B0FF21464246284605F029FF44463078B47152
:203210000AF084FC3B4614E0B8F1200F5ADA06F1640539461F22284606F09AFF2146424697
:20323000284605F013FF4446307874710AF06EFC012300942D4901950246102002F020FF41
:20325000C7B246E0B8F1020F3CD1218806F10E005EE7B8F1010F35D13079012821D032460B
:203270002078D178D07061B9002832D05078012803D0042818BF05282BD101200BF062FE6D
:2032900027E0207828BB5078022818BF052820D110780AF03BFC12490246102002F0F0FE49
:2032B00017E0122715E0B8F1040F0BD120681C3630600EE0B8F1100F04D1143005E0B8F17A
:2032D000100F01D0182704E0001D2146102205F0BDFE3846BDE8FC81BD84011088080020C3
:2032F00099450110C8080020B6080020094501102DE9F04F0C46E00789B00BD50BF002FE00
:2033100028B100218160A448006800B1804784F001003EE1A00710D500200690002104906B
:2033300000230290009005910393019101223C200CF098FA84F002002BE11D256007974E5D
:20335000974F40F18A8000200790834695498878FF2804BF00200BF011FA386890F8A00006
:203370000BF0CAFC80463868C07A98F82691022818BF032808F5907A06D106F10D000CF08B
:203390006DFA08B906F1070B514648460CF062FA88B33868807A002818BF012804D1314626
:2033B00050460CF053FA04E05246494630460CF049FAFF2834D005FB00F906EB0905062213
:2033D0005146E81D0BF042FB16F8090040F00209E81D079006223868817E01F0010188F8E1
:2033F000261105F1010A386800F1140108F590700BF02CFB14E0514648460CF01FFA78B169
:203410005246494630460CF01DFAFF2808D006F10D01454348190CF021FA08B149F00209EB
:2034300008F12C004B4601780691418909090591B8F82220079904920122C08802914008D6
:203450000390CDF804B0CDF800A0002098F806100CF008FA84F004009BE0200610D5002009
:2034700006900021049000230290009005910393019101223B200CF0F5F984F0800088E02A
:20349000E0043BD5F11D06F10D000CF0D3F938684179012923D1017A012918BF04291ED13E
:2034B000C17A022918BF032919D1817E00F1140230460CF0C7F9FF2811D04543354405F172
:2034D0000D000CF0CBF950B9E91D05F10D000CF0B1F938680622E91D14300BF0B7FA32491E
:2034F00032484A6800784FF4805109F0C9F810B18E2006F0F3FC84F480504AE0A00505D505
:203510000BF0E2FD2A4901200860FEE7610504D503F069FD84F480603BE0600405D58120F6
:2035300006F0DCFC84F4804033E0A00430D5214D286810B100200BF021F94FF0FF302860CF
:203550000CF074F91C4D296851F8202F684690471A48016A426A2D680091019218490291B5
:2035700000F128014A6809781368C06903938DF81010ADF812006B462E68124A12491348FF
:20359000B0471349086002F00DFF84F4005000E0002009B0BDE8F08F204F0020AC4500201D
:2035B000104F0020684E0020784E00206E4F0020FC002043044F0020F04E0020081D00206E
:2035D00005EF00002C4D00206845002088490020EC4E00202DE9F04FD0F804A0ADF1140DB6
:2035F000029080680D4603902868002800F043810BF077FEDAF8881021B10CF043F90320E8
:20361000287438E101212974CAF888500CF03AF99AF8A40038B19AF88D209949DAF89C00AF
:20363000114309F0D5FE6F680BF05BFE04469AF8D80078B917F0704F06D12FB104200AF0AF
:2036500059F806200AF056F802200AF053F801208AF8D80020460CF015F90398D0F8009056
:20367000D9F8040040F00200C9F804009AF80070002F01976AD1DDF80CC02868DCF81C1039
:20369000814264D9AE6864460EB90AF1A6066F682FB9E0890AF1A607AAF8A6002868DAF872
:2036B000141009292CBF4FF002094FF001095FEA000823D0DAF8140009280BD320683988A4
:2036D0000BF09DFD206869460BF010FDBDF8000030800AE0206839780BF091FD20686946BE
:2036F0000BF004FD9DF800003070AB6803B14E446B6803B14F44B8F10108DBD120460168E9
:20371000486820F0020048606F680BF0EAFD04469AF8D80078B117F0704F06D12FB10620F6
:2037300009F070FE042009F06DFE022009F06AFE00208AF8D80020460CF0A4F8DAF8881025
:2037500000200874CAF88800012095E02868DDF808C0DCF80840DCF80460276896F88C10A3
:2037700082B2B7F1804F02FA01F21FFA82FB14BF444F454FAA68DFF814C152B996F88C101C
:203790004FEA8108614601EB0802936906F1A60209E096F88C104FEA8108614601EB0803AC
:2037B0001B695A44521EBB607A60216808313960BA68000143F6F07E10380EEA00000243C8
:2037D000BA602368B3F1804F14BF314A314A6F68C7B9E0890CEB0807A6F8A600B86906F1D6
:2037F000A6039060039913609AF800702368D1F8009001972F6803F10801754638011038C3
:20381000284007E00CEB0805AD6895600BEB07056D1E15605160916808439060D6F8A07076
:2038300020696169014378680068019D8162586A40F003005862D9F81400002D40F0010026
:20385000C9F8140080D1DAF804100AF16C0004460BF0B5FA00283FF477AFDAF88800017C99
:20387000012904BF03210174029804F001F8204600210BF0A4FA002005B0BDE8F08FC0460C
:20389000000006800005002030040020C842010010050020400400202DE9F04F8246DAF886
:2038B00000600C465FEA0208ADF11C0D14BF00214FF0FF3106F1480083460BF080FA002824
:2038D00018BF0B2040F00D8100258848F460B8F1010F057007D06570022009F00BFF0620AA
:2038F00009F008FF01E0012060702078012840F2AB80801E012868D9801E012833D9801E4F
:20391000012800F2DF800BF0ECFC06904FF0805000F5EE77D0F8DC01A378466A009321789F
:203930002846062908BF0120019001200290A068228AE1686368B047814606980BF0A2FFEE
:20395000B9F1000F40F0C080B8F1000F02D00BF04DF802E050460AF0AAF8002800F0A48014
:203970003868806A2AE00BF0BCFC06904FF0805000F5EE77D0F8DC01012306680093A1681E
:20399000A27860682478AC46042C08BF9C466346B047814606980BF075FFB9F1000F40F071
:2039B0009380B8F1000F02D00BF020F802E050460AF07DF8002877D03868406880474A494F
:2039D000C1F8B0510D6081467EE00BF08AFC06904FF0805000F5EE76D0F8DC01E38A87690A
:2039F0000093E0680190208B0290A0780390207D04900121059122782846022A08BF081C5B
:203A1000E1786268A368B847814606980BF03AFFB9F1000F58D1B8F1000F02D00AF0E6FF85
:203A300002E050460AF043F800283DD03068006A80475FEA000947D13068C569A168E28A26
:203A50002369E078A847BEE70BF04BFC06904FF0805000F5EE76D0F8DC01E38AC7680093CA
:203A7000E0680190208B0290A0780390207D2946049001200590257805B901460846626865
:203A9000A368E178B847814606980BF0FBFEB9F1000F19D1B8F1000F02D00AF0A7FF02E0AB
:203AB00050460AF004F808B914201AE03068406980475FEA000907D1306802692169E07864
:203AD000904780E74FF0FF39B8F1010F05D0022009F098FC062009F095FC58460BF019FC86
:203AF000484607B0BDE8F08F50450240CC2B00202DE9FE4F05467F48002400680094C00901
:203B10000ED37D48007858B97D497C4851F8112C104040F0817041F8110C202008F08EFDCC
:203B3000012D40F0E280DFF80892D9F8DC00012840F0D8800220C9F8DC000AF057FC0120B9
:203B500008F07CFD5FEA000805D00120C9F8DC000AF05CFCCBE00BF0E0FBA3460290694801
:203B7000694DC0F800B0A86A016801208847012804D1584607F008F8012000906348644F0A
:203B9000C0F800B0386811200BF0C2FA00B1012410200BF0BDFA08B144F002040F200BF050
:203BB000B7FA08B144F004040B200BF0B1FA20B12868584E016B308888470A200BF0A8FABD
:203BD00020B12868544E016B308888475348012606602868816944F020008847504806601C
:203BF0000BF090FA00F001010191400814D2286A81684C4888478246BAF1040FF7D0BAF1A8
:203C1000010F04D1286A42684648032190474649086820F003000860584601F017F82B683F
:203C30003868986B8047019801280CD0BAF1010F04D1286A42683B48314690473A490868DC
:203C500040F0030008603148066028684169204688470B200BF05CFA20B128682D4BC16AEB
:203C7000188888470A200BF053FA20B128682A4BC16A18888847294806600322C9F8DC202A
:203C9000274BC3F800B02868416B204688470128F9D13868042008F0D1FC04461948066039
:203CB0003868144800688009FBD30098012802D1304606F069FF0BF00DFA082008F0BEFCF5
:203CD00007460298C9F8DC600BF0ACFD1748008806F036FD0AF09AFB57EA040018BF4FF052
:203CF000FF3804E06FF0040801E06FF001084046BDE8FE8F14100940DC180020FFFFFCFCB6
:203D1000150009400C400940B8010010000222432C2009404A410100464101002820086017
:203D300080010443004003402422084098450100F41700202DE9FC470F467B4E0168F1625E
:203D500041688068F0607948B16080477848F16A0160B168002F4160F168DFF8F4A18160CE
:203D70007449DFF8E891C16062D03D68E8788DF8040028798DF8050001A80BF04FFDA8681A
:203D900008B16D490160E86808B16C4901606C4C2878207068786070A878BB68A0701978A8
:203DB000E1705A6862609968A16029697B68E1611868E06068692062A8696062287F84F85C
:203DD00028002A6AE262786883681BB900200AF0D5FC00E063617868C06818B900200AF0B2
:203DF000CDFC00E0A0617868406818B900200AF0C5FC00E020612869E061F86881680D68E4
:203E100005B9514D4F494FF001084D60C56881F8018025B900200AF0B1FCF86801E049460D
:203E30000D6000685446FB68A0615868E06105E000200AF0A3FC4FF0010854464D462868FB
:203E500044494768621C04F114035020B84710B1286880688047B068804700278246DFF878
:203E7000FC903D48C9F808702B6820619869A7608047C9F804003A4880F8008047801220CD
:203E90000BF068F8FF211222A0620BF056FAE01CFF2102220BF051FA12200BF05BF8314996
:203EB00008600868122239460BF047FA3846FCF7E3FC404608F07EFF2B480188FF2906D1E5
:203ED000022101807822001D39460BF036FA03200BF0A0FC04200BF099FC05200BF092FCB1
:203EF00006200BF08BFC072007F0BCFA2B681F4908200DF106025D6808706B461020394670
:203F1000A847A06AE269092709309DF8061000F8011BF1687F1EF8D1921E5046E26188470E
:203F300001F06AFCBDE8FC87481A002041490010F84400200032010001DD0000CDE90000B3
:203F5000081D0020181F00204BB20000BC1F0020C81D00207DE200002DEA0000842B002073
:203F7000B01F0020BC2B0020E41A0020CD2B002010B50B7884074CBF43F0020303F0FD03FC
:203F900004064CBF43F0800303F07F0304074CBF43F0080303F0F70384064CBF43F02003A5
:203FB00003F0DF0310F0AA0F0B7004D0107840F00C00107010BD18B9117801F0F301117043
:203FD00010BD2DE9F8430D461646287802281F464FF0000862D1686801784078089C01EBCA
:203FF000002189B220001CBFB1F5285F0B205AD14FF42850091A08D0491E1ED0491E2CD069
:20401000491E22D0491E2ED048E0DDF82490E8680BF099F9214680B2421A4A45ACBF4C46C3
:20403000041BA4B26018162804DA3C802246E86801440EE04FF00D0834E0E868008802215D
:2040500039803070000A70702CE0062038800622E96830460AF0FAFC24E001203880E86817
:20407000017831701EE0E868B0B108213980018831700188090A71704188B1704188090A18
:20409000F170818831718188090A7171C188B171C088000AF07105E0398003E0A7F8008048
:2040B0004FF001084046BDE8F2832DE9F0470F4682B039780024022970D1804678680A9EA5
:2040D0000178DFF8E0A09146427801EB022189B24FF42850091A1D4606D0491E29D0491E47
:2040F0004ED0491E39D059E0F8680BF02CF980B2B04204D3A819162803DB0D244FE0072406
:204110004DE0FB682A46494698190AF09FFCAD19F868ADB2C5F11602002140190BF00DF9EC
:20413000DAF8000000281CBF0268002A37D0002123E08EBB022DE0D199F8000099F801107F
:20415000FA6800EB01201080DAF8000000281CBF0268002A23D001210FE0EEB9062DCCD16D
:20417000F868062249460AF071FCDAF8000000281CBF0268002A12D00321404690470EE0F7
:2041900056B9012DB9D199F80000002813BF0128F9680870802402E00B2400E0012420469B
:2041B000BDE8F687B42B00202DE9F047894C2060616003F0D1FB0A2009F03AF825684FF08B
:2041D000090A08F085FB09F0E3FC504609F030F84FF004092D1F15F8048F6E78AB78EF780D
:2041F00040460AF0FEFD044640460AF0FAFD0AF0F8FD444040460AF0F4FD0AF0F2FD0AF0AC
:20421000F0FD444030460AF0ECFD604086EA000430460AF0E6FD0AF0E4FD0AF0E2FD444025
:2042300018460AF0DEFD0AF0DCFD604083EA000418460AF0D6FD0AF0D4FD0AF0D2FD444014
:2042500038460AF0CEFD0AF0CCFD0AF0CAFD60407840287040460AF0C4FD0AF0C2FD0AF0A3
:20427000C0FD044630460AF0BCFD444030460AF0B8FD0AF0B6FD444030460AF0B2FD0AF00B
:20429000B0FD0AF0AEFD444018460AF0AAFD604083EA000418460AF0A4FD0AF0A2FD0AF09C
:2042B000A0FD444038460AF09CFD0AF09AFD604087EA000438460AF094FD0AF092FD0AF08A
:2042D00090FD604088EA0000687040460AF089FD0AF087FD88EA000440460AF082FD0AF064
:2042F00080FD0AF07EFD444030460AF07AFD0AF078FD0AF076FD444018460AF072FD4440A6
:2043100018460AF06EFD0AF06CFD444018460AF068FD0AF066FD0AF064FD444038460AF072
:2043300060FD604087EA000438460AF05AFD0AF058FD0AF056FD60407040A87040460AF0A8
:2043500050FD88EA000440460AF04BFD0AF049FD0AF047FD444030460AF043FD0AF041FDD8
:20437000604086EA000430460AF03BFD0AF039FD0AF037FD444018460AF033FD0AF031FDDF
:204390000AF02FFD444038460AF02BFD444038460AF027FD0AF025FD444038460AF021FD6D
:2043B0000AF01FFD0AF01DFD60404340EB70B9F101097FF410AFBAF1010AA5F10C057FF48F
:2043D00000AF08F085FA09F0E3FB002008F030FFBDE8F087FC2900207CB5864D1446024682
:2043F0000026A2F58062182A1AD8DFE812F0F900F300EC00E400DD00D700D000CB001900ED
:20441000C000B900B200A9009C00190019007E006D00660052004A00400037002A0022003A
:2044300028287EDA02297CD121880BF0E3F90646DEE0012940F0DB80002C00F0D880113553
:20445000A3E0102940F0D380002C00F0D08028465030102221460AF0F9FAC9E0012940F02A
:20447000C680002C00F0C38029468D1D8DE0262940F0BD80002C00F0BA8005F16000262251
:20449000E8E7012940F0B380002C00F0B0806D1D7BE0602900D13CB9012940F0A880002C82
:2044B00000F0A5800D3570E005F18600214660220AF0CCFA012068739AE0012940F0978039
:2044D00020780BF093F993E0012940F090802078022800F38C800C3528702078022814BFA1
:2044F000301C01200BF07EF982E007297FD1611C684606220AF06CF920786946324604F086
:20451000F3FD04460A2C0CDA0BF068F918B9204603F078FD11E02A46012002F12C05285517
:2045300066E0022664E0012961D1A87B21780028A9735DD1207801285AD107F0EDFB57E02D
:20455000012954D12478072C51DB102C4FDC0B3537E001294BD124780A2C48DA093530E0BB
:20457000012944D12478022C41DA083529E000293DD10BF033F910B90AF044FBDDE7012478
:204590000F351EE0012932D10A35247819E001292DD12478022C2ADAED1D12E0102926D1A6
:2045B0002B4603F1400054E7012920D12478022C1DDA2D1D05E0012919D12478042C16DC2E
:2045D000ED1C2C7014E0012911D12478022C0EDAAD1CF6E702290AD120881435288007E048
:2045F000012904D12478022CD8BF6D1CE9DD182630467CBD0C1400202DE9F04F0446784870
:204610008E46016894461F46BEF1000FADF1440D4AD0BCF1000F47D09EF8002001209040CD
:20463000014241D0BCF80000B0F5C15F2FD1DCF81400DCF818606B4BDCF81C50DFF8A8A153
:204650000E904FF003080DF134090F9618681095C0F3036B59F8046FB6B10021331F052079
:204670000A4653F8045FAA4506D0401E01F1040102F10102F5D107E0052A05DA705820F485
:20469000702040EA0B407050B8F10108E2D1C4F804E0C4F808C00AF024FE544D8346287896
:2046B00020B158460BF0EEF8002095E002F0C2F94F49086840F0020008600AA80AF00AFC04
:2046D0004FF0050905F1BC000AAA4A49CDF8309008F052FB0AA80AF09DFB00264FF0FF0A08
:2046F00005F1600019210AAB8DF83060424ACDF82CA008F06DFA0AA80AF0ECFB05F1F0005B
:204710000AAA3E49CDF8309008F036FB0AA80AF081FB4FF00108CDF82CA005F17C001A21F2
:204730000AAB374A8DF8308008F052FA3549324605F19800134607F007FD33480AF0A0FCD1
:20475000324A3346042105F14C0009F0E9FB4FF6FF70A5F86001AE702E716E71AE71EE7144
:204770002E726E722E61C5F81C902B7885F80180581C287058460BF085F81FB903AF3846E6
:204790000AF07EFA386820607868E060387C84F811802074788A60821D4DA5616561F86888
:2047B00000B1A061B86800B160613146782204F1200005F0CDFC04F13800314609F056FAD4
:2047D00068460AF059FD1349029404F1700032466B4607F0B9FC204611B0BDE8F08FC0464E
:2047F000D4210840541300500200F844D81F002000200940D5EA000035E20000058A000092
:20481000D59C000025EF0000C1750000F9BE00006B9E0000B9F20000F0B57348734A0078CD
:20483000734C744B74490D2883B03CD8DFE800F0DB07070707D3D358D39292B0B0B7146083
:2048500041F204456D494C88AC421FBF4E8BAE424E8EAE4203D11D806948106072E0022CCF
:20487000684D1C804FF4A05635D94FF48067E41B1AD0241F012C1DD94FF47F77E41B1BD0F4
:204890004FF44067E41B0FD0A41E012C0CD9241F0AD0641E012C0DD940F2F937E41B012C2C
:2048B00019D9241F08D096E0022814BF1E80564D156047E0554DFBE7554803681C7A012C3C
:2048D00005D141F20240488048834886F0E74E804E834E86ECE7002009F050FF83207EE096
:2048F0004C488178FF2952D0182041434A48146040F204450068841C645A1C80641B012C86
:20491000464B70D94FF47F75641B0FD04FF44065641B032C84BF641F012C0BD9A41E012CBC
:2049300061D940F2FD35641B06D103E0801C41F201444452136005E0002009F01FFF8520B2
:204950000AF048FF03B0BDE8F04035480078012103F0B8BB40F204424888188090421CBF74
:2049700041F2084290423ED041F60402904211D12C4C2D4A25682D4800680023CDE9002384
:2049900055F8086F2A4B0222B0472A490880F7BD48881880002009F0F1FE85201FE0488820
:2049B000188002280DD940F20442801A1BD040F6FC72801A05D0083815D04FF47F72801A3C
:2049D000E8D1887B801CC0B2B528A8BF6620887300204880F7BD002009F0D0FE8420BDE86C
:2049F000FE400AF0F7BEF7BD6F4F0020204F0020B3F20000504F0020CC4C0020204A002073
:204A100059550110615A0110B1540110755B0110104F0020684E0020804E00203139011046
:204A30006E4F0020F04E002002000080EC4E002049D40000424F00202DE9FE4FDFF8FC81CA
:204A500098F8011011B9002009F098FE0AF012FF0546002405F6C4150027794EDFF8E491A4
:204A70000EE038460AF048F9417939B1316882790A552946641C0AF0A9FEE4B27F1CFFB276
:204A900099F800008742ECDB98F80100844205D0002009F073FE82200AF09CFE98F8010068
:204AB000012840F0A980002701E07F1CFFB299F80000874280F29A8038460AF01DF9054651
:204AD00068790028F1D03068A979027891421CBF002009F053FEA87986E0306810F8090080
:204AF0000AF00AF900684268DAF808109068814204BF3D4609F1010900F08D808FE03068A4
:204B1000047801210FE0D8F80420435C02F5AD7209FB03F509FB04FE555B32F80E2095426E
:204B300038BF1C46491CFFB2B942ECDB4FF6FF700AF048FE834620460AF0DEF840F6C41532
:204B500000684168CDF800A000204FEA5B076F4382460291CDF804B016E020460AF0CCF874
:204B700001680A78802A04BFDBF810305F610978402907D1344A8079136803EB401107F50B
:204B9000A062CA610AF1010A0098824554DA306810F80A008442F5D0D8F8043009FB00F216
:204BB000991803F5AD73C9899A5A4B08934203D2009B891A8B42E5DA0AF09EF80068D0F84F
:204BD00004B0029A0198DBF80810936800EBD0704010A1F6C41105FB00300AF047FE002878
:204BF000BBD0306810F80A00BDE8FE8F002009F0C5FD82200AF0EEFD98F8011030680AF0A9
:204C1000DDFD306800780AF077F800250168D1F804A04FF001096F1CA145FFF65EAFEDB2DB
:204C3000002D1CBFF8B20028A2464FF4C0797FF466AF3068047879E72046D5E7684E002032
:204C5000004F00207B4F0020844E00202DE9F84FDFF8F4B10746ABF13500DFF8E091006852
:204C7000800880F0D98071480068006880477A490831D1F8008000254FEA28725FEA985114
:204C900002F101020AD2C0F13E0110F10A0F4FEAE101D8BF08218A42B8BF0A1C644BD3F86A
:204CB0007C11C1F304611629A8BF20391B68C3F30443162BA8BF203B9A465118162905DA55
:204CD00011F10A0FB8BF6FF0090100E01521594B594E01F01F0242F4F8521A80326812F0A0
:204CF000030F18BF0125D20828BF45F002050FB145F004054A4692F90730C31A052B04DA5D
:204D10009379AB4208BF918866D0DFF834E10F28A0F10F0C25DB0CEB0013A3F1F00C4FEAD2
:204D30002C26072E88BF07263446062C88BF06245EF82470042303EB84037446E358DB1BDA
:204D500003F0FF04EF0824BFC3F307273C44AF0824BFC3F307473C446F0828BF04EB13642D
:204D700001E0002426465EF826E0EF080EF0FF0324BFCEF307273B44AF0824BFCEF3074765
:204D90003B446F0828BF03EB1E63A4B2ACEB0626AAEB01017443002904F1800403EB142389
:204DB000D8BF0121342408F0FF074C43A1B27943B1FBF3F14FF6FF738B4238BF191C80284E
:204DD00089B2918005DA10F1800FB8BF6FF07F0000E07F20D07195711A4800681F2910606B
:204DF0004FF0000008D340F2FF128A4206D24908401C8A42FBD301E01F219180134F0F397F
:204E1000090940EAC10047EA0001CBF8FB1F0026CBF8FF6FBDE8F88F0D490E4F4A46082088
:204E30000F60921D1070BDE8F88FC046EC0100103C1100506E62084024220840AC2B00205B
:204E50009C130050082009403500094000E7A48030100940FDFDA400AC3F00502DE9FE4F84
:204E70000E468246307AC10693461C464FF000090CD558460AF09EFC030000F0EA800A2276
:204E90003146504698475FEA00094DD13078DDF838800D9D0C9F02281AD1706801784078FE
:204EB00001EB002189B24FF42052891A012910D9891E3AD0491E14D0FD397BD0491E00F05B
:204ED0008280491E6ED0491E74D0491E00F09780ADE0002D2AD1F0680178398002784168A0
:204EF00089E0002D22D101203880F0680178217000217089401C80B20AF058FC398860B116
:204F10000278921C51183980418961704189090AA17002784168E01C6EE0091D398004223C
:204F30000021601C0AF009FA95E0002D68D1F0680588042139802570290A617028460DF124
:204F500002010AF033FC5FEA000821D0D8F80C50BDF802204FF6FF766B4631460AF022FCD6
:204F700050B998F80030D8F804203C4802210AF015FC08B9ADF80060287802280AD1696876
:204F90000222201D09F062FD3888801C388001E0ADF80050BDF80000A070BDF80000000ADA
:204FB000E07058E0002D2BD1F0680168504609F029FF02E025BBF0680088022139802070AA
:204FD000000A607047E0F0680AF0BDF980B229468842B8BF4FF007093DDB814208BF0022C3
:204FF00006D008EB01028242B2BF4246451BAAB23A80F0680144204609F028FD2BE015B1B0
:205010004FF00B0927E0F0680721398001782170417861704188A1704188090AE1700179D8
:205030002171C1886171C088000AA07113E058460AF0B0FB5FEA00090BD00F980290CDF8EF
:20505000048000953B46224631465046C847814601E04FF00E094846BDE8FE8F6C430100B4
:20507000F8B57E4F04463868C16E0025002940F0F180102009F06EFF39680028C86600F021
:20509000E7808E6E1022214609F0E0FC39680878002840F08E80CA6ED6F8980012F80CCF25
:2050B00000F001030CF0010C634518BF0023400843EA4000C6F89800C0F34003D2F800C0B6
:2050D000CCF3400C634506BF430803F00103002320F0020040EA4300C6F89800C0F38003D8
:2050F000D2F800C0CCF3800C634506BF830803F00103002320F0040040EA8300C6F89800A2
:20511000C0F3C003D2F800C0CCF3C00C634506BFC30803F00103002320F0080040EAC3009D
:20513000C6F89800C0F30023D2F800C0CCF3002C634506BF030A03F00103002320F4807026
:2051500040EA0320C6F89800C0F34023D2F800C0CCF3402C634506BF430A03F001030023FD
:2051700020F4007040EA4320C6F89800C0F38023D2F800C0CCF3802C634506BF830A03F080
:205190000103002320F4806040EA8320C6F89800C0F3C0231268C2F3C022934206BFC20AB4
:2051B00002F00102002220F4006040EAC220C6F898008A6E92F89500030718D5C86E436803
:2051D000C3F3C00098B1C87840F00800C870D6F8981023480140C6F898103868C06EC168D1
:2051F00021F48071C16049084900C16003E092F8330001282AD0607800281CBF717800290D
:2052100008D13968CA78130708D5002804BF7078002803D03A68052111711CE06068C0F33C
:20523000800040B996F8950010F0040002D10120087110E00AD00878002819BF30782178C6
:20525000317820780AF0A2FA054604E0182502E0132500E011252846F2BD00BF304F002050
:20527000FEFEFFFF2DE9F0411C4615468C4208BF854282BF00230022E5E0002C08BF002D59
:205290000AD100290EBF00286FF000006FF0000100F0E1F8BDE8F0815FF000085FF0000EB3
:2052B000002C08BF8D429CBF2C1C0025070C47EA01470E0CB44208BFBD429EBF5FEA044404
:2052D00044EA15445FEA0545070A47EA01670E0AB44208BFBD429EBF5FEA042444EA1564B1
:2052F0005FEA0525470847EAC1774E08B44208BFBD4200F29380870847EA81778E08B44218
:2053100008BFBD427CD8C70847EA4177CE08B44208BFBD4266D8070947EA01770E09B44215
:2053300008BFBD4250D8470947EAC1674E09B44208BFBD423AD8870947EA81678E09B4426B
:2053500008BFBD4224D8C70947EA4167CE09B44208BFBD420DD8E60146EA5566EF01B142A5
:2053700008BFB84201D3C01BB14158EB08085EEB0E0EA60146EA95664FEA8517B14208BFA2
:20539000B84201D3C01BB14158EB08084EEB0E0E660146EAD5666F01B14208BFB84201D3F0
:2053B000C01BB14158EB08084EEB0E0E260146EA15762F01B14208BFB84201D3C01BB14101
:2053D00058EB08085EEB0E0EE60046EA5576EF00B14208BFB84201D3C01BB14158EB08088D
:2053F0004EEB0E0EA60046EA9576AF00B14208BFB84201D3C01BB14158EB08084EEB0E0EBB
:20541000660046EAD5766F00B14208BFB84201D3C01BB14158EB08085EEB0E0EA14208BF75
:20543000A84201D3401BA14158EB08085EEB0E0EA34208BFAA423EBF2D0A45EA0465240A17
:2054500089D3734642461E4617460B46024631463846BDE8F08170472DE9F04F6C4CE2682C
:205470000746880FADF1140DC0F0CF805068406808B18047E2685168664E886808B9CD68FD
:2054900075B13568002DFCD00022326010B18047E0684168C86800B180475F4808F018FDB7
:2054B0004FF00008C6F800805C4846F81C0C5C4809F0E6FD40F60A09A4F82490A378A4F87D
:2054D0002680BD6894F83000C34604F1240A00F0F00084F83000012BC4F828B094F8310000
:2054F000A5F8028000F0F00040F0010084F8310001D17B7CABB1B8680088A9F1080181428C
:2055100008D0B0F5C15F05D0298B4FF60F400840288304E0298A4FF60F400840288287F832
:2055300011804048016883680193C368406B00911022694620F0784040F0805003903A4835
:20555000029303F083FD494600E01D466B6813B118888142F9D1C5F804A0687B00F0F00079
:20557000687304F1380009F0D0FE80680088A9F10701814220D0491C81421DD03B8CEBB10F
:2055900097F82C0097F82D30C7F824B000F0F00087F82C0003F0F00040F0010087F82D0076
:2055B00007F12002A2629AF80D00A7F8228000F0F0008AF80D0001E0C4F810803068002881
:2055D000FCD0C6F80080B968237A0A8A4FF6FF301040088283B915480068016801208847B7
:2055F00001280FD0687B00F0F00040F0010068730F4809F045FD05E007F0CAF90028FBD0A0
:2056100009F081FEB86846F81C0C05B0BDE8F08FD81F00201C1004400100070601010E04FA
:205630007D2300004C13005018000021E00100108DB1000066480178002900D170472DE9B5
:20565000F043491E032985B004D9891F012940F2BC80B4E05F4CDFF880912168DFF87C819E
:2056700008685F4E00F10805062205F1080102A809F0ECF90622A91C684609F0E7F928783C
:20569000C1091D2700F00F02032AC0F3801537D16079C0F3800081421ED12169062202A854
:2056B00008F014FF00280AD0694628460AF0D2F8002804D0314668460AF0C8F8FF2879D0A1
:2056D0004743D8F80000807AF519002818BF02280AD0012818BF03286CD1F25D691C48468B
:2056F0000AF050F8102865D06B46EA1D294648460AF044F806226946E81D09F0A7F959E052
:2057100000F00F00052860D16079C0F38000814250D12169062202A808F0D8FE002849D0C1
:20573000694628460AF096F8002843D0314668460AF08CF8FF283DD04743D8F80000807A4E
:20575000F519002818BF01280AD0022818BF032830D1F25D691C48460AF014F8102829D063
:2057700040F202400AF006F86B46EA1D294648460AF004F806226946E81D09F067F9D8F8FD
:205790000010F05D88760622D8F80000691C143009F05CF91348144A41F2044141804183D9
:2057B0004186124801801249124808600121107802F088FC21680A680020107105E0002059
:2057D00008F0DCFF86200AF005F805B0BDE8F0836F4F0020F44B0020CC470020104F00208D
:2057F000AC450020204A00206E4F0020504F0020204F0020595501102DE9FE4F674D664C4B
:20581000674F2868626A066904F1200339460120B04710B1286880688047DFF88881DFF891
:20583000889108F009FC5FEA000B03D003F0B4FE4FF0FF3B002637E00098216910F8062C64
:20585000A0F10C07032A02D171B388472CE0A06A9DF805C009213246401E10F8013F9C4508
:2058700006D0491E02F10102F7D14FF0FF0A01E05FFA82FA2868BAF1FF0F00F1080011D0FC
:20589000387907F02FFCB979012904D0022904BF0099887001E0009908700099504608F05D
:2058B00035FE01E0006880472868C3690DF105016A4601A898470028BED0D9F8000030F8EE
:2058D000167027B9761CF6B2092EF8DB23E0092E21DAD8F808008047D9F8001077000022C0
:2058F00031F807A0CA53D8F80C1088472F4850F8262026705146304690470646FF20207076
:20591000D8F808008047D9F800107A5A16437E52D8F80C10884708F08FFB0746BB451AD086
:2059300007B9234FE069B84238BF071CD8F80800804782462868016A206A8847626A2868B1
:2059500017491C4B521C6262C6683846B047D8F80C1050468847A7682968606914318FB954
:20597000D9F8000009270026835B33B10969606988472968D9F8000014317F1E06F10206E1
:20599000F2D103E0096988472968143109684FF0FF30884745E7C046C81D0020BC1F00205A
:2059B0002DD10000481A0020BC2B0020584401008EC2F528E81D00202DE9F04FADF1240DFD
:2059D000079001F037F86148007808F0BFFB604D0024012808D90A380FD0801E04D0401E61
:2059F0000ED0401E09D006E008F0A0FF022804BF01210C1C06D0696805E005211F2401E0F8
:205A1000032107246960534A1068C0F38150012806D152F80C0C0127020E07FA02F00443F1
:205A300009F028FA524AFF230818401E471C28607F1E02F8013BFBD1079A1268002702F041
:205A5000FF03FE2B20D0DDF81CC096463B4601260EF0FF02FF2A10D0904205D3914203D886
:205A700006FA02F2144201D002206CE017430EF0FF02DFF8FCE00EF802305CF804EF5B1C8B
:205A90000EF0FF02FE2AE5D1092002F0A9FD07980121A86005F1280008F0E8F805F1980605
:205AB000A8464FF0010A4FF0040B0025A9460AFA05F0044216D1074204BF05F0FF0141F4E0
:205AD000C04104D02A480799405D51F82010224802F094F8E8B24FF0FF3108F009FEC6F80B
:205AF000009001E0C6F800B0D8F800006D1C361D8542DCD904A809F08DF9184C184A207806
:205B1000102104AB059008F10C0007F061F8684609F0E0F9CDF80C906A4660681149029066
:205B300008F1640007F028F90F4951F80D0C20F4F85040F4005041F80D0C0C4FC1F8FFAF32
:205B50004846C7F800A009B0BDE8F08FCB2B0020E0160020B43F0050007FC767AC4601005C
:205B70001DE7000061C900000D30094008000940241700202DE9F84F694CE76B08F0E2FE79
:205B90006A4D002F4ED081081BD207F110020CCA002102400B4008BF002A43D03A693E6A9E
:205BB00010403043386207F1180696E80C002764194307F11806104386E803004FF4804113
:205BD0002CE039693E6A07F1180341F0020108403043386293E800030022002607F11803EA
:205BF00040EA080046EA090183E803003E69E2632B46A3F1100000F108031968B14307F151
:205C10001006196096E8000301684B4699430160394604F1440006F003FB022104F1BC00AD
:205C300009F07FFBAB46002601254FF002094FF0110AA846F0B208F0D9FD071C30D0B87C4B
:205C500001282DD1ABF11400797C0368113105FA01F223EA02010160797C4268113105FA78
:205C700001F111434160787C08FA00F0C0B208F0CBFDF868002108F093F8812808BF87F822
:205C9000129081280CD0787C94F862110AFA00F0084384F86201002104F1F00009F041FB81
:205CB000761C032EC6D3204809F02FFB0746E06B002832D167B3684605F0C0FE30B1009836
:205CD00020B1082004F002FABDE8F88F082008F09BFD14493869A1F10802136807F11006C4
:205CF0001843106096E80C0051F8102C181C104341F8100C00250D60B86841F81C0C0F6854
:205D1000002FFCD0084808F04DFEE063BDE8F88F04F1BC00494609F004FBBDE8F88FC0460C
:205D3000D81F00201C100440102000201C10044060480178042900D870472DE9F84F891F2A
:205D50002FD0491E012900F2AA805B4CA078FF2827D008F0D1FF82460AF16C06706809F0DC
:205D700005FD0746387903281BD1B868017811F0030904D17068BDE8F24F09F0F3BC45785E
:205D900000F102080AF20F10B9F1030F00900DD045B1307830B900983D21417001210098CC
:205DB000017084E0454801780129FAD09AF894000AF59A7B58B32D1F4346EAB24946504629
:205DD00009F0CCFC50B900993D204870012000990870BDE8F24F3A4809F0BCBC3948016846
:205DF000884700904FF4C0709AF80620616842438818002180F83911DBF800109BF80600BC
:205E1000490805F031F8304900980A6890470020B9F1030FB8602ED02C484069007881079A
:205E300008D5C0074CBF03200020EDB2401918F8000000E0812030722549BBF83E000A7854
:205E5000904211D3317A802918BF81290FBF7F21204A1078091A49B200914B46A078EAB253
:205E7000414609F073FC11E0A0784B46EAB2414609F068FC0AE00F480178082903D04146C4
:205E9000504609F05BFC404606F0ECF8706809F069FC39465046BDE8F44F09F04BBC002059
:205EB00008F06CFCBDE8F24F862009F093BCBDE8F18F00BF6F4F0020684E0020794F00201E
:205ED000AC450020501A0020541A0020504701006B4F0020704F00202DE9F04F674CA06828
:205EF000ADF1440D002800F09980DFF888914FF00A0B4FF0010A4FF000088BE009F016FC27
:205F100021785D4BCA0002EB41129A18B2E8E01007ABA3E8E010E0CAE0C364CA4F1C07F0E0
:205F30000F0183E8640004F10C05627821708A4208BF84F802A009F0A5FCBDF820000028B9
:205F500008BF2E1C09D00346A62136A2284608F0C8FC284608F0F8FE2E18079FB8B208F08B
:205F7000F5FA40A20CCA01F03DF940A20CCA01F039F906F009FAA91B00902CA23B0CA6312F
:205F9000304608F0AEFC284608F0DEFE2A18A0682946521B09F042F9BDF82200C0B109F0FC
:205FB000C1FBB9F8007037B909990A9F0346009122A201971CE00C9900910D9F01970E9E61
:205FD00002960F9B0393109A04920B9B02460FE00B9800900C9F01970D9E02960E9B0393C4
:205FF0000F9A0492CDF81480CDF818800A9B099A2846A62108F075FC284608F0A5FE2A186B
:206010000D2002F8010B02F801BBA0682946521B09F004F9A07800283FF470AF11B0BDE8B5
:20603000F08FC04623253036752000C05B2025642E25303375205D2000C046C07B6576746C
:206050003A20666D743D25702C20617267733D5B307825782C2030782578202E2E2E5D7DD2
:2060700000C046C0000000000000F03E0000000000408F40FE120000800C0020C80B00205E
:206090000FB42DE9F04106AF8046ADF1280D09F09FF83E1D26F00306361D30F0010001D148
:2060B00008F058FDCDF81A601420ADF816000025CDF80E50FF248DF818407B68CDF81E3017
:2060D00009F02CFB064609F083F830F0010015D008F0E0FB4E492A468446062031F80C7F4C
:2060F0004FB14B681B689E4204D0401E02F10102F4D100E0D4B2604608F037FD404607F0D8
:2061100019F90146FF2905D0204603220DF11A0304F0F6FB09F002FB07F0BCFA2E4604462D
:20613000009609F055F830F0010067D00098A04264D041F2883001A907F07CFADDF8008016
:20615000002853D109F0E6FA019D01272D186068019B31464FF0005209F0A4FB00282CD0D7
:206170000DF122000DF1230102AA05F037F8B8B99DF8220003A907F075FA40B9029A09F035
:2061900003F800281CBFDDF80880371C15D10299684607F0D1FC60684FF0005109F0B6FA4D
:2061B0000198B0F1FF3FD2D00028D0D009F0B2FA281A02D00199814216D208F06FFA009EF0
:2061D00008F068FB083401463EB1324652F80C0C40B9206842F80C0C2660084608F0C5FCA8
:2061F000384603E00246F1E70190B0E730B9B8F1000F05D0404609F048F801E008F0AAFC32
:20621000DDF81A0000680AB0BDE8F04104B07047901A00202DE9F04F8346ADF1140D0393DF
:20623000BBF1000F02920E9801910F9C049000F0AB80081C00F0A880101C00F0A580181CBC
:2062500000F0A2800498002800F09E80002C00F0A080206A002800F09780514D676A281DA1
:206270000068002F00F09080A16A09F04BFA40B2002808BF6FF0020700F0828084F82C004B
:206290002078618800EB80004018216A143080B288474249086030B92846406809F02EFAC7
:2062B0004FF0FF376CE08A466088DAF800502178237805EB00096088421800EB4106AA18D0
:2062D000AF1902F1040803EB430283188918EE1840182D18204605F05BFF2078C01C80101C
:2062F000C9F800002078C01C8010C8F8000020780837C01C8010386020780C36C01C8010E8
:20631000306020781035C01C801028602278594609F1040002F09AFE2278019908F104001A
:2063300002F094FE22780299381D02F08FFE0095484641463A46334609F0DCF947B22278BC
:206350000398331D194602F081FE22780498291D02F07CFE22786188DAF8000002EB8202C4
:206370005218002103F0F4FE616ADAF8000088470B48406809F0C2F9F8B2992808BF002729
:2063900084F82C70384606E01CB16FF0010084F82C006FF0010005B0BDE8F08F884F00206C
:2063B000081F002070B5414C414B2568186855F8183F00224FF0FF3198473E483E4A416B6D
:2063D0003E4C88683E4D41791170002609F08EF93C4809F087F909F081F93B480268002149
:2063F0005171A02301680722CB804A720321026811720021036859770268D176036883F86B
:206410005C10012102681177036883F85D100021006880F85E100EE06068F6B24FF4C07158
:20643000714308444279012A04D1304608F064FC09F050F9761C2978F0B28842ECD309F02A
:2064500045F92248224A0178117006F0D1FC09F039F92049204A0020087000211170012002
:206470001E4A10701E4A11701E4A10701B201E4A11701E4A11701E4A11804FF4A4711D4A8E
:206490001080FB201C4A11801C4A1D49108040F648000880FB211B4A11801B4A108009F0E8
:2064B0000DF91A490020087070BD00BFF04E0020EC4E002050470100714F0020684E0020D9
:2064D0007B4F0020CC470020104F00206D4F00207A4F0020734F0020744F0020754F0020A2
:2064F000764F0020774F0020784F0020794F0020524F0020444F0020464F0020484F002012
:206510004A4F00204C4F00204E4F00206F4F00202DE9F0470028ADF1200D00F0AA8080463C
:206530000446206C382815D380212154401C402807D221180022C0F14000401E01F8012BAB
:20655000FBD14046414600F0DDF90021382203F0FFFD0DE021188022401C38280A7007D24B
:206570000022C0F13800491C401E01F8012BFBD1276C04F1480090E80C000021F800801847
:2065900004F1480241EB030182E8030094F8480004F1480684F83F0096E8030004F148057A
:2065B000000A0906084384F83E0095E8030004F14807000C0904084384F83D0097E803004A
:2065D00004F14803000E0902084384F83C0093E8030004F14802081C84F83B0092E803003A
:2065F00004F14806080A84F83A0096E8030004F14805080C84F8390095E80300080E4146D7
:2066100084F83800404600F07DF9D4F850A0D4F85490E66ED4F858E0D4F85CC0226E616EBF
:20663000A06E04271823ADF101042AFA03F504F8015F29FA03F525717F1E2EFA03F52572B6
:206650002CFA03F5257322FA03F5257421FA03F5257520FA03F5257626FA03F52577A3F125
:206670000803E2D12020694607F0F2FB404606F047FE08B0BDE8F087B0B5456884684F484F
:20669000297BADF1180D012916D0217E627E4C4B2F7E0143009143EA02010191494937F060
:2066B000010718BF081CA27E1043029095F88D000322FF2811D00DE0677E217E3843A37E6E
:2066D000019041F00041009143F000403E49029095F88D00014304220391FE204DF82200ED
:2066F000694605F1900002F04BFDC5F89C00002808BF00205FD0287B344951F820000128D2
:206710002BD02068B0F1804F14BF22220A22217ED5F89C0007F094FA2068B0F1804F14BFDB
:2067300021220922617ED5F89C0007F089FA2068B0F1804F14BF24220C22A17ED5F89C0052
:2067500007F07EFA95F88D10FF2933D02068B0F1804F14BF23220B2228E02068B0F1804F28
:2067700014BF21220922217ED5F89C0007F068FA2068B0F1804F14BF22220A22617ED5F880
:206790009C0007F05DFA2068B0F1804F14BF24220C22A17ED5F89C0007F052FA2068B0F1CC
